:100000000C942A000C9447000C9447000C94470071
:100010000C9447000C9447000C9447000C94470044
:100020000C9447000C9447000C9447000C94470034
:100030000C9447000C948A000C9463000C944700C5
:100040000C9447000C9447000C9447000C94470014
:100050000C94470011241FBECFE5D8E0DEBFCDBF12
:1000600010E0A0E6B0E0E6E6F1E002C005900D92F7
:10007000A036B107D9F720E0A0E6B0E001C01D929C
:10008000A436B207E1F70E9449000C94B1000C9429
:1000900000000E9450008FEF8ABB80E090E008953E
:1000A00087B3806487BB8EB180628EB98DB1877F44
:1000B0008DB98DB18B7F8DB98DB18F7E8DB98DB19D
:1000C00080648DB908951F920F920FB60F9211247C
:1000D0002F933F934F935F936F937F938F939F9350
:1000E000AF93BF93EF93FF93E0916200F0916300B1
:1000F0000995FF91EF91BF91AF919F918F917F9162
:100100006F915F914F913F912F910F900FBE0F9084
:100110001F9018951F920F920FB60F9211242F93D4
:100120003F934F935F936F937F938F939F93AF937F
:10013000BF93EF93FF93E0916000F0916100099508
:10014000FF91EF91BF91AF919F918F917F916F91AF
:100150005F914F913F912F910F900FBE0F901F9085
:060160001895F894FFCF92
:00000001FF
