:100000000C942A000C9447000C9447000C94470071
:100010000C9447000C9447000C9447000C94470044
:100020000C9447000C9447000C9447000C94470034
:100030000C9447000C9494000C946D000C944700B1
:100040000C9447000C9447000C9447000C94470014
:100050000C94470011241FBECFE5D8E0DEBFCDBF12
:1000600010E0A0E6B0E0EAE7F1E002C005900D92F2
:10007000A036B107D9F720E0A0E6B0E001C01D929C
:10008000A436B207E1F70E9453000C94BB000C9415
:1000900000008FEF8ABB80ED0E94550081E00E9436
:1000A00057008BBBFBCF0E94490082B9089584ECB6
:1000B00086BF06B607FEFDCF01C081B181B1803693
:1000C000E1F784EC86BF06B607FEFDCF01C081B123
:1000D00081B18038E1F783B108951F920F920FB676
:1000E0000F9211242F933F934F935F936F937F93BE
:1000F0008F939F93AF93BF93EF93FF93E091620031
:10010000F09163000995FF91EF91BF91AF919F919D
:100110008F917F916F915F914F913F912F910F90B0
:100120000FBE0F901F9018951F920F920FB60F924F
:1001300011242F933F934F935F936F937F938F93EC
:100140009F93AF93BF93EF93FF93E0916000F09183
:1001500061000995FF91EF91BF91AF919F918F91B0
:100160007F916F915F914F913F912F910F900FBEB3
:0A0170000F901F901895F894FFCF30
:00000001FF
