:100000000C942A000C9447000C9447000C94470071
:100010000C9447000C9447000C9447000C94470044
:100020000C9447000C9447000C9447000C94470034
:100030000C9447000C94C4000C949D000C94470051
:100040000C9447000C9447000C9447000C94470014
:100050000C94470011241FBECFE5D8E0DEBFCDBF12
:1000600010E0A0E6B0E0EEE1F2E002C005900D92F3
:10007000A036B107D9F720E0A0E6B0E001C01D929C
:10008000A436B207E1F70E9467000C940D010C94AE
:1000900000008FEF8ABB68E470E080E090E00E948F
:1000A00069002FEF84E39CE0215080409040E1F70D
:1000B00000C000000E947D0081ED0E948C0080E065
:1000C0000E949600C82F0E949300CBBBEACF0E94EB
:1000D00049009B01AC0160E072E18AE790E00E9478
:1000E000EB00DA01C9014097A109B109B695A795BE
:1000F0009795879580B911B8089584EA86BF86B729
:1001000026B791E088230CF490E081E0283009F4D0
:1001100080E08923A1F7089583B984E886BF06B6F5
:1001200007FEFDCF089584E986BF089584EC86BF5D
:1001300006B607FEFDCF83B108951F920F920FB64A
:100140000F9211242F933F934F935F936F937F935D
:100150008F939F93AF93BF93EF93FF93E0916200D0
:10016000F09163000995FF91EF91BF91AF919F913D
:100170008F917F916F915F914F913F912F910F9050
:100180000FBE0F901F9018951F920F920FB60F92EF
:1001900011242F933F934F935F936F937F938F938C
:1001A0009F93AF93BF93EF93FF93E0916000F09123
:1001B00061000995FF91EF91BF91AF919F918F9150
:1001C0007F916F915F914F913F912F910F900FBE53
:1001D0000F901F901895A1E21A2EAA1BBB1BFD01C0
:1001E0000DC0AA1FBB1FEE1FFF1FA217B307E40716
:1001F000F50720F0A21BB30BE40BF50B661F771F6E
:10020000881F991F1A9469F760957095809590954D
:0E0210009B01AC01BD01CF010895F894FFCF12
:00000001FF
