S01300004156525F447269766572732E73726563EA
S11300000C942A000C9447000C9447000C9447006D
S11300100C9447000C9447000C9447000C94470040
S11300200C9447000C9447000C9447000C94470030
S11300300C9447000C94D9000C94B2000C94470023
S11300400C9447000C9447000C9447000C94470010
S11300500C94470011241FBECFE5D8E0DEBFCDBF0E
S113006010E0A0E6B0E0E4E0F2E002C005900D92FA
S1130070A036B107D9F720E0A0E6B0E001C01D9298
S1130080A436B207E1F70E9458000C9400010C94C6
S11300900000CF93C62F98B39F7E98BB0E94AE00FA
S11300A08C2F0E94AE0088B3806188BBCF910895E5
S11300B00E9492006FEF89E00E9449006FEF8AE08E
S11300C00E94490067EF8BE00E94490061E08CE0E8
S11300D00E944900C1E061E010C0D1E0D60F8C2F2E
S11300E00E9449002FEF84E39CE02150804090401F
S11300F0E1F700C00000CF5F6D2FC93070F3C1E09D
S11301000EC060E08C2F0E9449002FEF84E39CE036
S1130110215080409040E1F700C00000CF5FC9301B
S113012080F3D8CF87B3806B87BB8EB180628EB9E2
S11301308DB1877F8DB98DB18B7F8DB98EB18E7F57
S11301408EB98DB18C7F8DB98DB181608DB98DB132
S113015080618DB98DB180648DB908958FB9779B15
S1130160FECF08951F920F920FB60F9211242F9372
S11301703F934F935F936F937F938F939F93AF932B
S1130180BF93EF93FF93E0916200F09163000995B0
S1130190FF91EF91BF91AF919F918F917F916F915B
S11301A05F914F913F912F910F900FBE0F901F9031
S11301B018951F920F920FB60F9211242F933F930D
S11301C04F935F936F937F938F939F93AF93BF935B
S11301D0EF93FF93E0916000F09161000995FF9126
S11301E0EF91BF91AF919F918F917F916F915F91AB
S11301F04F913F912F910F900FBE0F901F90189524
S1070200F894FFCF9C
S9030000FC
