:020000040800F2
:10000000002800206D040008BD040008BD0400089D
:10001000BD040008BD040008BD0400080000000085
:10002000000000000000000000000000BD04000807
:10003000BD04000800000000BD040008BD04000865
:10004000BD040008BD040008BD040008BD0400088C
:10005000BD040008BD040008BD040008BD0400087C
:10006000BD040008BD040008BD040008BD0400086C
:10007000BD040008BD040008BD040008BD0400085C
:10008000BD040008BD040008BD040008BD0400084C
:10009000BD040008BD040008BD040008BD0400083C
:1000A000BD040008BD040008BD040008BD0400082C
:1000B000BD040008BD040008BD040008BD0400081C
:1000C000BD040008BD040008BD040008BD0400080C
:1000D000BD040008BD040008BD040008BD040008FC
:1000E000BD040008BD04000800000000BD040008B5
:1000F000BD040008BD040008BD040008BD040008DC
:10010000BD040008BD040008BD040008BD040008CB
:10011000BD040008BD040008BD040008BD040008BB
:10012000BD040008BD040008BD040008BD040008AB
:1001300010B5054C237833B9044B13B10448AFF321
:1001400000800123237010BD00000020000000008B
:100150000805000808B5034B1BB103490348AFF37A
:10016000008008BD00000000040000200805000811
:1001700080B483B000AF0346FB80FB88802B42D065
:10018000802B11DC082B36D0082B06DC022B2ED05E
:10019000042B2ED0012B28D037E0202B2FD0402B42
:1001A0002FD0102B29D030E0B3F5006F23D0B3F55A
:1001B000006F09DCB3F5007F19D0B3F5806F18D05C
:1001C000B3F5807F11D020E0B3F5005F17D0B3F511
:1001D000005F03DCB3F5805F0FD016E0B3F5804F0E
:1001E0000FD0B3F5004F0ED00FE000230DE0042335
:1001F0000BE0082309E00C2307E0102305E014239B
:1002000003E0182301E01C23FFE718460C37BD4626
:1002100080BC704780B586B000AF7860396000233D
:100220003B613B681B88FF2B01D87B6801E07B6842
:1002300004333B613B681B881846FFF799FF034670
:10024000FB733B691B68FA7B0F2101FA02F2D24370
:100250001A403B691A603B689B78082B3DD801A285
:1002600052F823F08902000889020008930200086E
:10027000A7020008C3020008C3020008C302000866
:10028000C3020008BD0200083B689B789B00FB7519
:1002900023E00823FB757B68DB683A6812881A4301
:1002A0007B68DA6019E00823FB757B68DB683A68D5
:1002B0001288D2431A407B68DA600EE00423FB7593
:1002C0000BE03B68DB785AB23B689B78043B9B00B1
:1002D0005BB213435BB2FB7500BF3B691B68F97DE2
:1002E000FA7B01FA02F21A433B691A6000BF183721
:1002F000BD4680BD80B485B000AF78600B467B8082
:100300000023FB737B689A687B881340002B01D025
:100310000123FB73FB7B18461437BD4680BC704736
:1003200080B483B000AF78600B467B807B68DA686E
:100330007B885A407B68DA6000BF0C37BD4680BCC2
:100340007047000080B400AF074B9B69064A43F03A
:1003500004039361044B9B69034A43F008039361D0
:1003600000BFBD4680BC70470010024080B582B01F
:1003700000AF0223BB800123BB713B1D194614480B
:10038000FFF748FF4FF40053BB800123BB713B1DB7
:1003900019460F48FFF73EFF0223BB800423BB71C1
:1003A0000123FB713B1D19460A48FFF733FF4FF449
:1003B0000053BB800423BB710123FB713B1D194615
:1003C0000448FFF727FF00BF0837BD4680BD00BFC8
:1003D00000080140000C014080B485B000AF786097
:1003E0000023FB600BE00023BB6002E0BB6801332D
:1003F000BB60BB68FE2BF9DDFB680133FB60FA686C
:100400007B689A42EFDB00BF1437BD4680BC704763
:1004100080B500AFFFF796FFFFF7A8FF0221114854
:10042000FFF768FF0346002B0BD102210E48FFF7B0
:1004300077FF00BF02210B48FFF75CFF0346002B4C
:10044000F8D04FF400510748FFF754FF0346002B44
:1004500004D04FF400510448FFF762FF0120FFF77A
:10046000BBFFDBE700080140000C01400D4885465A
:10047000AFF300800C480D490D4A002302E0D45828
:10048000C4500433C4188C42F9D30A4A0A4C0023DE
:1004900001E013600432A242FBD300F011F8FFF731
:1004A000B7FFFEE700280020000000200000002029
:1004B00028050008000000201C000020FEE70000C6
:1004C00070B500250C4E0D4CA41BA410A54209D1FB
:1004D00000F01AF800250A4E0A4CA41BA410A542ED
:1004E00005D170BD56F8253098470135EEE756F82E
:1004F000253098470135F2E720050008200500085F
:100500002005000824050008F8B500BFF8BC08BCA9
:100510009E467047F8B500BFF8BC08BC9E467047C1
:040520005501000879
:040524003101000899
:040000050800046D7E
:00000001FF
