:100000000C942A000C9447000C9447000C94470071
:100010000C9447000C9447000C9447000C94470044
:100020000C9447000C9447000C9471020C94EF015F
:100030000C9447000C94C1020C949A020C94470053
:100040000C9447000C9447000C9447000C94470014
:100050000C94470011241FBECFE5D8E0DEBFCDBF12
:1000600010E0A0E6B0E0ECE4F6E002C005900D92EE
:10007000AE37B107D9F720E0AEE7B0E001C01D927E
:10008000A139B207E1F70E94AB010C9424030C9450
:10009000000088B3846088BB89EF90E00197F1F796
:1000A00000C0000088B38B7F88BB83EF91E001978D
:1000B000F1F700C000000895CF93C82F88B38C7F5C
:1000C00088BB8BB38F709C2F907F892B8BBB0E943A
:1000D00049002BB330E1C39FC0011124922F9F70C0
:1000E000892B8BBB0E944900CF910895CF93C82FD5
:1000F00088B3816088BB88B38D7F88BB8BB38F70DA
:100100009C2F907F892B8BBB89EF90E00197F1F7B3
:1001100000C000000E9449002BB330E1C39FC00122
:100120001124922F9F70892B8BBB0E944900CF9185
:1001300008950F931F93CF93DF93CDB7DEB72C971E
:100140000FB6F894DEBF0FBECDBFFE0131962CE096
:10015000DF011D922A95E9F7611571058105910569
:10016000A9F42AC011502AE030E040E050E00E949B
:10017000E802E1E0F0E0EC0FFD1FE10FF11D605D32
:100180006083622F732F842F952F01C01BE06115B0
:1001900071058105910531F70CC001E0010FE1E027
:1001A000F0E0EC0FFD1FE10FF11D80810E94760051
:1001B000102F1B3090F303C080E30E9476002C9632
:1001C0000FB6F894DEBF0FBECDBFDF91CF911F9168
:1001D0000F91089581E00E945C00089587E893E103
:1001E0000197F1F700C000008AB3806F8ABB87B324
:1001F000876087BB88B3887F88BB85EA9EE00197CC
:10020000F1F700C000000E94EA0082E00E945C005A
:1002100088E20E945C0086E00E945C0080E80E9408
:100220005C008CE00E945C000895813019F08230FF
:1002300031F0089580E8860F0E945C00089580ECFC
:10024000860F0E945C0008950F931F93CF93DF9356
:100250008C01C0E0D0E015C00E947600CF5FC031B5
:1002600019F0C03231F00CC060E082E00E9415014C
:1002700007C00E94EA0060E081E00E941501C0E032
:10028000DF5FF801ED0FF11D80818111E5CFDF9176
:10029000CF911F910F910895CF92DF92EF92FF922D
:1002A000CF93C82F80E00E94D0016C01E12CF12C8B
:1002B0000E94EA0060E081E00E941501C13049F02F
:1002C00018F0C230E1F031C085E690E00E942401D0
:1002D0002FC0A8E8B3E1A70196010E940A036B01B1
:1002E0007C010B2EBAE0F694E794D794C794BA95A4
:1002F000D1F7B02D8FE690E00E94240119C0A4E64A
:10030000B0E0A70196010E940A036B017C010B2E4D
:10031000BAE0F694E794D794C794BA95D1F7B02D84
:1003200087E790E00E94240103C0C12CD12C760104
:10033000C701B6010E9499002FEF84E39CE0215091
:1003400080409040E1F700C00000CF91FF90EF9017
:10035000DF90CF9008950E94EE0080E690E00E942A
:10036000B50181E00E944C01FCCFFC0117B89081DF
:100370008181892B87B916B893818281892B86B9AF
:1003800084818F3F49F080E286B980B78F7180BF4A
:1003900090B78481892B80BF86B1806886B9089523
:1003A00097B1892B87B986B1806486B93699FECF1B
:1003B0003D9908C024B185B1837090E0982F8827BB
:1003C000822B089524B1229526952695237085B118
:1003D00090E0880F991F880F991F822B08951F9214
:1003E0000F920FB60F9211240F931F932F933F93E9
:1003F0004F935F936F937F938F939F93AF93BF932D
:10040000EF93FF938091820090918300A0918400EC
:10041000B09185000097A105B10509F443C0409152
:100420007E0050917F0060918000709181004F5F4D
:100430005F4F6F4F7F4F40937E0050937F006093DC
:100440008000709381008C019D010F5F1F4F2F4F23
:100450003F4F401751076207730771F420918B00DB
:10046000283451F410927E0010927F001092800088
:100470001092810080E01BC00296A11DB11D48179B
:1004800059076A077B0781F480918B00803471F4EF
:1004900010927E0010927F001092800010928100D6
:1004A00080E005C081E003C081E001C081E0E0910F
:1004B0008D00F0918E00309709F00995FF91EF9132
:1004C000BF91AF919F918F917F916F915F914F916C
:1004D0003F912F911F910F910F900FBE0F901F9082
:1004E00018951F920F920FB60F9211242F933F93DE
:1004F0004F935F936F937F938F939F93AF93BF932C
:10050000EF93FF93E0918F00F0919000309709F006
:100510000995FF91EF91BF91AF919F918F917F913D
:100520006F915F914F913F912F910F900FBE0F9060
:100530001F9018951F920F920FB60F9211242F93B0
:100540003F934F935F936F937F938F939F93AF935B
:10055000BF93EF93FF93E0918800F0918900099594
:10056000FF91EF91BF91AF919F918F917F916F918B
:100570005F914F913F912F910F900FBE0F901F9061
:1005800018951F920F920FB60F9211242F933F933D
:100590004F935F936F937F938F939F93AF93BF938B
:1005A000EF93FF93E0918600F09187000995FF910A
:1005B000EF91BF91AF919F918F917F916F915F91DB
:1005C0004F913F912F910F900FBE0F901F90189554
:1005D000A1E21A2EAA1BBB1BFD010DC0AA1FBB1F47
:1005E000EE1FFF1FA217B307E407F50720F0A21BB9
:1005F000B30BE40BF50B661F771F881F991F1A9426
:1006000069F760957095809590959B01AC01BD014F
:10061000CF0108950E941503A59F900DB49F900DE2
:10062000A49F800D911D11240895A29FB001B39F36
:10063000C001A39F700D811D1124911DB29F700DEB
:0C064000811D1124911D0895F894FFCF36
:10064C0000400600FF4144435F5265673A20005664
:0E065C00286D76293A2000562825293A2000DC
:00000001FF
