:020000040800F2
:1000000000280020D10E0008210F0008210F000851
:10001000210F0008210F0008210F00080000000038
:10002000000000000000000000000000210F000898
:10003000210F000800000000210F0008210F000818
:10004000210F0008210F0008210F0008210F0008D0
:10005000210F0008210F0008C1020008E502000876
:10006000090300082D03000851030008210F0008B0
:10007000210F0008210F0008210F0008210F0008A0
:10008000210F0008210F0008210F0008210F000890
:10009000210F0008210F0008210F00087503000838
:1000A000210F0008210F0008210F0008210F000870
:1000B000210F0008210F0008210F0008770C00080D
:1000C000830C00088F0C00089B0C0008350D0008FD
:1000D0008D0D0008E50D0008F90D00080D0E000853
:1000E0001D040008210F000800000000210F000877
:1000F000210F0008210F0008210F0008210F000820
:10010000210F0008210F0008210F0008210F00080F
:10011000210F0008210F0008210F0008210F0008FF
:10012000210F0008210F0008210F0008210F0008EF
:1001300010B5054C237833B9044B13B10448AFF321
:1001400000800123237010BD00000020000000008B
:100150006C0F000808B5034B1BB103490348AFF30C
:10016000008008BD00000000040000206C0F0008A3
:1001700080B58AB000AF40233B624FF48063FB61DF
:100180000023FB60084B7B600023BB6000237B6285
:10019000064800F071FB3B1D1946044800F064FA64
:1001A00000BF2837BD4680BDA08601000054004036
:1001B00080B5C6B002AF3B4619601146BB1D024672
:1001C0001A807B1D0A461A70BB1D1B881B0A9BB236
:1001D000DAB207F10C031A70BB1D1B88DAB207F103
:1001E0000C035A70022387F80F3110E097F80F3193
:1001F000023B3A4612681A4497F80F31117807F11A
:100200000C02D15497F80F31013387F80F3197F86A
:100210000F217B1D1B7802339A42E7DB7B1D1B7885
:100220000233194607F10C020023019300230093C7
:100230000B462A21044800F069FB0023184607F505
:100240008877BD4680BD00BF0054004080B5C6B071
:1002500002AF3B4619601146BB1D02461A807B1D4A
:100260000A461A70BB1D1B881B0A9BB2DAB207F143
:100270000C031A70BB1D1B88DAB207F10C035A700D
:1002800007F10C02002301930123009302232A218A
:100290000A4800F03BFB7B1D19783A460123019385
:1002A000002300930B4612682A21044800F082FBC9
:1002B0000023184607F58877BD4680BD00540040EE
:1002C00080B500AF054B5B69044A43F001035361FD
:1002D000034B1B68984700BF80BD00BF000401406E
:1002E0001C00002080B500AF054B5B69044A43F059
:1002F00002035361034B5B68984700BF80BD00BF9A
:10030000000401401C00002080B500AF054B5B6974
:10031000044A43F004035361034B9B68984700BFB2
:1003200080BD00BF000401401C00002080B500AF6C
:10033000054B5B69044A43F008035361034BDB68D8
:10034000984700BF80BD00BF000401401C00002092
:1003500080B500AF054B5B69044A43F0100353615D
:10036000034B1B69984700BF80BD00BF00040140DC
:100370001C00002080B500AF264B5B6903F0200312
:10038000002B08D0234B5B69224A43F020035361C2
:10039000214B5B6998471F4B5B6903F04003002BBF
:1003A00008D01C4B5B691B4A43F0400353611A4B56
:1003B0009B699847174B5B6903F08003002B08D0BB
:1003C000144B5B69134A43F080035361124BDB69A2
:1003D0009847104B5B6903F48073002B08D00D4BDA
:1003E0005B690C4A43F4807353610B4B1B6A98475B
:1003F000084B5B6903F40073002B08D0054B5B6965
:10040000044A43F400735361034B5B6A984700BF8F
:1004100080BD00BF000401401C00002080B500AF7B
:100420002D4B5B6903F48063002B08D02A4B5B697A
:10043000294A43F480635361284B9B6A9847264BB3
:100440005B6903F40063002B08D0234B5B69224AED
:1004500043F400635361214BDB6A98471E4B5B6991
:1004600003F48053002B08D01B4B5B691A4A43F4FA
:1004700080535361194B1B6B9847174B5B6903F40F
:100480000053002B08D0144B5B69134A43F400530C
:100490005361124B5B6B98470F4B5B6903F48043CE
:1004A000002B08D00C4B5B690B4A43F4804353612B
:1004B0000A4B9B6B9847084B5B6903F40043002B86
:1004C00008D0054B5B69044A43F400435361034B76
:1004D000DB6B984700BF80BD000401401C0000207A
:1004E00080B483B000AF0346FB80FB88802B42D0F2
:1004F000802B11DC082B36D0082B06DC022B2ED0EB
:10050000042B2ED0012B28D037E0202B2FD0402BCE
:100510002FD0102B29D030E0B3F5006F23D0B3F5E6
:10052000006F09DCB3F5007F19D0B3F5806F18D0E8
:10053000B3F5807F11D020E0B3F5005F17D0B3F59D
:10054000005F03DCB3F5805F0FD016E0B3F5804F9A
:100550000FD0B3F5004F0ED00FE000230EE00423C0
:100560000CE008230AE00C2308E0102306E0142323
:1005700004E0182302E01C2300E0002318460C3797
:10058000BD4680BC7047000080B586B000AF786083
:10059000396000233B613B681B88FF2B01D87B68D7
:1005A00001E07B6804333B613B681B881846FFF71A
:1005B00097FF0346FB733B691B68FA7B0F2101FA27
:1005C00002F2D2431A403B691A603B689B78082BC1
:1005D0003DD801A252F823F0FD050008FD050008F2
:1005E000070600081B060008370600083706000843
:1005F0003706000837060008310600083B689B787C
:100600009B00FB7523E00823FB757B68DB683A6879
:1006100012881A437B68DA6019E00823FB757B684F
:10062000DB683A681288D2431A407B68DA600EE0D1
:100630000423FB750BE03B68DB785AB23B689B7880
:10064000043B9B005BB213435BB2FB7500BF3B698D
:100650001B68F97DFA7B01FA02F21A433B691A60C2
:1006600000BF1837BD4680BDB0B586B000AF78601A
:1006700039607B68784A934210D1784A3B681446C7
:100680001D460FCD0FC40FCD0FC42B682360744BD4
:10069000DB69734A43F40013D36110E06F4B3A688F
:1006A00003F1240415460FCD0FC40FCD0FC42B68E2
:1006B00023606B4BDB696A4A43F48003D3613B6878
:1006C0009B68002B40F083807B685B68FB82FB8A21
:1006D00023F03F03FB8200F019FB38613B69614A5C
:1006E000A2FB03239B0CFB81FA8AFB891343FB8249
:1006F000FA8A7B685A600023FB827B681B6823F0C0
:1007000001027B681A603B681B684CF250329342CE
:1007100004D03B681B68544A934215D13B681B6860
:100720005B003A69B2FBF3F3BB81BB89C3F30B03F4
:100730009AB2FB8A1343FB82FA8A7B68DA61FB89EF
:1007400001331A467B681A627B681B68FB823B6830
:10075000DB699AB23B689B699BB213439AB23B68D0
:100760009B689BB213439AB23B685B689BB213438E
:100770009AB2FB8A1343FB82FA8A7B681A600023D1
:10078000FB823B689B89002B0DD00123FB823B68D9
:100790001B8A5B001AB2B7F9163013431BB2FB82F7
:1007A000FA8A7B68DA600023FB823B68DB895B00A6
:1007B0001AB2B7F9163013431BB2FB823B685B6970
:1007C0009AB2FB8A1343FB82FA8A7B689A603B6881
:1007D0001B6A002B35D07B685B6843F480727B68B2
:1007E0005A607B685B6843F400727B685A607B6880
:1007F0005B6843F480627B685A607B68164A934268
:100800000CD11A4B1B68194A43F000431360184B74
:100810001B68174A43F0010313600FE07B68154A19
:1008200093420BD1124B1B68114A43F00203136031
:100830000F4B1B680E4A43F0040313607B680022D1
:100840005A617B681B6843F001027B681A6000BF35
:100850001837BD46B0BD00BF005400406000002006
:100860000010024083DE1B43A086010000E100E08F
:1008700004E100E00058004080B584B000AF78602B
:100880007B681F4A934218D14023BB810723BB7367
:100890000123FB7307F10C0319461A48FFF774FE96
:1008A0008023BB810723BB730123FB7307F10C0378
:1008B00019461448FFF768FE1DE07B68124A934210
:1008C00019D14FF48063BB810723BB730123FB73F2
:1008D00007F10C0319460B48FFF756FE4FF400636F
:1008E000BB810723BB730123FB7307F10C0319467C
:1008F0000448FFF749FE00BF1037BD4680BD00BF6A
:1009000000540040000C01400058004080B586B003
:1009100000AFF8607A603B600B467B8197F824302B
:100920001A460121F86800F0B7F800BF0121F86805
:1009300000F0DAF80346002BF8D07B890022194634
:10094000F86800F043F900BF0221F86800F0CCF825
:100950000346002BF8D000BF1549F86800F0C4F832
:100960000346002BF8D000237B6111E07A687B6995
:1009700013441B781A46FB681A6100BF0421F8680B
:1009800000F0B2F80346002BF8D07B6901337B619D
:100990007A693B689A42E9D397F82030002B03D15B
:1009A0000121F86800F031F900BF1837BD4680BD5D
:1009B0008000070080B586B000AFF8607A603B60C9
:1009C0000B467B81FB68324A934214BF012300230C
:1009D000DBB23B6197F824301A460121F86800F039
:1009E0005BF800BF0121F86800F07EF80346002B99
:1009F000F8D07B8901221946F86800F0E7F800BFBB
:100A00000221F86800F070F80346002BF8D00121AD
:100A1000F86800F015F93B68002B1CD000237B61BF
:100A200011E000BF0321F86800F05EF80346002BD8
:100A3000F8D0FB6819697A687B691344CAB21A70E6
:100A40007B6901337B617A693B689A42E9D3002173
:100A5000F86800F0F5F897F82030002B03D1012159
:100A6000F86800F0D2F80B493A691346DB001344EA
:100A70009B000B4418331B68B3F5806F03D1012131
:100A8000F86800F0DDF800BF1837BD4680BD00BF34
:100A9000005400406000002080B582B000AF786054
:100AA0000B46FB701346BB70BB78012B07D000BF11
:100AB0000021786800F018F80346002BF8D1FB7885
:100AC000012B06D17B681B6843F480727B681A6037
:100AD00005E07B681B6823F480727B681A6000BFA6
:100AE0000837BD4680BD000080B485B000AF786097
:100AF00039600023FB733B68032B53D0032B04D8CE
:100B0000012B14D0012B1ED805E0052B3ED92E4A0F
:100B1000934227D052E07B689B6903F00203002BCD
:100B200002D00123FB7349E00023FB7346E07B689E
:100B30005B6903F00103002B02D00123FB733DE04E
:100B40000023FB733AE07B685B6903F00203002B30
:100B500002D00123FB7301E00023FB737B685B6918
:100B6000BB602BE07B689B691A047B685B699BB266
:100B70001343BB60BA68144B1340134A934202D12B
:100B80000123FB731AE00023FB7317E07B685B69AA
:100B900003F08003002B02D00123FB730EE000233F
:100BA000FB730BE07B685B6903F04003002B02D012
:100BB0000123FB7301E00023FB7300BFFB7B18469E
:100BC0001437BD4680BC70478000070080B483B0F6
:100BD00000AF78600B467B8013467B707B885B00A0
:100BE0007B807B78012B04D17B8843F001037B80E1
:100BF00003E07B8823F001037B807A887B681A619D
:100C000000BF0C37BD4680BC704780B483B000AFD6
:100C100078600B46FB70FB78012B06D17B681B6864
:100C200043F400727B681A6005E07B681B6823F45C
:100C300000727B681A6000BF0C37BD4680BC7047ED
:100C400080B483B000AF78600B46FB70FB78012B5B
:100C500006D17B681B6843F480627B681A6005E0FC
:100C60007B681B6823F480627B681A6000BF0C37C6
:100C7000BD4680BC704780B400AF00BFBD4680BC9D
:100C8000704780B400AF00BFBD4680BC704780B4E1
:100C900000AF00BFBD4680BC704780B400AF00BF4E
:100CA000BD4680BC7047000080B400AF0A4B5B6853
:100CB0009B0803F00303012B06D0012B02D3022B68
:100CC00004D005E0054B03E0054B01E0044BFFE7D2
:100CD0001846BD4680BC70470010024000127A00E2
:100CE0000024F40080B500AFFFF7DEFF0146054B9E
:100CF0005B681B0903F00F03034AD35C21FA03F37B
:100D0000184680BD00100240940F000880B500AF67
:100D1000FFF7E8FF0146054B5B681B0A03F007037A
:100D2000034AD35C21FA03F3184680BD0010024049
:100D30008C0F000880B582B000AF124B9B685B0837
:100D400003F00103DAB23B7962F300033B710D4B10
:100D50009B6803F00103DAB23B7962F341033B7114
:100D6000084B9B681B0903F00103DAB23B7962F37D
:100D700082033B71044B5B693879984700BF0837A1
:100D8000BD4680BD00300140A800002080B582B083
:100D900000AF124B9B685B0803F00103DAB23B79AA
:100DA00062F300033B710D4B9B6803F00103DAB261
:100DB0003B7962F341033B71084B9B681B0903F0CD
:100DC0000103DAB23B7962F382033B71044BDB6AC5
:100DD0003879984700BF0837BD4680BD00380040CD
:100DE000A800002080B500AF024B1B685B699847E4
:100DF00000BF80BD5C00002080B500AF024B1B68C7
:100E00005B69984700BF80BD5C00002080B500AFE3
:100E1000024B1B685B69984700BF80BD5C000020E7
:100E200080B400AF0A4B9B69094A43F00403936105
:100E3000074B9B69064A43F008039361044B9B6987
:100E4000034A43F00103936100BFBD4680BC704775
:100E50000010024080B584B000AFFFF7E1FF1B4AED
:100E600007F1080392E80300186004331980023385
:100E70000A0C1A703B4600221A60C3F80320FFF7E1
:100E800077F907F1080307221946AF20FFF790F919
:100E90003B4607221946AF20FFF7D8F90A233B72D9
:100EA0000B237B720C23BB720D23FB7207F108032B
:100EB0000422194640F6FF70FFF77AF93B460422F8
:100EC000194640F6FF70FFF7C1F9FEE7840F0008EE
:100ED0000D488546AFF300800C480D490D4A0023AC
:100EE00002E0D458C4500433C4188C42F9D30A4ADF
:100EF0000A4C002301E013600432A242FBD300F04D
:100F000011F8FFF7A7FFFEE70028002000000020EF
:100F100000000020AC0F000800000020D8000020D6
:100F2000FEE7000070B500250C4E0D4CA41BA4106C
:100F3000A54209D100F01AF800250A4E0A4CA41B5C
:100F4000A410A54205D170BD56F82530984701354B
:100F5000EEE756F8253098470135F2E7A40F000870
:100F6000A40F0008A40F0008A80F0008F8B500BFE0
:100F7000F8BC08BC9E467047F8B500BFF8BC08BC7A
:040F80009E467047D2
:100F84000102030405060700000000000102030437
:100F94000000000000000000010203040506070829
:040FA40055010008EB
:040FA800310100080B
:0400000508000ED110
:00000001FF
