:020000040800F2
:100000000050002055540008A5540008A5540008CD
:10001000A5540008A5540008A554000800000000DD
:100020000000000000000000000000001140000877
:10003000A5540008000000001141000859410008C3
:10004000A5540008A5540008A5540008A5540008AC
:10005000A5540008A5540008E5250008112600084D
:100060003D2600086926000895260008A5540008CA
:10007000A5540008A5540008A5540008A55400087C
:10008000A5540008A5540008A5540008A55400086C
:1000900041250008A5540008A5540008A5540008EF
:1000A000A5540008A5540008A5540008A55400084C
:1000B000A5540008A5540008A5540008A55400083C
:1000C000A5540008A5540008A5540008A55400082C
:1000D000A5540008813A0008A5540008A55400085A
:1000E000A5540008A554000800000000A55400080D
:1000F000A5540008A5540008A5540008A5540008FC
:10010000A5540008A5540008A5540008A5540008EB
:10011000A5540008A5540008A5540008A5540008DB
:10012000A5540008A5540008A5540008A5540008CB
:1001300010B5054C237833B9044B13B10448AFF321
:1001400000800123237010BD60000020000000002B
:100150001855000808B5034B1BB103490348AFF31A
:10016000008008BD00000000640000201855000851
:1001700081F0004102E000BF83F0004330B54FEA58
:1001800041044FEA430594EA050F08BF90EA020FC5
:100190001FBF54EA000C55EA020C7FEA645C7FEA58
:1001A000655C00F0E2804FEA5454D4EB5555B8BF7B
:1001B0006D420CDD2C4480EA020281EA030382EAEC
:1001C000000083EA010180EA020281EA0303362D7E
:1001D00088BF30BD11F0004F4FEA01314FF4801C51
:1001E0004CEA113102D0404261EB410113F0004F63
:1001F0004FEA03334CEA133302D0524263EB43031A
:1002000094EA050F00F0A780A4F10104D5F1200EB7
:100210000DDB02FA0EFC22FA05F2801841F1000112
:1002200003FA0EF2801843FA05F359410EE0A5F1E6
:1002300020050EF1200E012A03FA0EFC28BF4CF017
:10024000020C43FA05F3C01851EBE37101F00045CD
:1002500007D54FF0000EDCF1000C7EEB00006EEBDA
:100260000101B1F5801F1BD3B1F5001F0CD3490864
:100270005FEA30004FEA3C0C04F101044FEA4452BB
:1002800012F5800F80F09A80BCF1004F08BF5FEA42
:10029000500C50F1000041EB045141EA050130BD22
:1002A0005FEA4C0C404141EB010111F4801FA4F1C5
:1002B0000104E9D191F0000F04BF01460020B1FA1A
:1002C00081F308BF2033A3F10B03B3F120020CDA52
:1002D0000C3208DD02F1140CC2F10C0201FA0CF030
:1002E00021FA02F10CE002F11402D8BFC2F1200C95
:1002F00001FA02F120FA0CFCDCBF41EA0C0190404B
:10030000E41AA2BF01EB0451294330BD6FEA040493
:100310001F3C1CDA0C340EDC04F11404C4F120027E
:1003200020FA04F001FA02F340EA030021FA04F390
:1003300045EA030130BDC4F10C04C4F1200220FAE7
:1003400002F001FA04F340EA0300294630BD21FA25
:1003500004F0294630BD94F0000F83F4801306BFEB
:1003600081F480110134013D4EE77FEA645C18BFDF
:100370007FEA655C29D094EA050F08BF90EA020F76
:1003800005D054EA000C04BF1946104630BD91EA6E
:10039000030F1EBF0021002030BD5FEA545C05D171
:1003A0004000494128BF41F0004130BD14F58004B0
:1003B0003CBF01F5801130BD01F0004545F0FE4124
:1003C00041F470014FF0000030BD7FEA645C1ABF59
:1003D000194610467FEA655C1CBF0B46024650EA90
:1003E000013406BF52EA033591EA030F41F40021BC
:1003F00030BD00BF90F0000F04BF0021704730B542
:100400004FF4806404F132044FF000054FF0000116
:1004100050E700BF90F0000F04BF0021704730B5D7
:100420004FF4806404F1320410F0004548BF4042AC
:100430004FF000013EE700BF42004FEAE2014FEA01
:1004400031014FEA02701FBF12F07F4393F07F4FDC
:1004500081F06051704732F07F4208BF704793F0DF
:100460007F4F04BF41F40021704730B54FF46074F2
:1004700001F0004521F000411CE700BF50EA0102F5
:1004800008BF704730B54FF000050AE050EA01029E
:1004900008BF704730B511F0004502D5404261EB0E
:1004A00041014FF4806404F132045FEA915C3FF44F
:1004B000D8AE4FF003025FEADC0C18BF03325FEAEC
:1004C000DC0C18BF033202EBDC02C2F1200300FA9D
:1004D00003FC20FA02F001FA03FE40EA0E0021FAC2
:1004E00002F11444BDE600BF70B54FF0FF0C4CF4B0
:1004F000E06C1CEA11541DBF1CEA135594EA0C0F62
:1005000095EA0C0F00F0DEF82C4481EA030621EA9C
:100510004C5123EA4C5350EA013518BF52EA0335D7
:1005200041F4801143F4801338D0A0FB02CE4FF089
:100530000005E1FB02E506F00042E0FB03E54FF0B9
:100540000006E1FB03569CF0000F18BF4EF0010EB1
:10055000A4F1FF04B6F5007F64F5407404D25FEAAD
:100560004E0E6D4146EB060642EAC62141EA555160
:100570004FEAC52040EA5E504FEACE2EB4F1FD0CA2
:1005800088BFBCF5E06F1ED8BEF1004F08BF5FEA20
:10059000500E50F1000041EB045170BD06F00046D2
:1005A00046EA010140EA020081EA0301B4EB5C047F
:1005B000C2BFD4EB0C0541EA045170BD41F4801177
:1005C0004FF0000E013C00F3AB8014F1360FDEBF9C
:1005D000002001F0004170BDC4F10004203C35DA78
:1005E0000C341BDC04F11404C4F1200500FA05F3FB
:1005F00020FA04F001FA05F240EA020001F000429C
:1006000021F0004110EBD37021FA04F642EB060111
:100610005EEA430E08BF20EAD37070BDC4F10C043B
:10062000C4F1200500FA04F320FA05F001FA04F2FF
:1006300040EA020001F0004110EBD37041F10001EB
:100640005EEA430E08BF20EAD37070BDC4F12005F6
:1006500000FA05F24EEA020E20FA04F301FA05F25E
:1006600043EA020321FA04F001F0004121FA04F206
:1006700020EA020000EBD3705EEA430E08BF20EAD6
:10068000D37070BD94F0000F0FD101F00046400010
:1006900041EB010111F4801F08BF013CF7D041EA92
:1006A000060195F0000F18BF704703F00046520096
:1006B00043EB030313F4801F08BF013DF7D043EA67
:1006C0000603704794EA0C0F0CEA135518BF95EA1D
:1006D0000C0F0CD050EA410618BF52EA4306D1D1A4
:1006E00081EA030101F000414FF0000070BD50EAC3
:1006F000410606BF1046194652EA430619D094EA4D
:100700000C0F02D150EA013613D195EA0C0F05D136
:1007100052EA03361CBF104619460AD181EA03018A
:1007200001F0004141F0FE4141F470014FF0000042
:1007300070BD41F0FE4141F4780170BD70B54FF0DD
:10074000FF0C4CF4E06C1CEA11541DBF1CEA13555D
:1007500094EA0C0F95EA0C0F00F0A7F8A4EB05043F
:1007600081EA030E52EA03354FEA013100F0888036
:100770004FEA03334FF0805545EA131343EA1263FF
:100780004FEA022245EA111545EA10654FEA0026B4
:100790000EF000419D4208BF964244F1FD0404F56D
:1007A000407402D25B084FEA3202B61A65EB0305C9
:1007B0005B084FEA32024FF480104FF4002CB6EB86
:1007C000020E75EB030E22BFB61A754640EA0C0006
:1007D0005B084FEA3202B6EB020E75EB030E22BF46
:1007E000B61A754640EA5C005B084FEA3202B6EB87
:1007F000020E75EB030E22BFB61A754640EA9C0046
:100800005B084FEA3202B6EB020E75EB030E22BF15
:10081000B61A754640EADC0055EA060E18D04FEAD3
:10082000051545EA16754FEA06164FEAC30343EA73
:1008300052734FEAC2025FEA1C1CC0D111F4801F40
:100840000BD141EA00014FF000004FF0004CB6E739
:1008500011F4801F04BF01430020B4F1FD0C88BFD8
:10086000BCF5E06F3FF6AFAEB5EB030C04BFB6EBE3
:10087000020C5FEA500C50F1000041EB045170BDD6
:100880000EF0004E4EEA113114EB5C04C2BFD4EB03
:100890000C0541EA045170BD41F480114FF0000E87
:1008A000013C90E645EA060E8DE60CEA135594EA03
:1008B0000C0F08BF95EA0C0F3FF43BAF94EA0C0F06
:1008C0000AD150EA01347FF434AF95EA0C0F7FF47B
:1008D00025AF104619462CE795EA0C0F06D152EACF
:1008E00003353FF4FDAE1046194622E750EA4106B3
:1008F00018BF52EA43067FF4C5AE50EA41047FF4C4
:100900000DAF52EA43057FF4EBAE12E780F00040F2
:1009100002E000BF81F0004142001FBF5FEA4103D7
:1009200092EA030F7FEA226C7FEA236C6AD04FEAD7
:100930001262D2EB1363C1BFD2184140484041401C
:10094000B8BF5B42192B88BF704710F0004F40F4CE
:10095000000020F07F4018BF404211F0004F41F4EA
:10096000000121F07F4118BF494292EA030F3FD0B6
:10097000A2F1010241FA03FC10EB0C00C3F12003C9
:1009800001FA03F100F0004302D5494260EB400058
:10099000B0F5000F13D3B0F1807F06D340084FEAC3
:1009A000310102F10102FE2A51D2B1F1004F40EBB8
:1009B000C25008BF20F0010040EA03007047490020
:1009C00040EB000010F4000FA2F10102EDD1B0FAEB
:1009D00080FCACF1080CB2EB0C0200FA0CF0AABFE0
:1009E00000EBC25052421843BCBFD040184370477E
:1009F00092F0000F81F4000106BF80F40000013284
:100A0000013BB5E74FEA41037FEA226C18BF7FEA5A
:100A1000236C21D092EA030F04D092F0000F08BF9C
:100A20000846704790EA010F1CBF0020704712F083
:100A30007F4F04D1400028BF40F00040704712F1C2
:100A400000723CBF00F50000704700F0004343F027
:100A5000FE4040F4000070477FEA226216BF08465D
:100A60007FEA23630146420206BF5FEA412390EA20
:100A7000010F40F4800070474FF0000304E000BF16
:100A800010F0004348BF40425FEA000C08BF7047C7
:100A900043F0964301464FF000001CE050EA01028B
:100AA00008BF70474FF000030AE000BF50EA0102A0
:100AB00008BF704711F0004302D5404261EB41018D
:100AC0005FEA010C02BF84460146002043F0B643B2
:100AD00008BFA3F18053A3F50003BCFA8CF2083AD7
:100AE000A3EBC25310DB01FA02FC634400FA02FCE0
:100AF000C2F12002BCF1004F20FA02F243EB0200E7
:100B000008BF20F00100704702F1200201FA02FC48
:100B1000C2F1200250EA4C0021FA02F243EB02003B
:100B200008BF20EADC7070474FF0FF0C1CEAD0527F
:100B30001EBF1CEAD15392EA0C0F93EA0C0F6FD040
:100B40001A4480EA010C400218BF5FEA41211ED01E
:100B50004FF0006343EA501043EA5111A0FB01310A
:100B60000CF00040B1F5000F3EBF490041EAD371DF
:100B70005B0040EA010062F17F02FD2A1DD8B3F15B
:100B8000004F40EBC25008BF20F00100704790F0CA
:100B9000000F0CF0004C08BF49024CEA502040EA1C
:100BA00051207F3AC2BFD2F1FF0340EAC2507047E2
:100BB00040F400004FF00003013A5DDC12F1190F20
:100BC000DCBF00F000407047C2F10002410021FA92
:100BD00002F1C2F1200200FA02FC5FEA310040F1AA
:100BE000000053EA4C0308BF20EADC70704792F023
:100BF000000F00F0004C02BF400010F4000F013A5B
:100C0000F9D040EA0C0093F0000F01F0004C02BF55
:100C1000490011F4000F013BF9D041EA0C018FE7C4
:100C20000CEAD15392EA0C0F18BF93EA0C0F0AD0CA
:100C300030F0004C18BF31F0004CD8D180EA0100F0
:100C400000F00040704790F0000F17BF90F0004F89
:100C5000084691F0000F91F0004F14D092EA0C0F6B
:100C600001D142020FD193EA0C0F03D14B0218BFFE
:100C7000084608D180EA010000F0004040F0FE4044
:100C800040F40000704740F0FE4040F440007047E0
:100C90004FF0FF0C1CEAD0521EBF1CEAD15392EA5F
:100CA0000C0F93EA0C0F69D0A2EB030280EA010C4F
:100CB00049024FEA402037D04FF0805343EA1111E8
:100CC00043EA10130CF000408B4238BF5B0042F146
:100CD0007D024FF4000C8B4224BF5B1A40EA0C00EB
:100CE000B3EB510F24BFA3EB510340EA5C00B3EB1D
:100CF000910F24BFA3EB910340EA9C00B3EBD10F0B
:100D000024BFA3EBD10340EADC001B0118BF5FEA5C
:100D10001C1CE0D1FD2A3FF650AF8B4240EBC25085
:100D200008BF20F0010070470CF0004C4CEA502046
:100D30007F32C2BFD2F1FF0340EAC250704740F495
:100D400000004FF00003013A37E792F0000F00F087
:100D5000004C02BF400010F4000F013AF9D040EA05
:100D60000C0093F0000F01F0004C02BF490011F499
:100D7000000F013BF9D041EA0C0195E70CEAD15391
:100D800092EA0C0F08D142027FF47DAF93EA0C0F78
:100D90007FF470AF084676E793EA0C0F04D14B025C
:100DA0003FF44CAF08466EE730F0004C18BF31F00E
:100DB000004CCAD130F000427FF45CAF31F0004308
:100DC0007FF43CAF5FE700BF42000ED2B2F1FE4FAE
:100DD0000BD34FF09E03B3EB126209D44FEA00230A
:100DE00043F0004323FA02F070474FF000007047D1
:100DF00012F1610F01D1420202D14FF0FF30704772
:100E00004FF00000704700BFD0B500220D4B0646E2
:100E10000F46FFF769FB00F019F80446FFF7EAFAFE
:100E20000022094BFFF760FB02460B46304639466D
:100E3000FFF7A2F900F00AF80022234610431946F2
:100E4000D0BD00BF0000F03D0000F0414A0011D2CB
:100E500012F5001211D20DD56FF47873B3EB625214
:100E60000ED44FEAC12343F0004343EA505323FA20
:100E700002F070474FF00000704750EA013002D195
:100E80004FF0FF3070474FF00000704780B582B0E0
:100E900002AF07220521032002F0E4F8002101201F
:100EA00002F00EF800F0B8FF00F046FA00F017FD6F
:100EB00000F06AFB00F0BAFD184B01930323009386
:100EC000002380221649174803F046FC164B019375
:100ED00004230093002380221449154803F03CFCAE
:100EE000144B0193022300930023802212491348DC
:100EF00003F032FC03220021012003F0CFF9024667
:100F00000F4B1A600F4B1B88012B02D100F088FC9D
:100F100001E000F096FC00BFBD4680BD7C000020D3
:100F200030550008490F0008800000203C5500089B
:100F3000C5100008840000204C550008411200082C
:100F40005022002000FC000880B582B000AF78601D
:100F5000544B1B780133DAB2524B1A70514B1A784A
:100F6000514B1B789A420FD85049012000F05AFF8C
:100F700003461A464E4B1B8813449AB24C4B1A80B8
:100F80004A4B00221A8088E0494B1B881A46464B80
:100F90001B7892FBF3F3DAB2464B1A70454B1B7881
:100FA0009AB2454B1B889A4207D9424B1B781A4686
:100FB000414B1B88D31A012B12DC3E4B1B789AB293
:100FC0003D4B1B889A4207D23B4B1B881A46394B34
:100FD0001B78D31A012B03DC384B1B78012B56D11D
:100FE000364B00221A70334B1B78502B18D900BF98
:100FF000334B1B680A21184603F040FA0346012BC5
:10100000F6D10121B12000F0C9FA0A2003F0E2FC78
:101010002B4B186800230022002103F09DF917E0F4
:1010200000BF274B1B680A21184603F027FA034626
:10103000012BF6D10021B12000F0B0FA0A2003F014
:10104000C9FC1F4B186800230022002103F084F91B
:1010500000BF1B4B1B680A21184603F00FFA03461A
:10106000012BF6D1134B1B781946B22000F096FAEB
:101070000A2003F0AFFC0F4B1B789AB20E4B1A807C
:101080000F4B186800230022002103F065F9084B7C
:1010900000221A80034B00221A70142003F09AFCDD
:1010A00056E700BF88000020000000208A000020D2
:1010B0008C0000204C2200208E0000200300002025
:1010C0005022002080B582B000AF786000F05EFB57
:1010D0000346DAB2574B1A70564B1B78423B352BFE
:1010E00000F29C8001A252F823F000BFCB1100084F
:1010F0001D1200081D1200081D120008C51100086D
:10110000D111000801120008D71100080F120008C1
:101110001D120008E91100081D1200081D12000828
:101120001D1200081D1200081D120008F51100080C
:101130001D1200081D1200081D1200081D120008D3
:10114000DD1100081D1200081D1200081D12000804
:101150001D1200081D1200081D1200081D120008B3
:101160001D1200081D1200081D1200081D120008A3
:101170001D1200081D1200081D1200081D12000893
:101180001D1200081D1200081D1200081D12000883
:101190001D1200081D1200081D1200081D12000873
:1011A0001D1200081D1200081D1200081D12000863
:1011B0001D1200081D1200081D1200081D12000853
:1011C000E311000800F0F1F830E000F010F92DE034
:1011D00000F02FF92AE000F04EF927E000F08FF937
:1011E00024E000F0AEF921E000F081FB124B002278
:1011F0001A701BE000F082FB0F4B01221A7015E001
:101200000E4B1B88012B0ED100F029FB0BE00B4B82
:101210001B88012B09D100F02BFB06E000F04DF9F3
:1012200000F0FCFB02E000BF00E000BF642003F020
:10123000D1FB4BE7900000200100002000FC0008DB
:1012400080B582B000AF786000F05FFB03461A46BD
:10125000344B1A70344B1A78324B1B789A4203D1B4
:10126000324B1B78012B57D12E4B1A78304B1B7801
:101270009A421BD000BF2F4B1B680A21184603F06F
:10128000FDF80346012BF6D1284B00221A700121EC
:10129000A12000F083F90A2003F09CFB254B18687D
:1012A00000230022002103F057F817E000BF214B74
:1012B0001B680A21184603F0E1F80346012BF6D11A
:1012C0000021A12000F06AF90A2003F083FB194BEA
:1012D000186800230022002103F03EF800BF154BE0
:1012E0001B680A21184603F0C9F80346012BF6D102
:1012F0000C4B1B781946A22000F050F90A2003F08D
:1013000069FB084B1A78084B1A700A4B18680023BF
:101310000022002103F020F84FF47A7003F05AFB0A
:1013200092E700BF0200002004000020050000201A
:10133000010000205022002080B582B002AF0120C1
:1013400001F09AFB012300930223002201210C20CB
:1013500001F06CFA012300930223002201210D20E9
:1013600001F064FA012300930223002201210E20E0
:1013700001F05CFA012300930223002200210420E3
:1013800001F054FA012300930223002200210620D9
:1013900001F04CFA012300930223002200210520D2
:1013A00001F044FA00BFBD4680BD80B500AF012208
:1013B00001210E2001F0F6FA00220021052001F0A3
:1013C000F1FA012201210C2001F0ECFA00220121A6
:1013D0000D2001F0E7FA00220021042001F0E2FADA
:1013E00000220021062001F0DDFA00BF80BD80B59B
:1013F00000AF012201210E2001F0D4FA00220021C9
:10140000052001F0CFFA002201210C2001F0CAFAD8
:10141000012201210D2001F0C5FA00220021042043
:1014200001F0C0FA00220021062001F0BBFA00BF43
:1014300080BD80B500AF012201210E2001F0B2FA7B
:1014400001220021052001F0ADFA012201210C202A
:1014500001F0A8FA002201210D2001F0A3FA0122D7
:101460000021042001F09EFA00220021062001F054
:1014700099FA00BF80BD80B500AF012201210E2086
:1014800001F090FA01220021052001F08BFA0122DF
:1014900001210C2001F086FA002201210D2001F02B
:1014A00081FA00220021042001F07CFA01220021AF
:1014B000062001F077FA00BF80BD80B500AF0022A2
:1014C00001210E2001F06EFA00220021052001F01A
:1014D00069FA002201210C2001F064FA00220121A6
:1014E0000D2001F05FFA00220021042001F05AFAD9
:1014F00000220021062001F055FA00BF80BD80B512
:1015000000AF002201210E2001F04CFA012200213F
:10151000052001F047FA002201210C2001F042FAD7
:10152000002201210D2001F03DFA002200210420BB
:1015300001F038FA01220021062001F033FA00BF41
:1015400080BD80B500AF002201210E2001F02AFAF3
:1015500001220021052001F025FA002201210C20A2
:1015600001F020FA002201210D2001F01BFA0122D6
:101570000021042001F016FA00220021062001F0CB
:1015800011FA00BF80BD000080B500AF024801F035
:101590008DFA00BF80BD00BF0800002080B582B07A
:1015A00000AF03460A46FB711346BB7101F046FBD0
:1015B000502001F0D7FAFB79184601F011FBBB79F6
:1015C000184601F00DFB01F057FB00BF0837BD4680
:1015D00080BD000080B582B000AF03463960FB716A
:1015E00001F02CFB502001F0BDFAFB79184601F008
:1015F000F7FA114B1B68104A43F48073136000BF65
:101600000D4B5B6903F00103002BF9D00A4B1B68FB
:10161000094A23F480631360502001F0C3FA38684C
:1016200001F0F4FA044B1B68034A43F4007313609F
:1016300000BF0837BD4680BD0054004080B5ADF501
:10164000846D00AF07F58463A3F21C4318600A465B
:1016500007F58463A3F21E431A80012387F81F3421
:1016600007F58463A3F21C431B68474A934207D2E1
:1016700007F58463A3F21C431B68B3F1006F03D228
:10168000002387F81F3477E007F58463A3F21C4337
:101690001B6803F178439B0A87F8113497F81134DB
:1016A00003F500339B02C7F81834D7F81834C7F88D
:1016B000143407F58463A3F21C431A68D7F818346E
:1016C000D31A5B0887F810340023A7F8123414E00B
:1016D000D7F81434B7F81224198807F58463A3F2F5
:1016E000144323F81210D7F814340233C7F8143413
:1016F000B7F812340133A7F81234B7F81234B3F53F
:10170000007FE5D397F81134184601F031F897F8C7
:10171000102407F58463A3F2144307F58461A1F252
:101720001E41098823F812100023A7F8123416E08E
:10173000B7F8122407F58463A3F2144333F8123088
:101740001946D7F8180400F0BBFFD7F81834023355
:10175000C7F81834B7F812340133A7F81234B7F8C1
:101760001234B3F5007FE3D307F58463A3F21C437F
:101770001B681B88A7F80E3497F81F34184607F526
:101780008467BD4680BD00BFFFFF000880B58AB0FA
:1017900002AF0023FB83204B1B78002B05D11E4B8F
:1017A0001B780133DAB21C4B1A701B4B1B78012BD0
:1017B00026D11A4B1A460023136053609360D360FE
:1017C0001361536115494FF416524FF00003C1E9FC
:1017D000042301230093022302220021092001F0A7
:1017E00025F8002300930023012200210A2001F0A4
:1017F0001DF80A4801F0F8FF074B02221A7005E0B5
:1018000007F11E031946054802F00CF9FB8B184638
:101810002037BD4680BD00BF910000209800002009
:1018200080B582B002AF022001F026F900230093B8
:101830000223012202210D2000F0F8FF00BFBD4667
:1018400080BD80B582B002AF002300930223012245
:1018500002210D2000F0EAFF00BFBD4680BD80B52B
:1018600000AF002202210D2001F09CF800BF80BDD6
:1018700080B500AF012202210D2001F093F800BFD6
:1018800080BD80B582B002AF002001F0F5F80223E0
:101890000093012302220021072000F0C7FF00BFB0
:1018A000BD4680BD80B582B000AFBB1D1A46002189
:1018B000072001F0B5F8BB79002B02D0012B03D033
:1018C00005E00023FB7105E00123FB7102E0022328
:1018D000FB7100BFFB7918460837BD4680BD80B557
:1018E00000AF00F04BF8FFF7CCFF00BF80BD80B524
:1018F00000AF5A2000F062F800BF80BD80B500AF95
:10190000002000F05BF800BF80BD80B582B000AF62
:10191000FFF7C8FF0346BB71BB79002B02D0012B38
:1019200003D005E00123FB7104E00023FB7101E01B
:101930000223FB71FB7918460837BD4680BD80B590
:1019400084B000AF78600123FB7301217868FFF752
:1019500075FEFB7B18461037BD4680BD80B584B050
:1019600000AF78600123FB7300217868FFF766FE03
:10197000FB7B18461037BD4680BD000080B584B0A3
:1019800000AF0C4A3B1D07CA83E807003B1D194600
:101990004FF0804001F05EFC074B1B683B603B460C
:1019A00019464FF0804001F0ABFC00BF1037BD4638
:1019B00080BD00BF585500086455000880B584B04C
:1019C00000AF0346FB80FB881846FFF759F8034633
:1019D00010491846FFF7A8F803460F491846FEF7C6
:1019E0009BFF03461846FFF7EFF90346FB810123EF
:1019F0003B7244F620637B81FB89BB8107F10803BE
:101A000019464FF0804001F029FD00BF1037BD4658
:101A100080BD00BF555505410000484480B500AF6A
:101A20004FF0804001F03FFD00BF80BD80B584B025
:101A300000AF094A3B1D07CA83E807003B1D184653
:101A400000F0F2FA002000F091FC142001F012FAEC
:101A500000BF1037BD4680BD6855000880B588B00E
:101A600000AF3B600346FB710B46BB7113467B71B5
:101A70000E4A07F1140307CA83E80700FB793B739A
:101A8000BB797B737B79BB7307F10C0303333A6833
:101A90001A6007F10C0207F114031146184600F012
:101AA00077FB00BF2037BD4680BD00BF74550008DE
:101AB00080B582B000AF6A4B1B78103B1E2B00F242
:101AC000C38001A252F823F0451B0008491C0008FE
:101AD000491C0008491C0008491C0008491C000852
:101AE000491C0008491C0008491C0008491C000842
:101AF000491C0008491C0008491C0008491C000832
:101B0000491C0008491C0008491C0008491C000821
:101B1000871B0008491C0008491C0008491C0008D4
:101B2000491C0008811B0008491C0008491C0008CA
:101B3000491C0008491C0008491C0008491C0008F1
:101B4000DD1B0008474B1B78022B0AD1464B1B7844
:101B5000042B06D1454B02221A70002000F0A0F899
:101B600076E0414B1B78042B02D0332000F086F83E
:101B70003C4B1B78022B6BD0122000F07FF867E003
:101B800000F0B4F867E0384B1B78032B22D1002318
:101B90007B7000237B80364B1B787A1C11461846DD
:101BA000FFF718FD7B787B80314B1B780133DBB26C
:101BB0007A1C11461846FFF70DFD7B881B021AB2EE
:101BC0007B781BB213431BB27B807B88184600F0E6
:101BD00067F840E0122000F051F83CE0234B1B78FE
:101BE000022B37D1204B1B78042B33D1204B1B7891
:101BF000012B25D11F4B1B68E12B0ED1002000F0DB
:101C00004FF8FFF70DFEFFF733FE1B48FFF797FE77
:101C1000194B1B887B6000BF1CE0164B1B68D02B48
:101C20000AD1FFF725FEFFF70CFE1348FFF796FEDB
:101C3000002000F035F80DE0102000F01FF809E05A
:101C4000312000F01BF805E0112000F017F802E049
:101C500000BF00E000BF00BF0837BD4680BD00BF29
:101C60004422002045220020580000205900002076
:101C7000462200204822002000FC000880B582B0E7
:101C800000AF0346FB71054B1978FB7900227F20DA
:101C9000FFF7E4FE00BF0837BD4680BD45220020A7
:101CA00080B582B000AF7860074B1B784033D8B264
:101CB000064B1978064B1A787B68FFF7CFFE00BFFA
:101CC0000837BD4680BD00BF4422002045220020C9
:101CD0004622002080B582B000AF7860796800208D
:101CE00000F066FB00BF0837BD4680BD80B582B0FE
:101CF00000AF284B1B78002B42D0264B1B78062BBD
:101D00003ED8244B1B7803F00103DBB2002B0AD032
:101D100000F06BF80346204A13601F4B1B681846FF
:101D2000FFF7BEFF30E01C4B1B68184600F03CF884
:101D300078601A4B1B687A689A421CD10020FFF722
:101D4000AFFF174B01221A70124B1B78062B0ED0D7
:101D5000062B19DC022B02D0042B04D014E0114B0B
:101D600002221A700BE00F4B03221A7007E00D4B92
:101D700004221A7003E03320FFF780FF04E003E041
:101D80001220FFF77BFF00E000BF00BF0837BD4611
:101D900080BD00BF45220020B00000204822002066
:101DA000590000205800002080B487B000AF786050
:101DB0007B687B611F233B611123FB607A693B6970
:101DC0009A407B695340FA6813447B617A69FB68E7
:101DD000DA407B695A403B6902FB03F37B617B6914
:101DE00018461C37BD4680BC704780B584B000AF34
:101DF0000023FB8002F03AFFF860BB1D184600F09C
:101E0000DBF8FB881A46FB6802FB03F3BB60BB6888
:101E100018461037BD4680BD80B500AF00F018F8F9
:101E200000BF80BD80B582B000AF03463960FB7152
:101E3000386800F0C1F83B681B881A46962302FBFD
:101E400003F31B0B9BB218460837BD4680BD00004C
:101E500080B582B002AF002000F00EFE0023009398
:101E6000002300220021002000F0E0FC01210920D5
:101E700001F0A0F94F4B5B684E4A23F470035360A6
:101E80004C4B4C4A5B6853604A4B5B68494A23F4AD
:101E900070235360474B474A5B685360454B5B6810
:101EA000444A23F460435360424B424A5B685360A8
:101EB000404B5B683F4A23F01F0353603D4B5B6818
:101EC0003C4A43F0050353603A4B5B68394A23F4BC
:101ED000FF535360374B9B68364A43F400039360CB
:101EE000344B9B68334A5B0D5B059360314B314A41
:101EF0009B6893602F4B9B682E4A23F002039360EC
:101F00002C4B9B682B4A43F002039360294B9B6840
:101F1000284A43F001039360264B00221A61254BA7
:101F20000022DA60234B234A5B6B5363214B5B6BCC
:101F3000204A43F0800353631E4B5B6B1D4A43F4FE
:101F4000406353631B4B5B6B1A4A43F48033536308
:101F5000184B5B6B174A43F480135363154B5B6B51
:101F6000144A43F020635363124B00221A63114B4F
:101F70000022DA620F4B00229A620E4B40F6FF728B
:101F80005A620C4B00225A610A4B00229A61094B9B
:101F90000022DA61074B00221A62064B00229A6384
:101FA000044B9B68034A43F00103936000BFBD46A6
:101FB00080BD00BF0024014080B485B000AF7860D0
:101FC0000023FB737B68002B02D10223FB7322E00A
:101FD0000023BB73134B9B68124A43F48003936046
:101FE00007E0BB7B0133BB73BB7BC82B01D1042350
:101FF000FB730C4B1B685B0803F00103012B02D041
:10200000BB7BC72BEDD9BB7BC72B04D8054BDB6C47
:102010009AB27B681A80FB7B18461437BD4680BC99
:10202000704700BF0024014080B586B002AF7860E1
:102030000023FB737B68002B02D10923FB73A0E014
:102040000121192001F066F80121022001F0B2F807
:10205000012300930223022200210C2000F0E6FB62
:10206000002300930023012200210B2000F0DEFB5F
:10207000464B1B68454A23F002031360434B5B68E1
:1020800003F00203002BF9D1404B1B683F4A43F099
:10209000010313603D4B5B6803F00103012BF9D191
:1020A0003A4B1B6823F004037A68127892001146B9
:1020B000364A0B431360354B1B6823F008037A68DC
:1020C0005278D2001146314A0B4313602F4B1B68E4
:1020D00023F010037A689278120111462B4A0B43C1
:1020E00013602A4B1B6823F020037A68D2785201D0
:1020F0001146264A0B431360244B1B6823F0400310
:102100007A68127992011146204A0B4313601F4BE3
:102110001B6823F080037A685279D20111461B4A6A
:102120000B431360194B1B6823F480337A68927950
:1021300012041146154A0B431360144BDB6923F05C
:1021400040437A68D27992071146104A0B43D36113
:102150000E4BDB6903F040427B689B6823F04043F1
:102160000A491343CB61094B1B68084A23F001035A
:102170001360064B5B6803F00103002BF9D100F0FC
:1021800033F9FB7B18461037BD4680BD0064004024
:1021900080B485B000AF786039600023FB73704B6A
:1021A0005B681B0EDBB203F00303BB737B68002B81
:1021B00002D10923FB73CCE000BF694B9A68BB7B5B
:1021C0001A3322FA03F303F00103012BF5D1644A19
:1021D000BB7B18331B01134404331B6823F00F012E
:1021E0007B681B7803F00F025D48BB7B0A43183302
:1021F0001B01034404331A60594ABB7B18331B018B
:1022000013441B68574A1A407B685B68D900564BD9
:102210000B405348B97B1A4301F118031B010344D7
:102220001A604F4ABB7B18331B0113441B6823F011
:1022300004027B681B7A9B0018464949BB7B02431A
:1022400018331B010B441A60454ABB7B18331B0132
:1022500013441B6823F002027B685B7A5B0018461C
:102260003F49BB7B024318331B010B441A603C4AB5
:10227000BB7B18331B0113441B68C3F314027B6838
:102280005B885B0518463649BB7B024318331B014C
:102290000B441A603249BB7B3A6812681B010B443D
:1022A00003F5C4731A602E49BB7B3A6852681B0160
:1022B0000B4403F5C6731A60294ABB7B18331B0114
:1022C00013441A682649BB7B42F0010218331B01F4
:1022D0000B441A6000BF224B9A68BB7B1A3322FA68
:1022E00003F303F00103012BF5D11D4B9A68BB7B6F
:1022F000DB00013322FA03F303F00103012B28D0A2
:10230000174B9A68BB7BDB00023322FA03F303F01E
:102310000103012B01D10C2200E00022104B99682F
:10232000BB7BDB00033321FA03F303F00103012B32
:102330000CBF01230023DBB2DBB20949896909091B
:10234000C9B201F00301C9B201FB03F3DBB21344CC
:10235000FB73FB7B18461437BD4680BC704700BF3B
:10236000006400400700E0FFF8FF1F0080B485B064
:1023700000AF0346FB710023FB730C4B5B69FA79DA
:10238000002A0CBF01220022D2B21146FA79920033
:102390000A44012101FA02F21146044A0B43536137
:1023A000FB7B18461437BD4680BC70470064004074
:1023B00080B485B000AF03463960FB710023FB7326
:1023C0003B68002B02D10923FB7304E0FB7905492C
:1023D0003A6841F82320FB7B18461437BD4680BC81
:1023E000704700BFB400002080B483B000AF00236A
:1023F000FB71524BD3F80032504A43F00103C2F84C
:1024000000324E4BD3F8003223F47C534B4A43F452
:10241000E053C2F80032494B43F6FF72C3F804227E
:10242000464B43F6FF72C3F80C22444B0022C3F81C
:102430001422424B4FF00052C3F840223F4B4FF062
:102440000052C3F844223D4B0022C3F848223B4BC4
:102450000022C3F84C22394B0022C3F85022374BDC
:102460000022C3F85422354B0022C3F85822334BC4
:102470000022C3F85C22314B0022C3F860222F4BAC
:102480000022C3F864222D4B0022C3F868222B4B94
:102490000022C3F86C22294B0022C3F87022274B7C
:1024A0000022C3F87422254B0022C3F87822234B64
:1024B0000022C3F87C22214B0022C3F880221F4B4C
:1024C0000022C3F884221D4B0022C3F888221B4B34
:1024D0000022C3F88C22194B0022C3F89022174B1C
:1024E0000022C3F89422154B0022C3F89822134B04
:1024F0000022C3F89C22114B0022C3F8A0220F4BEC
:102500000022C3F8A4220D4B0022C3F8A8220B4BD3
:102510000022C3F8AC22094B0122C3F81C22074B4E
:10252000D3F80032054A23F00103C2F80032FB79E8
:1025300018460C37BD4680BC704700BF00640040A1
:1025400080B586B000AF254BD3F8B431DBB203F0D1
:102550000F03DBB23B72214BD3F8B431DB08C3F37A
:102560001103FB601D4BD3F8B0319B08DBB203F0C5
:102570000103DBB23B74194BD3F8B0315B08DBB21B
:1025800003F00103DBB27B74144BD3F8B4315B0D61
:102590009BB2C3F30A039BB27B81104A3B46D2F83D
:1025A000B8211A600D4A3B460433D2F8BC211A60A8
:1025B0000A4BD3F8B4311B0AFB75094B1B68FA7D33
:1025C000394607F108009847044BDB68034A43F09B
:1025D0002003D36000BF1837BD4680BD00640040B3
:1025E000B400002080B500AF074B1B68002B08D05B
:1025F000054B1B689847054B5B69044A43F0010390
:10260000536100BF80BD00BFBC000020000401403A
:1026100080B500AF074B5B68002B08D0054B5B68AB
:102620009847054B5B69044A43F00203536100BFBE
:1026300080BD00BFBC0000200004014080B500AF99
:10264000074B9B68002B08D0054B9B689847054BB0
:102650005B69044A43F00403536100BF80BD00BFBF
:10266000BC0000200004014080B500AF074BDB68D0
:10267000002B08D0054BDB689847054B5B69044A83
:1026800043F00803536100BF80BD00BFBC000020C1
:102690000004014080B500AF074B1B69002B08D038
:1026A000054B1B699847054B5B69044A43F01003CF
:1026B000536100BF80BD00BFBC000020000401408A
:1026C00080B485B000AF78600B467B800123FB733C
:1026D0007B68234A934203D27B68B3F1006F02D236
:1026E0000023FB7335E000BF1E4BDB6803F00103E2
:1026F000012BF9D01B4B1B69DB0903F00103012BF4
:1027000005D1184B184A5A60164B184A5A60154B97
:102710001B69144A43F0010313617B687A881A80AD
:1027200000BF104BDB6803F00103012BF9D00D4B08
:10273000DB680C4A43F02003D3600A4B1B69094A4B
:1027400023F001031361074B1B69064A43F0800322
:102750001361FB7B18461437BD4680BC704700BF31
:10276000FFFF00080020024023016745AB89EFCD41
:1027700080B485B000AF0346FB710123FB73FB7986
:102780003F2B02D90023FB7343E000BF244BDB68DF
:1027900003F00103012BF9D0214B1B69DB0903F086
:1027A0000103012B05D11E4B1E4A5A601C4B1E4AC9
:1027B0005A601B4B1B691A4A43F002031361FB79F1
:1027C0009B0203F10062164B5A61154BDB6803F064
:1027D0000103012BF9D0124B1B69114A43F040034E
:1027E00013610F4BDB6803F00103012BF9D00C4B95
:1027F000DB680B4A43F02003D360094B1B69084A8E
:1028000023F002031361064B1B69054A43F0800362
:102810001361FB7B18461437BD4680BC704700BF70
:102820000020024023016745AB89EFCD90B484B00E
:1028300000AF0446084611461A462346FB7103467C
:10284000BB710B467B7113463B710023FB73FB7915
:10285000072B32D8BB79524A52F823301B68FA79D9
:102860009200032101FA02F2D2431A403979FB792E
:102870009B0001FA03F31846BB79494951F823300C
:1028800002431A60BB79464A52F823301B68FA7932
:1028900092000232032101FA02F2D2431A407979FE
:1028A000FB799B00023301FA03F31846BB793C49DC
:1028B00051F8233002431A6040E0FB79072B3BD9E3
:1028C000FB790F2B38D8FB79083BFB71BB79344A75
:1028D00052F823305B68FA799200032101FA02F280
:1028E000D2431A403979FB799B0001FA03F3184669
:1028F000BB792B4951F8233002435A60BB79284AEF
:1029000052F823305B68FA7992000232032101FA0F
:1029100002F2D2431A407979FB799B00023301FA23
:1029200003F31846BB791E4951F8233002435A601D
:10293000FB790833FB7101E00423FB733B7E022B20
:1029400011D1BB79164A52F82330DA68FB7901219C
:1029500001FA03F3DB431846BB79114951F82330E0
:102960000240DA6015E03B7E012B10D1BB790C4AA6
:1029700052F82330DA68FB79012101FA03F3184693
:10298000BB79074951F823300243DA6001E005239F
:10299000FB73FB7B18461037BD4690BC704700BFE9
:1029A0008855000880B485B000AF0346FB710B4624
:1029B000BB7113467B710023FB737B79002B11D114
:1029C000BB79164A52F82330DA68FB79012101FA03
:1029D00003F3DB431846BB79104951F8233002401A
:1029E000DA6015E07B79012B10D1BB790B4A52F8E4
:1029F0002330DA68FB79012101FA03F31846BB7929
:102A0000064951F823300243DA6001E00523FB73E5
:102A1000FB7B18461437BD4680BC704788550008BC
:102A200080B485B000AF03463A60FB710B46BB71C2
:102A30000023FB730023BB813B68002B02D10123E1
:102A4000FB7311E0BB790B4A52F823309B68BB81C2
:102A5000BA89FB79012101FA03F31A40FB7942FAA2
:102A600003F3DAB23B681A70FB7B18461437BD4695
:102A700080BC70478855000880B584B000AF03461D
:102A8000FB710023FB73FB79062B07D8FB7902331C
:102A9000DBB20121184600F08DFB02E00323FB733B
:102AA00000BFFB7B18461037BD4680BD80B586B0A1
:102AB00002AF78600023FB737B68002B02D10123F7
:102AC000FB7347E00120FFF7D7FF002300930323A8
:102AD000032201210620FFF7A9FE00230093032310
:102AE000032201210720FFF7A1FE0121152000F09C
:102AF00011FB1B4B1B681A4A43F400431360184B2D
:102B00001B68174A23F400431360154B5A684FF6AD
:102B1000E07313407A685268114913434B60104BBD
:102B20001B680F4A23F001031360786800F0BAF8BD
:102B3000786800F029F9786800F070F9786800F09A
:102B4000F3F8786800F03CF9054B1B68044A43F041
:102B500001031360FB7B18461037BD4680BD00BFE4
:102B60000054004080B582B000AF0346FB710C4BAF
:102B70001B680B4A43F480631360FB795B00FB71B5
:102B8000074AFB79136100BF054B5B6903F0020341
:102B9000002BF9D000F05EF900BF0837BD4680BDBC
:102BA0000054004080B582B000AF0346FB71FB7952
:102BB0005B005BB243F001035BB2FB71074AFB7938
:102BC000136100BF054B5B6903F00203002BF9D0D2
:102BD00000F040F900BF0837BD4680BD00540040FA
:102BE00080B483B000AF0346FB7100BF064B5B6946
:102BF00003F08003002BF9D0034AFB79136100BF77
:102C00000C37BD4680BC70470054004080B483B090
:102C100000AF786000BF084B5B6903F04003002BF6
:102C2000F9D0054B1B69DAB27B681A7000BF0C370C
:102C3000BD4680BC704700BF0054004080B400AF68
:102C400000BF0C4B9B6903F00203002BF9D1094B29
:102C50001B68084A43F48073136000BF054B5B692F
:102C600003F00103002BF9D000BF00BFBD4680BCBC
:102C7000704700BF0054004080B400AF00BF084B55
:102C80005B6903F00403002BF9D0054B1B68044A71
:102C900043F40073136000BFBD4680BC704700BFA3
:102CA0000054004080B483B000AF78601C4BDA69F8
:102CB0007B685B681B4903FB01F17B681B685B0059
:102CC000B1FBF3F316491343CB61154B09221A628A
:102CD0007B685B7A002B06D1114BDB69104A23F429
:102CE0000043D36105E00E4BDB690D4A43F400431A
:102CF000D3617B681B7A002B06D1094BDB69084A3C
:102D000023F48043D36105E0054BDB69044A43F4B7
:102D10008043D36100BF0C37BD4680BC704700BF05
:102D20000054004040420F0080B483B000AF786090
:102D30007B681B7C002B10D1124A7B68DB68936098
:102D4000104B9B680F4A23F4004393600D4B9B6824
:102D50000C4A43F4804393600FE00A4A7B68DB68C7
:102D60009360084B9B68074A43F400439360054B0C
:102D70009B68044A43F48043936000BF0C37BD4610
:102D800080BC70470054004080B483B000AF7860CE
:102D90007B689B7C002B06D1084B1B68074A43F0DD
:102DA0008003136005E0054B1B68044A23F0800391
:102DB000136000BF0C37BD4680BC70470054004014
:102DC00080B483B000AF78607B681B7D002B06D198
:102DD000114B5B68104A23F48073536005E00E4B7F
:102DE0005B680D4A43F4807353607B68DB7C002B87
:102DF00006D1094B5B68084A23F40073536005E071
:102E0000054B5B68044A43F40073536000BF0C3702
:102E1000BD4680BC704700BF0054004080B483B002
:102E200000AF78607B685B7C012B06D1084B1B6888
:102E3000074A43F04003136005E0054B1B68044A52
:102E400023F04003136000BF0C37BD4680BC7047C1
:102E50000054004080B483B000AF054B5B69FB8039
:102E6000034B9B69FB8000BF0C37BD4680BC70479D
:102E70000054004080B485B000AF0346FB710123CD
:102E8000FB73FB795B09BB73FB7903F01F037B7357
:102E9000BB7B0A4A52F823301A687B7B012101FA76
:102EA00003F31846BB7B054951F8233002431A60EF
:102EB000FB7B18461437BD4680BC704720000020BD
:102EC00080B586B000AF03460A46FB711346BB715E
:102ED0000023FB7542F210733B615E4B5B6803F0AD
:102EE0000303FB60FB79022B55D0022B00F381809A
:102EF000002B02D0012B26D07BE0564B1B68554A95
:102F000043F00103136005E03B69002B09D03B69E6
:102F1000013B3B614F4B1B6803F00203002BF3D0D6
:102F200000E000BF4B4B5B684A4A23F00303536049
:102F3000494B1B6849491846FDF7F6FD03461A46FA
:102F4000454B1A6058E0434B1B68424A43F48033B8
:102F5000136005E03B69002B09D03B69013B3B61F5
:102F60003C4B1B6803F40033002BF3D000E000BFA0
:102F7000384B5B6823F00303364A43F00103536088
:102F8000354B1B6835491846FDF7CEFD03461A46FA
:102F9000314B1A6030E02F4B1B682E4A43F0807390
:102FA000136005E03B69002B09D03B69013B3B61A5
:102FB000284B1B6803F00073002BF3D000E000BF28
:102FC000244B5B6823F00303224A43F0020353605F
:102FD000234B1B681846FDF74FFD02461E4B1B682E
:102FE00019461046FDF7A0FD03461A461A4B1A6013
:102FF00002E00223FB7500BFBB79012B24D1FB68E3
:10300000022B17D0FB68022B1BD8FB68002B03D0C8
:10301000FB68012B07D014E00E4B1B680D4A23F010
:103020000103136010E00B4B1B680A4A23F4803342
:10303000136009E0074B1B68064A23F080631360A6
:1030400002E00223FB7500BFFB7D18461837BD4622
:1030500080BD00BF00100240400000200024F44A60
:10306000FC00002080B485B000AF0346FB710B4626
:10307000BB7113467B710023FB73FB79032B02D0DA
:10308000042B07D00DE0224B1B68214A43F00103BB
:10309000136009E01E4B1B681D4A23F001031360F7
:1030A00002E00223FB7300BFBB79052B02D0062B85
:1030B00007D00DE0164B1B68154A43F480331360AC
:1030C00009E0134B1B68124A23F48033136002E0BB
:1030D0000223FB7300BF7B79072B02D0082B07D09C
:1030E0000DE00B4B1B680A4A43F08073136009E044
:1030F000074B1B68064A23F08073136002E002232B
:10310000FB7300BFFB7B18461437BD4680BC70477D
:103110000010024080B485B000AF03460A46FB7140
:103120001346BB710023FB730023BB60FB791D2B8F
:103130008CBF01220022D2B2002A2DD11B4A22FAD2
:1031400003F303F00103002B14BF01230023DBB2C0
:10315000002B21D0BB79012B0BD1FB79012202FA84
:1031600003F3BB60124BDA691149BB681343CB61AF
:1031700015E0BB79002B0CD1FB79012202FA03F395
:10318000BB600B4BDA69BB68DB4309491340CB6179
:1031900005E00223FB7302E00A23FB7300BFFB7B05
:1031A00018461437BD4680BC704700BFFFC9FE3AC1
:1031B0000010024080B485B000AF03460A46FB71A0
:1031C0001346BB710023FB730023BB60FB79152BF7
:1031D0008CBF01220022D2B2002A2DD11B4A22FA32
:1031E00003F303F00103002B14BF01230023DBB220
:1031F000002B21D0BB79012B0BD1FB79012202FAE4
:1032000003F3BB60124B9A691149BB6813438B618E
:1032100015E0BB79002B0CD1FB79012202FA03F3F4
:10322000BB600B4B9A69BB68DB43094913408B6158
:1032300005E00223FB7302E00B23FB7300BFFB7B63
:1032400018461437BD4680BC704700BFFDFF3800EC
:103250000010024080B582B000AF786039607B68B2
:10326000244A93421ED0234A934220D8224A9342B2
:1032700013D0214A93421AD8B3F1804F03D01F4A8A
:10328000934205D013E001210020FFF743FF0EE039
:1032900001210120FFF73EFF09E001210220FFF795
:1032A00039FF04E001210320FFF734FF00BF7B68F2
:1032B00000221A607B681B683A6811893A68D288D4
:1032C0000A4391B23A6892880A4391B23A685288A6
:1032D0000A4391B23A6812880A4392B21A437B6851
:1032E0001A603B685B891A467B689A6200BF0837A0
:1032F000BD4680BD000C00400008004000040040B6
:1033000080B584B002AF786039603B68DB781846DE
:10331000FFF7B2FB3B6898783B68D97800230093AD
:1033200001230222FFF782FA3B681B78032B00F28D
:10333000918001A252F823F0493300088D33000830
:10334000CF330008133400087B689B6903F47F4285
:103350007B689A617B689B6943F068027B689A612D
:103360007B681A6A4FF6F07313407A6813627B68C1
:103370001B6A43F001027B681A627B681B6A3A6829
:10338000527852001A437B681A6263E07B689B693B
:10339000DAB27B689A617B689B6943F4D0427B68B0
:1033A0009A617B681A6A4FF60F7313407A6813624A
:1033B0007B681B6A43F010027B681A627B681B6A99
:1033C0003A68527852011A437B681A6242E07B687D
:1033D000DB6903F47F427B68DA617B68DB6943F079
:1033E00068027B68DA617B681A6A4FF2FF03134058
:1033F0007A6813627B681B6A43F480727B681A6286
:103400007B681B6A3A68527852021A437B681A62D8
:1034100020E07B68DB69DAB27B68DA617B68DB69B4
:1034200043F4D0427B68DA617B681A6A4FF2FF038B
:1034300013407A6813627B681B6A43F480727B686E
:103440001A627B681B6A3A68527852021A437B6898
:103450001A6200BF00BF0837BD4680BD80B483B08C
:1034600000AF786039603B689A883B681B781146EA
:103470007A680C339B00134459603B685B881A469A
:103480007B68DA627B681B6803F00103002B05D1BF
:103490007B681B6843F001027B681A6000BF0C3731
:1034A000BD4680BC704780B483B000AF78607B6855
:1034B0001B6823F001027B681A607B685B6A1B0C47
:1034C0001B047A68536200BF0C37BD4680BC70474E
:1034D0002DE9B0438CB000AF7860012387F82F301E
:1034E0007B68002B03D1022387F82F303BE17B68F8
:1034F0009B78002B40F034817B685B7903F00203FA
:10350000FB757B681B78002B07D0002BC0F2248151
:10351000013B012B00F220818FE07B68D3E904237B
:1035200010461946FCF7AAFF02460B4692A1D1E9C4
:103530000001FDF703F902460B4614461D46FB7DCC
:10354000C3F10203DB001846FCF764FF02460B469A
:1035500020462946FDF7F2F802460B46C7E902234A
:10356000D7E90201FDF750FC02460B46C7E90623E6
:10357000D7E90601FCF782FF02460B46D7E90201B4
:10358000FCF7FAFD02460B46104619464FF00002C2
:103590007B4BFCF7A9FF02460B46104619464FF03D
:1035A0000002784BFCF7EAFD02460B46104619462E
:1035B000FDF72AFC02460B46C7E90823D7E9082392
:1035C000A2F110010B430DD14FF000024FF00003A8
:1035D000C7E90823D7E9062312F1010843F10009DE
:1035E000C7E906897B681B781A46674B53F8223077
:1035F0009B6823F47F4323F0F003BA69120191B270
:103600007A6812781046604A52F820200B43936083
:103610007B681B781A465C4B53F822309B6823F07A
:103620000F013B6A03F00F027B681B781846564B6C
:1036300053F820300A439A6095E07B68D3E904236D
:1036400010461946FCF71AFF02460B464AA1D1E97B
:103650000001FDF773F802460B4690469946FB7D44
:10366000C3F10203DB001846FCF7D4FE02460B460A
:1036700040464946FDF762F802460B46C7E9022379
:10368000D7E90201FDF7C0FB02460B46C7E9062356
:10369000D7E90601FCF7F2FE02460B46D7E9020124
:1036A000FCF76AFD02460B46104619464FF0000231
:1036B000334BFCF719FF02460B46104619464FF0F4
:1036C0000002304BFCF75AFD02460B4610461946E5
:1036D000FDF79AFB02460B46C7E90823D7E9082302
:1036E000A2F110010B430CD14FF000024FF0000388
:1036F000C7E90823D7E90623541C43F10005C7E9AD
:1037000006457B681B781A461F4B53F822309B688E
:1037100023F47F4323F0F003BA69120191B27A686F
:1037200012781046184A52F820200B4393607B68A9
:103730001B781A46144B53F822309B6823F00F0174
:10374000BB6903F00F027B681B7818460E4B53F8D9
:1037500020300A439A6006E0002387F82F3002E009
:10376000002387F82F3097F82F3018463037BD46A2
:10377000BDE8B083AFF300800000000080845E41AC
:10378000000030400000E03F4400002080B584B0DD
:1037900000AF78600123FB737B68002B02D102230A
:1037A000FB731BE07B681B78022B10D0022B13DC11
:1037B000002B02D0012B05D00EE001210E20FFF7D7
:1037C000F9FC0BE001211120FFF7A4FC06E0012128
:1037D0001220FFF79FFC01E00023FB73FB7B1846E0
:1037E0001037BD4680BD000080B584B000AF786062
:1037F0000123FB737B68002B02D10223FB730AE1D8
:103800007868FFF7C3FF0346FB737868FFF760FE35
:103810000346FB737B681B781A46814B53F82230B2
:10382000DB6823F480527B685B781B0319467B6856
:103830001B7818467A4B53F820300A43DA607B68CD
:103840001B781A46764B53F822301B6923F400721A
:103850007B68DB795B0219467B681B781846704BE6
:1038600053F820300A431A617B681B781A466C4B68
:1038700053F822301B6923F480627B689B799B029A
:1038800019467B681B781846654B53F820300A436D
:103890001A617B681B781A46614B53F822305B69CA
:1038A00023F0C0017B681B7A9B01DAB27B681B782E
:1038B00018465B4B53F820300A435A617B681B78EB
:1038C0001A46574B53F822305B6923F008027B6895
:1038D0005B7ADB0019467B681B781846504B53F81F
:1038E00020300A435A617B681B781A464C4B53F8C8
:1038F00022305B6923F400617B685B79DB0203F4AF
:1039000000627B681B781846454B53F820300A4309
:103910005A617B681B781A46414B53F82230DB68AA
:1039200023F400417B685B795B08DBB2DB039AB26E
:103930007B681B7818463A4B53F820300A43DA600C
:103940007B681B781A46364B53F82230DB6823F429
:10395000C0617B681B795B0203F4C0627B681B78E3
:1039600018462F4B53F820300A43DA607B681B78E7
:103970001A462B4B53F822301A697B681B7819467C
:10398000274B53F8213022F440521A617B681B7890
:103990001A46234B53F822301B6923F400627B68DC
:1039A0009B78DB0219467B681B7818461C4B53F842
:1039B00020300A431A617B681B781A46184B53F86B
:1039C0002230DA687B681B781946154B53F8213092
:1039D00042F40052DA607B681B781A46104B53F8A9
:1039E0002230DA687B681B7819460D4B53F821307A
:1039F00042F00802DA607B681B781A46084B53F8DD
:103A00002230DA687B681B781946054B53F8213061
:103A100042F00402DA60FB7B18461037BD4680BDD9
:103A20004400002080B485B000AF78603960012385
:103A3000FB737B68002B02D03B68002B02D1022372
:103A4000FB7315E000BF7B681B781A460B4B53F8DD
:103A500022301B6803F02003002BF4D07B681B7816
:103A60001A46064B53F822305B689AB23B681A80BC
:103A7000FB7B18461437BD4680BC704744000020CD
:103A800080B582B000AF204B1B681B685B0903F058
:103A90000103012B18D11C4B1B68DB685B0903F089
:103AA0000103012B10D1184B1B685B68FB80174B7F
:103AB0001B68FA8810469847134B1B681A68124B0C
:103AC0001B6822F020021A600F4B1B681B689B09C1
:103AD00003F00103012B12D10B4B1B68DB689B0920
:103AE00003F00103012B0AD1094B1B689847064BD1
:103AF0001B681A68044B1B6822F040021A6000BF62
:103B00000837BD4680BD00BF4400002000010020F2
:103B10000C01002080B586B000AF78600023FB6008
:103B200000F0B8FF4C4B1B68002B01D100F0E0F80F
:103B30004A4B1A687B681340002B40F086807B68F4
:103B4000002B1ED008227B6813447A689A4218D250
:103B500008227B6813447B607B6803F00703002B1B
:103B600011D07B6823F0070308337A689A4205D2A4
:103B70007B6823F0070308337B6004E000237B604D
:103B800001E000237B607B68002B5ED0344B1B6818
:103B90007A689A4259D8334B3B61324B1B687B6140
:103BA00004E07B693B617B691B687B617B695B68C7
:103BB0007A689A4203D97B691B68002BF1D1264BA6
:103BC0001B687A699A4240D03B691B6808221344FB
:103BD000FB607B691A683B691A607B695A687B687D
:103BE000D21A08235B009A420FD97A697B68134482
:103BF000BB607B695A687B68D21ABB685A607B6974
:103C00007A685A60B86800F0D5F8154B1A687B6975
:103C10005B68D31A124A1360114B1A68124B1B6867
:103C20009A4203D20E4B1B680F4A13607B695A6895
:103C30000A4B1B681A437B695A607B6900221A6031
:103C40000A4B1B680133094A136000F031FFFB681F
:103C500018461837BD4680BD2021002034210020A1
:103C60002421002018210020282100202C210020C0
:103C700080B584B000AF78607B68FB607B68002B08
:103C80002CD008235B42FA681344FB60FB68BB60DE
:103C9000BB685A68134B1B681340002B1ED0BB68CF
:103CA0001B68002B1AD1BB685A680E4B1B68DB439C
:103CB0001A40BB685A6000F0EDFEBB685A680A4BB8
:103CC0001B681344084A1360B86800F073F8074B88
:103CD0001B680133054A136000F0EAFE00BF10378D
:103CE000BD4680BD34210020242100203021002049
:103CF00080B485B000AF4FF40053BB60274BFB602E
:103D0000FB6803F00703002B0CD0FB680733FB6054
:103D1000FB6823F00703FB60BA68FB68D31A1F4AED
:103D20001344BB60FB687B601D4A7B6813601C4BBF
:103D300000225A607B68BA681344FB600822FB6863
:103D40009B1AFB60FB6823F00703FB60FB68154AC6
:103D50001360144B1B6800225A60124B1B68002230
:103D60001A607B683B603B68FA68D21A3B685A600D
:103D70000C4B1A683B681A603B685B680A4A136020
:103D80003B685B68094A1360094B4FF000421A60B8
:103D900000BF1437BD4680BC704700BF180100202B
:103DA000182100202021002028210020242100208B
:103DB0003421002080B485B000AF7860274BFB60D1
:103DC00002E0FB681B68FB60FB681B687A689A422C
:103DD000F7D8FB68BB60FB685B68BA6813447A6815
:103DE0009A4208D1FB685A687B685B681A44FB6892
:103DF0005A60FB687B607B68BB607B685B68BA6805
:103E00001A44FB681B689A4218D1FB681A68144B65
:103E10001B689A420DD07B685A68FB681B685B6818
:103E20001A447B685A60FB681B681A687B681A60D2
:103E300008E00B4B1A687B681A6003E0FB681A689D
:103E40007B681A60FA687B689A4202D0FB687A68DD
:103E50001A6000BF1437BD4680BC7047182100208F
:103E60002021002080B483B000AF78607B6803F12C
:103E700008027B685A607B684FF0FF329A607B686B
:103E800003F108027B68DA607B6803F108027B6853
:103E90001A617B6800221A6000BF0C37BD4680BCE7
:103EA000704780B483B000AF78607B6800221A61ED
:103EB00000BF0C37BD4680BC704780B485B000AFF2
:103EC000786039603B681B68BB60BB68B3F1FF3F3B
:103ED00003D17B681B69FB600CE07B680833FB60E7
:103EE00002E0FB685B68FB60FB685B681B68BA68A4
:103EF0009A42F6D2FB685A683B685A603B685B6836
:103F00003A689A603B68FA689A60FB683A685A6057
:103F10003B687A681A617B681B685A1C7B681A6068
:103F200000BF1437BD4680BC704780B485B000AF79
:103F300078607B681B69FB607B685B687A68926865
:103F40009A607B689B687A6852685A60FB685B6815
:103F50007A689A4203D17B689A68FB685A607B68EA
:103F600000221A61FB681B685A1EFB681A60FB6816
:103F70001B6818461437BD4680BC704780B485B0B6
:103F800000AFF860B9607A60FB68043BFB60FB68D7
:103F90004FF080721A60FB68043BFB60BB6823F043
:103FA0000102FB681A60FB68043BFB60084AFB687F
:103FB0001A60FB68143BFB607A68FB681A60FB6858
:103FC000203BFB60FB6818461437BD4680BC704739
:103FD000D53F000880B483B000AF00233B604FF0B2
:103FE000BF0383F31188BFF36F8FBFF34F8F7B60E5
:103FF00000BF00BF3B68002BFCD000BF00BF0C37E8
:10400000BD4680BC704700000000000000000000BA
:10401000074B19680868B0E8F00F80F30988BFF310
:104020006F8F4FF0000080F311884EF00D0E704737
:104030003821002000BF00BF06480068006880F3F8
:10404000088862B661B6BFF34F8FBFF36F8F00DF92
:1040500000BF000008ED00E000BF00BF80B500AF6A
:104060000C4B1B680B4A43F47F031360094B1B681E
:10407000084A43F07F43136000F090F8064B00229B
:104080001A60FFF7D9FF00F0E3FEFFF7A3FF00235C
:10409000184680BD20ED00E05000002080B483B0C1
:1040A00000AF4FF0BF0383F31188BFF36F8FBFF3EF
:1040B0004F8F7B6000BF054B1B680133034A1360C1
:1040C00000BF0C37BD4680BC704700BF50000020C9
:1040D00080B483B000AF0A4B1B68013B084A1360F1
:1040E000074B1B68002B05D100237B607B6883F3A3
:1040F000118800BF00BF0C37BD4680BC704700BFB1
:10410000500000200000000000000000000000003F
:10411000EFF30980BFF36F8F0D4B1A6820E9F00FA2
:1041200010602DE908404FF0BF0080F3118800F0C7
:104130008FFE4FF0000080F31188BDE80840196839
:104140000868B0E8F00F80F30988BFF36F8F7047FD
:104150003821002000BF00BF80B582B000AF4FF013
:10416000BF0383F31188BFF36F8FBFF34F8F7B6063
:1041700000BF00F089FD0346002B03D0064B4FF033
:1041800080521A6000233B603B6883F3118800BFB4
:1041900000BF0837BD4680BD04ED00E080B400AF2D
:1041A000084B00221A60084B00221A60074B41F6A8
:1041B0003F721A60034B07221A6000BFBD4680BCE5
:1041C000704700BF10E000E018E000E014E000E0FD
:1041D00080B584B000AF786039600123FB607B68F4
:1041E000BB60BB68002B52D0BB68DB6B002B4ED092
:1041F000BB681A6CBB68DB6B0021A3FB0223002B9E
:1042000000D001210B46002B41D1FFF747FFBB68CF
:104210001A68BB68DB6BB968096C01FB03F31A44CD
:10422000BB689A60BB6800229A63BB681A68BB6867
:104230005A60BB681A68BB68DB6B013BB968096CE4
:1042400001FB03F31A44BB68DA60BB68FF2283F802
:104250004420BB68FF2283F845203B68002B09D12E
:10426000BB681B69002B0FD0BB681033184600F0E9
:104270004BFE09E0BB6810331846FFF7F3FDBB683F
:1042800024331846FFF7EEFDFFF722FF01E000237D
:10429000FB60FB6818461037BD4680BD80B58AB00C
:1042A00002AFF860B9601346FB710023FB61FB6845
:1042B000002B2DD00021BA68FB68A3FB0223002B42
:1042C00000D001210B46002B22D1FB68BA6802FB0B
:1042D00003F313F1490F1BD8FB68BA6802FB03F321
:1042E000BB61BB6948331846FFF714FCF861FB69F2
:1042F000002B0DD0FB697B617B6948337B61FA79C8
:10430000FB69009313467A69B968F86800F005F80C
:10431000FB6918462037BD4680BD80B584B000AF2C
:10432000F860B9607A60FB70BB68002B03D1BB6991
:10433000BA691A6002E0BB697A681A60BB69FA68F8
:10434000DA63BB69BA681A640121B869FFF740FFF4
:1043500000BF1037BD4680BD80B58AB000AFF860A1
:10436000B9607A603B6000237B62FB683B62FFF7C9
:1043700095FE3B6A9A6B3B6ADB6B9A4202D33B68C1
:10438000022B12D13A68B968386A00F009F9F8616D
:104390003B6A5B6A002B04D03B6A2433184600F06A
:1043A000B3FDFFF795FE012362E07B68002B03D18C
:1043B000FFF78EFE00235BE07B6A002B06D107F13E
:1043C0001403184600F068FE01237B62FFF780FEAD
:1043D00000F060FBFFF762FE3B6A93F844305BB28B
:1043E000B3F1FF3F03D13B6A002283F844203B6ACC
:1043F00093F845305BB2B3F1FF3F03D13B6A002233
:1044000083F84520FFF764FE3A1D07F114031146B7
:10441000184600F057FE0346002B23D1386A00F0FF
:1044200083F90346002B17D03B6A10337A68114694
:10443000184600F053FD386A00F00EF900F038FB22
:104440000346002B93D10C4B4FF080521A60BFF300
:104450004F8FBFF36F8F8AE7386A00F0FDF800F0E6
:1044600027FB84E7386A00F0F7F800F021FB00230F
:1044700018462837BD4680BD04ED00E080B588B001
:1044800000AF786039600023FB617B68BB61FFF798
:1044900005FEBB699B6B7B617B69002B10D07B6940
:1044A0005A1EBB699A63BB691B69002B04D0BB69A8
:1044B0001033184600F028FDFFF70AFE012369E0DB
:1044C0003B68002B03D1FFF703FE002362E0FB698A
:1044D000002B06D107F10C03184600F0DDFD012387
:1044E000FB61FFF7F5FD00F0D5FAFFF7D7FDBB69DB
:1044F00093F844305BB2B3F1FF3F03D1BB690022B4
:1045000083F84420BB6993F845305BB2B3F1FF3FB9
:1045100003D1BB69002283F84520FFF7D9FD3A4655
:1045200007F10C031146184600F0CCFD0346002BA2
:1045300023D1B86900F0E2F80346002B17D0BB691D
:1045400024333A681146184600F0C8FCB86900F0F8
:1045500083F800F0ADFA0346002B98D10F4B4FF0D3
:1045600080521A60BFF34F8FBFF36F8F8FE7B86928
:1045700000F072F800F09CFA89E7B86900F06CF876
:1045800000F096FAB86900F0B9F80346002B3FF442
:104590007EAF002318462037BD4680BD04ED00E005
:1045A00080B586B000AFF860B9607A6000233B61E7
:1045B000FB689B6B7B61FB681B6C002B43D07B68AB
:1045C000002B19D1FB685868FB681B6C1A46B96848
:1045D00000F08EFFFB685A68FB681B6C1A44FB688E
:1045E0005A60FB685A68FB689B689A422BD3FB6849
:1045F0001A68FB685A6026E0FB68D868FB681B6C89
:104600001A46B96800F074FFFB68DA68FB681B6C37
:104610005B421A44FB68DA60FB68DA68FB681B6877
:104620009A4207D2FB689A68FB681B6C5B421A448B
:10463000FB68DA607B68022B05D17B69002B02D016
:104640007B69013B7B617B695A1CFB689A633B6910
:1046500018461837BD4680BD80B584B000AF78607D
:10466000FFF71CFD7B6893F84530FB7311E07B6816
:104670005B6A002B12D07B682433184600F044FCA0
:104680000346002B01D000F067FDFB7B013BDBB252
:10469000FB7397F90F30002BE9DC00E000BF7B686B
:1046A000FF2283F84520FFF713FDFFF7F7FC7B6837
:1046B00093F84430BB7311E07B681B69002B12D068
:1046C0007B681033184600F01FFC0346002B01D016
:1046D00000F042FDBB7B013BDBB2BB7397F90E30B0
:1046E000002BE9DC00E000BF7B68FF2283F8442058
:1046F000FFF7EEFC00BF1037BD4680BD80B584B02B
:1047000000AF7860FFF7CAFC7B689B6B002B02D17F
:104710000123FB6001E00023FB60FFF7D9FCFB688D
:1047200018461037BD4680BD80B584B000AF7860B4
:10473000FFF7B4FC7B689A6B7B68DB6B9A4202D113
:104740000123FB6001E00023FB60FFF7C1FCFB6875
:1047500018461037BD4680BD80B58CB004AFF860F8
:10476000B9603B601346FB80FB889B001846FFF74F
:10477000D1F978617B69002B0ED04C20FFF7CAF984
:10478000F861FB69002B03D0FB697A691A6305E0C5
:104790007869FFF76DFA01E00023FB61FB69002BEC
:1047A00013D0FA8800230393FB690293FB6A0193F9
:1047B000BB6A00933B68B968F86800F00EF8F869C6
:1047C00000F084F80123BB6102E04FF0FF33BB61CE
:1047D000BB6918462037BD4680BD80B586B000AFA6
:1047E000F860B9607A603B60BB6A1A6B7B6803F162
:1047F0008043013B9B0013443B613B6923F007036B
:104800003B61BB68002B1FD000237B6112E0BA68BC
:104810007B6913441978BA6A7B69134434330A46B6
:104820001A70BA687B6913441B78002B06D07B6929
:1048300001337B617B690F2BE9D900E000BFBB6AC4
:10484000002283F8432003E0BB6A002283F834206F
:104850003B6A042B01D904233B62BB6A3A6ADA62E1
:10486000BB6A04331846FFF71CFBBB6A18331846B3
:10487000FFF717FBBB6ABA6A1A613B6AC3F105020C
:10488000BB6A9A61BB6ABA6A5A62BB6A4433042241
:104890000021184600F037FEBB6A48330122002190
:1048A000184600F030FE3A68F9683869FFF766FB91
:1048B0000246BB6A1A607B6A002B02D07B6ABA6A26
:1048C0001A6000BF1837BD4680BD000080B584B0B7
:1048D00000AF7860FFF7E2FB384B1B680133374AC3
:1048E0001360374B1B68002B09D1354A7B68136076
:1048F000324B1B68012B10D100F04CFC0DE0314B0A
:104900001B68002B09D12E4B1B68DA6A7B68DB6AB7
:104910009A4202D82A4A7B6813602B4B1B680133EA
:10492000294A13607B68DB6A01229A40274B1B6887
:104930001343264A13607B68DA6A254913469B00B5
:1049400013449B000B4404331B68FB607B68FA68CC
:104950009A60FB689A687B68DA60FB689B687A6893
:1049600004325A607B681A1DFB689A607B68DA6AB9
:1049700013469B0013449B00154A1A447B685A61F6
:104980007B68DA6A124913469B0013449B000B4470
:104990001B68591C0E4813469B0013449B0003449C
:1049A0001960FFF795FB074B1B68002B01D0044BE8
:1049B0001B6800BF1037BD4680BD00BF102200201D
:1049C000382100201C2200202C2200201822002048
:1049D0003C21002080B584B000AF78600023FB60EC
:1049E0007B68002B08D000F055F80021786800F0B3
:1049F00069FC00F05DF8F860FB68002B07D1064BFE
:104A00004FF080521A60BFF34F8FBFF36F8F00BF1C
:104A10001037BD4680BD00BF04ED00E080B584B016
:104A200002AF154B0193002300930023802213490A
:104A30001348FFF791FE78607B68012B15D14FF08A
:104A4000BF0383F31188BFF36F8FBFF34F8F3B60BA
:104A500000BF0C4B4FF0FF321A600B4B01221A6063
:104A60000A4B00221A60FFF7F9FA094B1B6800BFD6
:104A70000837BD4680BD00BF3422002080550008A5
:104A800071510008302200201C2200201422002036
:104A90005400002080B400AF044B1B680133034A6C
:104AA000136000BFBD4680BC704700BF38220020A5
:104AB00080B586B000AF00237B610023FB60FFF769
:104AC000EDFA624B1B68013B604A13605F4B1B6849
:104AD000002B40F0B4805E4B1B68002B00F0AF80D1
:104AE0008AE05C4BDB68DB687B617B699B6ABB604F
:104AF0007B69DB697A69126A9A607B691B6A7A69E9
:104B0000D2695A60BB685A687B6918339A4203D1EC
:104B10007B691A6ABB685A607B6900229A62BB682B
:104B20001B685A1EBB681A607B695B697B607B6986
:104B30009B687A69D2689A607B69DB687A69926857
:104B40005A607B685A687B6904339A4203D17B6957
:104B5000DA687B685A607B6900225A617B681B684F
:104B60005A1E7B681A607B69DB6A01229A403A4BC5
:104B70001B681343384A13607B69DA6A3749134666
:104B80009B0013449B000B4404331B683B607B6910
:104B90003A689A603B689A687B69DA603B689B6810
:104BA0007A6904325A607B691A1D3B689A607B6996
:104BB000DA6A13469B0013449B00284A1A447B6917
:104BC0005A617B69DA6A254913469B0013449B00AE
:104BD0000B441B68591C214813469B0013449B003F
:104BE000034419607B69DA6A1D4B1B68DB6A9A42D1
:104BF00002D31C4B01221A60164B1B68002B7FF45A
:104C000070AF7B69002B01D000F042FB164B1B6894
:104C10003B613B69002B10D000F036F80346002BB7
:104C200002D0104B01221A603B69013B3B613B699A
:104C3000002BF1D10C4B00221A600A4B1B68FFF7C6
:104C400047FAFB6818461837BD4680BD3822002059
:104C500010220020D0210020182200203C2100201A
:104C600038210020242200202022002080B483B09C
:104C700000AF044B1B687B607B6818460C37BD4651
:104C800080BC70471422002080B588B000AF00239C
:104C9000FB61664B1B68002B40F0BD80644B1B68BA
:104CA0000133BB61624ABB691360BB69002B10D141
:104CB000604B1B687B61604B1B685E4A13605E4AF9
:104CC0007B6913605D4B1B6801335C4A136000F025
:104CD000DFFA5B4B1B68BA699A42C0F0A180554B62
:104CE0001B681B68002B04D1554B4FF0FF321A6034
:104CF00096E0504B1B68DB68DB683B613B695B6897
:104D0000FB60BA69FB689A4203D24D4AFB681360A4
:104D100086E03B695B69BB603B699B683A69D26826
:104D20009A603B69DB683A6992685A60BB685A6866
:104D30003B6904339A4203D13B69DA68BB685A6025
:104D40003B6900225A61BB681B685A1EBB681A6027
:104D50003B699B6A002B1ED03B699B6A7B603B6969
:104D6000DB693A69126A9A603B691B6A3A69D269DF
:104D70005A607B685A683B6918339A4203D13B6991
:104D80001A6A7B685A603B6900229A627B681B68DA
:104D90005A1E7B681A603B69DB6A01229A40294BE4
:104DA0001B681343274A13603B69DA6A2649134696
:104DB0009B0013449B000B4404331B683B603B691E
:104DC0003A689A603B689A683B69DA603B689B681E
:104DD0003A6904325A603B691A1D3B689A603B6924
:104DE000DA6A13469B0013449B00174A1A443B6936
:104DF0005A613B69DA6A144913469B0013449B00CD
:104E00000B441B68591C104813469B0013449B001D
:104E10000344196063E70D4B1B6801330B4A1360B1
:104E2000FB6918462037BD4680BD00BF38220020F0
:104E300014220020C8210020CC210020282200209C
:104E400030220020182200203C21002020220020B7
:104E500080B485B000AF1C4B1B68002B03D01B4BEC
:104E600001221A602AE0194B00221A60184B1B68B5
:104E70007B607B68B3FA83F3FB70FB78C3F11F039D
:104E8000FB60FA6813469B0013449B00114A1344CD
:104E9000BB60BB685B685A68BB685A60BB685A688D
:104EA000BB6808339A4204D1BB685B685A68BB6828
:104EB0005A60BB685B68DB68074A136000BF143741
:104EC000BD4680BC704700BF38220020242200204D
:104ED000182200203C2100203821002080B582B01B
:104EE00000AF78603960074B1B6818331946786843
:104EF000FEF7E3FF0121386800F0E4F900BF08374E
:104F0000BD4680BD3821002080B489B000AF7860F4
:104F10007B68DB68DB68BB61BB699B6A7B61BB69E3
:104F2000DB69BA69126A9A60BB691B6ABA69D2699D
:104F30005A607B695A68BB6918339A4203D1BB69CE
:104F40001A6A7B695A60BB6900229A627B691B6896
:104F50005A1E7B691A604A4B1B68002B5ED1BB69E5
:104F60005B69FB60BB699B68BA69D2689A60BB6980
:104F7000DB68BA6992685A60FB685A68BB69043397
:104F80009A4203D1BB69DA68FB685A60BB690022A8
:104F90005A61FB681B685A1EFB681A60BB69DB6AB2
:104FA00001229A40374B1B681343364A1360BB6992
:104FB000DA6A354913469B0013449B000B440433C3
:104FC0001B68BB60BB69BA689A60BB689A68BB69BA
:104FD000DA60BB689B68BA6904325A60BB691A1D03
:104FE000BB689A60BB69DA6A13469B0013449B0056
:104FF000254A1A44BB695A61BB69DA6A22491346D9
:105000009B0013449B000B441B68591C1E4813460D
:105010009B0013449B00034419601BE01B4B5B681F
:105020003B61BB693A69DA613B699A68BB691A629C
:105030003B699B68BA6918325A60BB6903F1180270
:105040003B699A60BB69114A9A62104B1B68013335
:105050000E4A1360BB69DA6A0D4B1B68DB6A9A4221
:1050600005D90123FB610B4B01221A6001E00023EB
:10507000FB61FB6918462437BD4680BC704700BF02
:1050800038220020182200203C210020D0210020BE
:10509000382100202422002080B483B000AF786043
:1050A000064B1A687B681A60054B1A687B685A6061
:1050B00000BF0C37BD4680BC704700BF28220020CF
:1050C0001422002080B586B000AF78603960FEF70A
:1050D000E5FF1F4B1B683B617B685B683A69D31A2D
:1050E000FB603B681B68B3F1FF3F02D100237B618B
:1050F00026E07B681A68174B1B689A420AD07B68C7
:105100005B683A699A4205D301237B613B680022C0
:105110001A6015E03B681B68FA689A420BD23B683C
:105120001A68FB68D21A3B681A607868FFF7B4FF08
:1051300000237B6104E03B6800221A6001237B614D
:10514000FEF7C6FF7B6918461837BD4680BD00BF15
:10515000142200202822002080B400AF034B01223B
:105160001A6000BFBD4680BC704700BF24220020EB
:1051700080B582B000AF786000F04CF8044B4FF07F
:1051800080521A60BFF34F8FBFF36F8FF4E700BFF9
:1051900004ED00E080B582B000AF00237B600CE03E
:1051A0007A6813469B0013449B00124A1344184626
:1051B000FEF758FE7B6801337B607B68042BEFD9D8
:1051C0000D48FEF74FFE0D48FEF74CFE0C48FEF76B
:1051D00049FE0C48FEF746FE0B48FEF743FE0B4B1C
:1051E000054A1A600A4B054A1A6000BF0837BD46D7
:1051F00080BD00BF3C210020A0210020B421002060
:10520000D0210020E4210020FC210020C821002022
:10521000CC21002080B582B000AF19E0FEF73EFF40
:10522000104BDB68DB687B607B6804331846FEF755
:105230007CFE0D4B1B68013B0B4A13600B4B1B683C
:10524000013B0A4A1360FEF743FF786800F010F84C
:10525000064B1B68002BE1D100BF00BF0837BD46DD
:1052600080BD00BFE421002010220020F821002092
:1052700080B582B000AF78607B681B6B1846FEF784
:10528000F7FC7868FEF7F4FC00BF0837BD4680BD28
:1052900080B400AF094B1B681B68002B04D1084B7E
:1052A0004FF0FF321A6005E0044B1B68DB681B6897
:1052B000034A136000BFBD4680BC7047C821002070
:1052C0003022002080B586B000AF78603960364B60
:1052D0001B687B61354B1B6804331846FEF725FEBF
:1052E0000346002B0BD1314B1B68DB6A012202FA0B
:1052F00003F3DA432E4B1B6813402D4A13607B687F
:10530000B3F1FF3F24D13B68002B21D0294B5B68D0
:105310003B61264B1B683A699A60244B1B683A69CB
:105320009268DA60214B1A683B699B6804325A60C4
:105330001E4B1B681A1D3B699A601C4B1B681D4A5B
:105340005A611C4B1B6801331A4A136000BF26E0E8
:105350007A697B681344FB60144B1B68FA685A60D7
:10536000FA687B699A4209D2134B1A680F4B1B6883
:10537000043319461046FEF7A0FD10E00F4B1A68E3
:105380000A4B1B68043319461046FEF796FD0C4B7A
:105390001B68FA689A4202D2094AFB68136000BF90
:1053A0001837BD4680BD00BF1422002038210020E0
:1053B00018220020FC210020CC210020C821002040
:1053C0003022002080B500AF0348FCF783FCFBF7D8
:1053D0005DFDFFF723FBFEE7DD53000880B586B0D7
:1053E00000AFF860B9601346FB710023FB7509E05C
:1053F000FB7DBA681A44FB7D1178114AD154FB7DBC
:105400000133FB75FB681B78FA7D9A42F0D30C4B95
:105410001A780C4B1A700A4B5A780B4B1A70084BBF
:105420009A780A4B1A70064BD3F803301A46084B89
:105430001A60FCF73DFB00BF1837BD4680BD00BFBA
:105440003C22002044220020452200204622002049
:10545000482200200D488546AFF300800C480D49D6
:105460000D4A002302E0D458C4500433C4188C42BF
:10547000F9D30A4A0A4C002301E013600432A24225
:10548000FBD300F011F8FFF79DFFFEE7005000206E
:10549000000000205C000020AC55000860000020E7
:1054A00054220020FEE7000070B500250C4E0D4C84
:1054B000A41BA410A54209D100F02EF800250A4E25
:1054C0000A4CA41BA410A54205D170BD56F8253086
:1054D00098470135EEE756F8253098470135F2E751
:1054E000A4550008A4550008A4550008A8550008B4
:1054F00010B5431E0A44914200D110BD11F8014B72
:1055000003F8014FF7E703460244934200D1704786
:1055100003F8011BF9E70000F8B500BFF8BC08BCB0
:105520009E467047F8B500BFF8BC08BC9E46704761
:105530004C4D33355F5441534B0000004D4F5645A1
:105540005F4341525F5441534B0000004D697272FA
:105550006F725F5461736B00000004000000000074
:1055600080000700010001000100010101000000AE
:1055700003001C0007000001000000000000000004
:1055800049444C450000000000080140000C014067
:10559000001001400014014000180140001C0140AF
:0455A00000200140A6
:0455A40055010008A5
:0455A80031010008C5
:1055AC000A01010101010000A086010008000000B1
:1055BC000000000099000000000000000000000046
:1055CC0000E100E004E100E008E100E00CE100E0B3
:1055DC0010E100E014E100E018E100E01CE100E063
:1055EC000000803F0038014000440040004800406B
:0C55FC00AAAAAAAA0400000002010000F4
:040000050800545546
:00000001FF
