:100000000C942A000C9447000C9447000C94470071
:100010000C9447000C9447000C9447000C94470044
:100020000C9447000C9447000C9447000C94470034
:100030000C9447000C94D3000C94AC000C94470033
:100040000C9447000C9447000C9447000C94470014
:100050000C94470011241FBECFE5D8E0DEBFCDBF12
:1000600010E0A0E6B0E0E8EFF1E002C005900D92EC
:10007000A036B107D9F720E0A0E6B0E001C01D929C
:10008000A436B207E1F70E9477000C94FA000C94B2
:100090000000CF93DF93D5E025C08D2F0E94930001
:1000A0009BB39F709BBB2BB330E1839FC001112496
:1000B000822B8BBBC0E013C08C2F0E9493009BB39C
:1000C000907F9BBB9BB3892B8BBB8FEF99E628E17D
:1000D000815090402040E1F700C00000CF5FCA305F
:1000E00058F3DF5FDA30C8F2DF91CF9108950E94B4
:1000F00080008FEF8ABB0E94490080E090E0089565
:1001000087B3806487BB8EB180628EB98DB1877FE3
:100110008DB98DB18B7F8DB98DB18F7E8DB98DB13C
:1001200080648DB908956C9B03C098B39F7E98BB83
:100130006C9902C0C499FECFEFE3FCE93197F1F767
:1001400000C000008FB9779BFECF6C9B03C088B3C3
:10015000806188BB8FB108951F920F920FB60F92E6
:1001600011242F933F934F935F936F937F938F93BC
:100170009F93AF93BF93EF93FF93E0916200F09151
:1001800063000995FF91EF91BF91AF919F918F917E
:100190007F916F915F914F913F912F910F900FBE83
:1001A0000F901F9018951F920F920FB60F92112467
:1001B0002F933F934F935F936F937F938F939F936F
:1001C000AF93BF93EF93FF93E0916000F0916100D4
:1001D0000995FF91EF91BF91AF919F918F917F9181
:1001E0006F915F914F913F912F910F900FBE0F90A4
:0801F0001F901895F894FFCF51
:00000001FF
