:020000040800F2
:10000000002800202110000871100008711000085D
:100010007110000871100008711000080000000045
:100020000000000000000000000000007110000847
:100030007110000800000000711000087110000825
:10004000711000087110000871100008711000088C
:100050007110000871100008710100089501000876
:10006000B9010008DD010008010200087110000854
:10007000711000087110000871100008711000085C
:10008000711000087110000871100008711000084C
:100090007110000871100008711000082502000896
:1000A000711000087110000871100008711000082C
:1000B000711000087110000871100008711000081C
:1000C000711000087110000871100008B1090008D3
:1000D000090A0008B50E0008C90E0008DD0E000868
:1000E000CD02000871100008000000007110000827
:1000F00071100008711000087110000871100008DC
:1001000071100008711000087110000871100008CB
:1001100071100008711000087110000871100008BB
:1001200071100008711000087110000871100008AB
:1001300010B5054C237833B9044B13B10448AFF321
:1001400000800123237010BD00000020000000008B
:10015000BC10000808B5034B1BB103490348AFF3BB
:10016000008008BD0000000004000020BC10000852
:1001700080B500AF054B5B69044A43F0010353614E
:10018000034B1B68984700BF80BD00BF00040140BF
:100190001C00002080B500AF054B5B69044A43F0AA
:1001A00002035361034B5B68984700BF80BD00BFEB
:1001B000000401401C00002080B500AF054B5B69C6
:1001C000044A43F004035361034B9B68984700BF04
:1001D00080BD00BF000401401C00002080B500AFBE
:1001E000054B5B69044A43F008035361034BDB682A
:1001F000984700BF80BD00BF000401401C000020E4
:1002000080B500AF054B5B69044A43F010035361AE
:10021000034B1B69984700BF80BD00BF000401402D
:100220001C00002080B500AF264B5B6903F0200363
:10023000002B08D0234B5B69224A43F02003536113
:10024000214B5B6998471F4B5B6903F04003002B10
:1002500008D01C4B5B691B4A43F0400353611A4BA7
:100260009B699847174B5B6903F08003002B08D00C
:10027000144B5B69134A43F080035361124BDB69F3
:100280009847104B5B6903F48073002B08D00D4B2B
:100290005B690C4A43F4807353610B4B1B6A9847AC
:1002A000084B5B6903F40073002B08D0054B5B69B6
:1002B000044A43F400735361034B5B6A984700BFE1
:1002C00080BD00BF000401401C00002080B500AFCD
:1002D0002D4B5B6903F48063002B08D02A4B5B69CC
:1002E000294A43F480635361284B9B6A9847264B05
:1002F0005B6903F40063002B08D0234B5B69224A3F
:1003000043F400635361214BDB6A98471E4B5B69E2
:1003100003F48053002B08D01B4B5B691A4A43F44B
:1003200080535361194B1B6B9847174B5B6903F460
:100330000053002B08D0144B5B69134A43F400535D
:100340005361124B5B6B98470F4B5B6903F480431F
:10035000002B08D00C4B5B690B4A43F4804353617C
:100360000A4B9B6B9847084B5B6903F40043002BD7
:1003700008D0054B5B69044A43F400435361034BC7
:10038000DB6B984700BF80BD000401401C000020CB
:1003900080B483B000AF0346FB80FB88802B42D043
:1003A000802B11DC082B36D0082B06DC022B2ED03C
:1003B000042B2ED0012B28D037E0202B2FD0402B20
:1003C0002FD0102B29D030E0B3F5006F23D0B3F538
:1003D000006F09DCB3F5007F19D0B3F5806F18D03A
:1003E000B3F5807F11D020E0B3F5005F17D0B3F5EF
:1003F000005F03DCB3F5805F0FD016E0B3F5804FEC
:100400000FD0B3F5004F0ED00FE000230EE0042311
:100410000CE008230AE00C2308E0102306E0142374
:1004200004E0182302E01C2300E0002318460C37E8
:10043000BD4680BC7047000080B586B000AF7860D4
:10044000396000233B613B681B88FF2B01D87B6828
:1004500001E07B6804333B613B681B881846FFF76B
:1004600097FF0346FB733B691B68FA7B0F2101FA78
:1004700002F2D2431A403B691A603B689B78082B12
:100480003DD801A252F823F0AD040008AD040008E5
:10049000B7040008CB040008E7040008E7040008DC
:1004A000E7040008E7040008E10400083B689B78C3
:1004B0009B00FB7523E00823FB757B68DB683A68CB
:1004C00012881A437B68DA6019E00823FB757B68A1
:1004D000DB683A681288D2431A407B68DA600EE023
:1004E0000423FB750BE03B68DB785AB23B689B78D2
:1004F000043B9B005BB213435BB2FB7500BF3B69DF
:100500001B68F97DFA7B01FA02F21A433B691A6013
:1005100000BF1837BD4680BD80B483B000AF78609F
:100520000B467B8013467B707B78002B09D0012B18
:1005300000D00EE07B68DA687B881A437B68DA605B
:1005400007E07B68DB687A88D2431A407B68DA6010
:1005500000BF00BF0C37BD4680BC704780B400AF01
:100560000A4B5B689B0803F00303012B06D0012BA9
:1005700002D3022B04D005E0054B03E0054B01E05C
:10058000044BFFE71846BD4680BC70470010024090
:1005900000127A000024F40080B500AFFFF7DEFF00
:1005A0000146054B5B681B0903F00F03034AD35C4C
:1005B00021FA03F3184680BD00100240DC10000849
:1005C00080B500AFFFF7E8FF0146054B5B681B0AEB
:1005D00003F00703034AD35C21FA03F3184680BDF6
:1005E00000100240D410000880B500AFFFF7D4FF20
:1005F0000146054B5B68DB0A03F00703034AD35C43
:1006000021FA03F3184680BD00100240D410000800
:10061000B0B485B000AF786039600023FB8100235F
:10062000BB817B68424A934210D1424A3B681446E0
:100630001D460FCD0FC495E8030084E803003E4B30
:100640009B693D4A43F48053936114E07B683B4AC5
:10065000934210D1374B3A6803F1180415460FCD79
:100660000FC495E8030084E80300334BDB69324A8A
:1006700043F48043D3614023FB813B681A88FB89A4
:100680001343FB813B685A88FB891343FB813B681A
:100690009A88FB891343FB813B68DA88FB89134303
:1006A000FB813B681A89FB891343FB813B685A89AC
:1006B000FB891343FB813B689B89042B05D13B6875
:1006C0009A89BB891343BB8104E03B689A89FB8903
:1006D0001343FB813B68DA89FB891343FB813B6849
:1006E0001B8A002B19D03B681A8ABB891343BB8134
:1006F0007B680F4A934206D1114B1B68104A43F0A6
:100700000803136009E07B680C4A934205D10C4B47
:100710001B680B4A43F010031360FA897B681A6068
:10072000BA897B685A6000BF1437BD46B0BC7047B9
:1007300000300140600000200010024000380040FE
:1007400004E100E080B584B000AF78607B687E4A49
:10075000934274D17D4B1B88042B41D17B4B9B89E9
:10076000042B0DD013F1050F17D11023BB810123EA
:10077000BB7307F10C0319467548FFF75DFE0CE0EB
:100780001023BB810623BB730123FB7307F10C030A
:1007900019466F48FFF750FE00BF2023BB81062398
:1007A000BB730123FB7307F10C0319466848FFF77D
:1007B00043FE4023BB810123BB7307F10C031946A1
:1007C0006348FFF739FE8023BB810623BB730123F7
:1007D000FB7307F10C0319465D48FFF72DFEAFE0F0
:1007E0005A4B9B89002B09D11023BB810123BB737A
:1007F00007F10C0319465648FFF71EFE2023BB8164
:100800000123BB7307F10C0319465148FFF714FE8F
:100810004023BB810623BB730123FB7307F10C0349
:1008200019464B48FFF708FE8023BB810123BB73A9
:1008300007F10C0319464648FFF7FEFD80E07B6890
:10084000444A93427CD1414B1B8B042B46D13F4BF6
:100850009B8C042B0ED013F1050F19D14FF480534C
:10086000BB810123BB7307F10C0319463A48FFF71C
:10087000E3FD0DE04FF48053BB810623BB730123DE
:10088000FB7307F10C0319463348FFF7D5FD00BF92
:100890004FF40053BB810623BB730123FB7307F1A5
:1008A0000C0319462C48FFF7C7FD4FF48043BB816A
:1008B0000123BB7307F10C0319462748FFF7BCFD62
:1008C0004FF40043BB810623BB730123FB7307F185
:1008D0000C0319462048FFF7AFFD31E01B4B9B8C02
:1008E000002B0AD14FF48053BB810123BB7307F166
:1008F0000C0319461848FFF79FFD4FF40053BB81C6
:100900000123BB7307F10C0319461348FFF794FD4D
:100910004FF48043BB810623BB730123FB7307F1B4
:100920000C0319460C48FFF787FD4FF40043BB81C9
:100930000123BB7307F10C0319460748FFF77CFD41
:1009400000BF1037BD4680BD003001406000002070
:100950000008014000380040000C014080B485B020
:1009600000AFF860B9601346FB71FB79002B06D12C
:1009700000BFFB689B6803F00203002BF9D0BB6843
:100980001B881A46FB68DA60FB79002B06D100BF92
:10099000FB689B6803F00103002BF9D0FB68DB6860
:1009A0009AB2BB681A8000BF1437BD4680BC70473E
:1009B00080B582B000AF124B9B685B0803F0010367
:1009C000DAB23B7962F300033B710D4B9B6803F095
:1009D0000103DAB23B7962F341033B71084B9B6838
:1009E0001B0903F00103DAB23B7962F382033B7126
:1009F000044B5B693879984700BF0837BD4680BD16
:100A0000003001406000002080B582B000AF124B82
:100A10009B685B0803F00103DAB23B7962F30003E1
:100A20003B710D4B9B6803F00103DAB23B7962F333
:100A300041033B71084B9B681B0903F00103DAB2C9
:100A40003B7962F382033B71044BDB6A3879984748
:100A500000BF0837BD4680BD003800406000002060
:100A600080B584B000AF78603960574A3B68136046
:100A70007B68564A934206D1554B9B69544A43F4CE
:100A80008043936114E07B68524A934206D1504BF5
:100A9000DB694F4A43F40033D36109E07B684E4A77
:100AA000934205D14A4BDB69494A43F48023D36121
:100AB0007B68DB6843F400527B68DA607B68DB6844
:100AC0003A6812781A437B68DA607B68DB683A68B8
:100AD00012891A437B68DA607B68DB683A6852895E
:100AE0001A437B68DA607B681B693A6892891A430B
:100AF0007B681A617B685B693A68D2891A437B68B4
:100B00005A617B68314A934203D1FFF76DFDF8606B
:100B100002E0FFF755FDF8603B685B681B01FA686F
:100B2000B2FBF3F31901FA6813469B0013449A00D1
:100B30001A443B685B689B00B2FBF3F23B685B685E
:100B40001B01F868B0FBF3F3642000FB03F3D31A36
:100B50001B01224AA2FB03235B0903F00F030B4393
:100B6000BB607B68BA689A603B681B8A002B26D002
:100B70007B68DB683A68128A1A437B68DA607B68B4
:100B8000124A934206D1164B1B68154A43F02003C4
:100B9000136014E07B680F4A934206D1104B1B6828
:100BA0000F4A43F04003136009E07B680A4A93420E
:100BB00005D10B4B1B680A4A43F08003136000BF4A
:100BC0001037BD4680BD00BF5C00002000380140EA
:100BD0000010024000440040004800401F85EB51D7
:100BE00004E100E080B485B000AFF860B96013465E
:100BF000FB71FB79002B06D100BFFB681B6803F07B
:100C00008003002BF9D00B4B1B681B89B3F5805F69
:100C100006D1BB681B88C3F30802FB685A6004E076
:100C2000BB681B88DAB2FB685A6000BF1437BD4648
:100C300080BC70475C00002080B485B000AFF860D5
:100C4000B9601346FB71FB79002B06D100BFFB682E
:100C50001B6803F02003002BF9D01B4B1B685B893A
:100C6000002B16D0184B1B681B89B3F5805F07D18A
:100C7000FB685B689BB2DBB29AB2BB681A801EE06D
:100C8000FB685B689BB203F07F039AB2BB681A8073
:100C900015E00D4B1B681B89B3F5805F08D1FB681D
:100CA0005B689BB2C3F308039AB2BB681A8006E084
:100CB000FB685B689BB2DBB29AB2BB681A8000BF6C
:100CC0001437BD4680BC70475C00002080B584B0FE
:100CD00000AF78607B68714A934247D14FF400734C
:100CE000BB810623BB730123FB7307F10C03194679
:100CF0006B48FFF7A1FB4FF48063BB810823BB73F4
:100D000007F10C0319466648FFF796FB654B1B6815
:100D1000DB89B3F5007F05D0624B1B68DB89B3F537
:100D2000407F0AD14FF40063BB810123BB7307F1FD
:100D30000C0319465A48FFF77FFB5A4B1B68DB89A7
:100D4000B3F5807F05D0574B1B68DB89B3F5407F37
:100D50000CD14FF48053BB810623BB730123FB737B
:100D600007F10C0319464E48FFF766FB7B684E4AB5
:100D7000934243D10423BB810623BB730123FB733E
:100D800007F10C0319464648FFF756FB0823BB81C1
:100D90000823BB7307F10C0319464148FFF74CFBCE
:100DA000404B1B68DB89B3F5007F05D03D4B1B68CA
:100DB000DB89B3F5407F09D10123BB810123BB73DC
:100DC00007F10C0319463648FFF736FB354B1B6815
:100DD000DB89B3F5807F05D0324B1B68DB89B3F527
:100DE000407F0BD10223BB810623BB730123FB731E
:100DF00007F10C0319462A48FFF71EFB7B682B4AB4
:100E0000934247D14FF48063BB810623BB73012318
:100E1000FB7307F10C0319462548FFF70DFB4FF450
:100E20000063BB810823BB7307F10C0319462048FC
:100E3000FFF702FB1B4B1B68DB89B3F5007F05D076
:100E4000184B1B68DB89B3F5407F0AD14FF4005380
:100E5000BB810123BB7307F10C0319461448FFF74C
:100E6000EBFA104B1B68DB89B3F5807F05D00D4B87
:100E70001B68DB89B3F5407F0CD14FF48043BB8105
:100E80000623BB730123FB7307F10C0319460848C3
:100E9000FFF7D2FA00BF1037BD4680BD00380140D1
:100EA000000801405C000020004400400048004071
:100EB000000C014080B500AF024B1B685B6998478E
:100EC00000BF80BD5C00002080B500AF024B1B68F6
:100ED0005B69984700BF80BD5C00002080B500AF13
:100EE000024B1B685B69984700BF80BD5C00002017
:100EF00080B400AF0A4B9B69094A43F00403936135
:100F0000074B9B69064A43F008039361044B9B69B6
:100F1000034A43F00103936100BFBD4680BC7047A4
:100F20000010024080B500AF01220D490D48FFF7C7
:100F300083FE00220A490B48FFF754FE00221021CD
:100F40000948FFF7E9FA002205490848FFF706FDBE
:100F5000012210210448FFF7DFFA00BF80BD00BF67
:100F6000900000200038014000080140003001409E
:100F700080B58EB000AFFFF7BBFF4FF4E1337B626B
:100F80000023FB8520233B86214B7B6300237B854D
:100F900000233B850023BB850C2387F8203007F115
:100FA000200319461B48FFF75BFD1A48FFF78EFE2A
:100FB00001237B8202233B820023FB810023BB8130
:100FC0001023FB8200237B8104233B8100233B838E
:100FD0004FF44073BB820023FB6107F108031946FD
:100FE0000D48FFF715FB0C48FFF7ACFB1023BB8047
:100FF0000423BB710123FB713B1D19460748FFF712
:101000001BFA012210210548FFF786FAFEE700BF10
:10101000250F000800380140003001400008014061
:101020000D488546AFF300800C480D490D4A00235A
:1010300002E0D458C4500433C4188C42F9D30A4A8D
:101040000A4C002301E013600432A242FBD300F0FB
:1010500011F8FFF78DFFFEE70028002000000020B8
:1010600000000020F4100008000000209400002080
:10107000FEE7000070B500250C4E0D4CA41BA4101B
:10108000A54209D100F01AF800250A4E0A4CA41B0B
:10109000A410A54205D170BD56F8253098470135FA
:1010A000EEE756F8253098470135F2E7EC100008D6
:1010B000EC100008EC100008F0100008F8B500BFB4
:1010C000F8BC08BC9E467047F8B500BFF8BC08BC29
:0410D0009E46704781
:1010D4000000000001020304000000000000000002
:0810E4000102030405060708E0
:0410EC0055010008A2
:0410F00031010008C2
:0400000508001021BE
:00000001FF
