S01C00004156525F41546D65676133325F447269766572732E73726563EE
S11300000C942A000C9447000C9447000C9447006D
S11300100C9447000C9447000C9447000C94D101B5
S11300200C9447000C9447000C9447000C94470030
S11300300C9447000C9447000C9447000C94470020
S11300400C9447000C9447000C9447000C94470010
S11300500C94470011241FBECFE5D8E0DEBFCDBF0E
S113006011E0A0E6B0E0EEEDF7E202C005900D92DB
S1130070A633B107D9F727E0A6E3B1E001C01D928A
S1130080A638B207E1F70E94350D0C94ED130C94D9
S11300900000FC010396928381832FEF3FEF3483AA
S11300A02383968385839087878310820895FC0138
S11300B0118610860895CF93DF939C01FB01DC0128
S11300C01196CD91DC911297D383C2838C819D814B
S11300D0958384838C819D81DC0113967C936E933C
S11300E012977D836C8331872087F90180818F5F2C
S11300F08083DF91CF910895CF93DF93EB01488103
S113010059814F3F2FEF520721F4FC01A781B0859D
S11301100DC0DC01139601C0DF011296ED91FC9134
S113012013972081318142175307B0F71296ED914E
S1130130FC911397FB83EA83D583C483BD83AC838B
S11301401396DC93CE93129799878887FC012081BC
S11301502F5F2083DF91CF910895CF93DF93FC012C
S1130160A085B185C281D381848195819D838C834F
S1130170C481D581828193819B838A8311968D91D9
S11301809C911297E817F90731F4848195811296AE
S11301909C938E931197118610868C9181508C9329
S11301A08C91DF91CF9108951BBC8CE78ABD8BE0C5
S11301B08EBD89B7806189BF089531E1FC01308328
S11301C0319722E220833197A3E3A08331976083A0
S11301D03197708331971082319760E8608331974B
S11301E01082319762E06083319763E060833197D6
S11301F064E06083319765E06083319766E06083F3
S1130200319767E06083319768E06083319769E0F4
S11302106083319760E1608331973083319732E1B5
S11302203083319733E13083319734E13083319730
S113023035E13083319736E13083319737E13083CC
S1130240319738E13083319739E13083319730E2A7
S11302503083319731E2308331972083319723E221
S113026020833197408331975083319726E220834E
S1130270319727E22083319728E22083319729E2BE
S11302802083319720E32083319721E320838697CD
S113029008950E94D400A0917207B0917307CD9184
S11302A0CDBFDD91DEBFFF91EF91DF91CF91BF9183
S11302B0AF919F918F917F916F915F914F913F91FA
S11302C02F911F910F91FF90EF90DF90CF90BF90EF
S11302D0AF909F908F907F906F905F904F903F90E2
S11302E02F901F900F900FBE0F90089581E00895F6
S11302F00F920FB6F8940F921F9211242F923F92EF
S11303004F925F926F927F928F929F92AF92BF9221
S1130310CF92DF92EF92FF920F931F932F933F930D
S11303204F935F936F937F938F939F93AF93BF93F9
S1130330CF93DF93EF93FF93A0917207B09173076C
S11303400DB60D920EB60D920E94D409A0917207BB
S1130350B0917307CD91CDBFDD91DEBFFF91EF91D9
S1130360DF91CF91BF91AF919F918F917F916F91C9
S11303705F914F913F912F911F910F91FF90EF90BB
S1130380DF90CF90BF90AF909F908F907F906F90B1
S11303905F904F903F902F901F900F900FBE0F9043
S11303A008951F920F920FB60F9211242F933F932B
S11303B04F935F936F937F938F939F93AF93BF9369
S11303C0EF93FF930E94C007FF91EF91BF91AF910C
S11303D09F918F917F916F915F914F913F912F9159
S11303E00F900FBE0F901F901895CF93DF93EC01E1
S11303F00E94B0078091360190913701892B31F426
S11304008AE391E090933701809336012097C9F0F5
S113041080913801909139019E01280F391F2B3D9D
S113042045E0340788F48217930788F4C0913601B5
S1130430D0913701C80FD91F309339012093380167
S113044008C0C0E0D0E005C0C0E0D0E002C0C0E019
S1130450D0E00E94AF08CE01DF91CF9108950895B6
S11304600FB6F8940F92FC01828D811102C081E0D5
S113047001C080E00F900FBE08950FB6F8940F925C
S1130480FC01228D838D281302C081E001C080E02D
S11304900F900FBE08950F931F93CF93DF93EC013A
S11304A0042F1A8D4C8D4423B9F1011116C050E06C
S11304B08A819B810E94E4132C8D8A819B81820F07
S11304C0911D9B838A832C813D818217930720F1A0
S11304D0888199819B838A831FC050E08E819F818C
S11304E00E94E4138C8D90E09195819591092E8161
S11304F03F81280F391F3F832E8348815981241758
S1130500350730F42C813D81820F931F9F838E83A6
S1130510023011F4111111501F5F1A8F80E0DF9126
S1130520CF911F910F910895FC01448D4423A9F0AC
S113053050E026813781240F351F37832683848139
S113054095812817390720F08081918197838683CC
S1130550CB01668177810E94E41308951F93CF93A2
S1130560DF93EC010FB6F8940F921E8D0BC08989AE
S1130570882351F0CE0141960E943A0A81110E94CB
S1130580340B115011169CF38FEF8E8F0F900FBE0A
S11305900FB6F8940F921D8D0BC08885882351F0F7
S11305A0CE0108960E943A0A81110E94340B115020
S11305B011169CF38FEF8D8F0F900FBEDF91CF91AB
S11305C01F9108950F931F93CF93DF93FC01362F50
S11305D0892B09F449C0238D222309F447C0022F33
S11305E010E08FEF9FEFB8010E946813448D842FB1
S11305F090E06817790708F43BC0EF010FB6F89450
S11306000F9260817181FB01249FE00DF11D112483
S1130610FD83EC831A8E7B836A8301501109809FCA
S1130620A001819F500D909F500D1124CB01840F88
S1130630951F9F838E838FEF8D8F8E8F311108C00E
S11306408885882369F0CE0108960E943A0A08C07A
S1130650CE0108960E944900CE0141960E944900AD
S11306600F900FBE81E005C080E003C080E001C0B0
S113067080E0DF91CF911F910F9108950F931F9305
S1130680F801611103C01183008302C051834083C8
S1130690838F648F61E0CF010E94E2021F910F916A
S11306A00895DF92EF92FF920F931F93CF93DF93FE
S11306B0382FE62F882329F1682F70E08FEF9FEF02
S11306C00E9468138E2F90E068177907E8F03E9F28
S11306D0C0011124813E2FEF9207C8F4D42EDE2FDF
S11306E0C32F4F960E94F5017C01009791F08C0175
S11306F02D2DAC01415E5F4F6D2F8C2F0E943E0368
S113070008C0E12CF12C05C0E12CF12C02C0E12C35
S1130710F12CC701DF91CF911F910F91FF90EF90C2
S1130720DF900895CF92DF92EF92FF920F931F9381
S1130730CF93DF9300D000D01F92CDB7DEB78C01EA
S11307407B015D834C83C22ED12C0FB6F8940F929B
S1130750F801928D838D981718F0F2E0CF1211C032
S11307604C2DB701C8010E944B02F80181898823EE
S113077021F0C80141960E943A0A0F900FBE81E011
S11307804DC08C819D81892B21F40F900FBE80E098
S113079045C0D11006C0CE0101960E94F70ADD249F
S11307A0D3940F900FBE0E94B0070FB6F8940F9227
S11307B0F801858D8F3F09F4158EF801868D8F3FE2
S11307C009F4168E0F900FBEBE016C5F7F4FCE01F1
S11307D001960E94020B81111BC0C8010E943D02B8
S11307E0882381F06C817D81C80108960E94280AC3
S11307F0C8010E94AE020E94AF088111A6CF0E94D8
S11308007801A3CFC8010E94AE020E94AF089DCF19
S1130810C8010E94AE020E94AF0880E00F900F90C2
S11308200F900F900F90DF91CF911F910F91FF9038
S1130830EF90DF90CF900895CF92DF92EF92FF92E6
S11308400F931F93CF93DF9300D000D01F92CDB7A7
S1130850DEB78C016B015D834C83E12C0FB6F894F9
S11308600F92F801F28CFF2091F0B601C8010E94AA
S11308709402FA94F801F28E8085882321F0C8014D
S113088008960E943A0A0F900FBE81E053C08C81F3
S11308909D81892B21F40F900FBE80E04BC0E110A5
S11308A006C0CE0101960E94F70AEE24E3940F904D
S11308B00FBE0E94B0070FB6F8940F92F801858D11
S11308C08F3F09F4158EF801868D8F3F09F4168E3B
S11308D00F900FBEBE016C5F7F4FCE0101960E9448
S11308E0020B81111BC0C8010E943002882381F0D1
S11308F06C817D81C80141960E94280AC8010E942A
S1130900AE020E94AF088111A9CF0E947801A6CF40
S1130910C8010E94AE020E94AF08A0CFC8010E9485
S1130920AE020E94AF08C8010E943002882309F475
S113093095CF80E00F900F900F900F900F90DF9164
S1130940CF911F910F91FF90EF90DF90CF9008957A
S1130950FF920F931F93CF93DF9300D000D01F9289
S1130960CDB7DEB78C017D836C83F12C0FB6F89480
S11309700F92F801828D882369F08150828F8085DF
S1130980882321F0C80108960E943A0A0F900FBEEE
S113099081E053C08C819D81892B21F40F900FBE7F
S11309A080E04BC0F11006C0CE0101960E94F70A08
S11309B0FF24F3940F900FBE0E94B0070FB6F89473
S11309C00F92F801858D8F3F09F4158EF801868DFD
S11309D08F3F09F4168E0F900FBEBE016C5F7F4FE0
S11309E0CE0101960E94020B81111BC0C8010E9416
S11309F03002882381F06C817D81C80141960E9478
S1130A00280AC8010E94AE020E94AF088111AECF2D
S1130A100E947801ABCFC8010E94AE020E94AF08C9
S1130A20A5CFC8010E94AE020E94AF08C8010E946F
S1130A303002882309F49ACF80E00F900F900F9032
S1130A400F900F90DF91CF911F910F91FF90089518
S1130A50E0913A07F0913B078081811107C08FEF45
S1130A609FEF90931A07809319070895E0913A072E
S1130A70F0913B070580F681E02D80819181909370
S1130A801A07809319070895CF93DF93EC018F8998
S1130A90988D0E942F02CE010E942F02DF91CF91E8
S1130AA008956F927F928F929F92AF92BF92CF924E
S1130AB0DF92EF920F931F93CF93DF93CDB7DEB7FF
S1130AC04C01F5018789908D215031093C01620E5A
S1130AD0731E6115710589F415C0822F90E0FB0126
S1130AE0E80FF91F3081D501A80FB91F59963C931F
S1130AF08081882329F02F5F01C020E0283068F32B
S1130B00F50110A2F3E0FE1520F40F2EF3E0EF2E12
S1130B10F02DF501E68AC50102960E945700C50131
S1130B200C960E945700F501B186A08684E090E0FF
S1130B308E19910995878487B38AA28AA801B40182
S1130B40C3010E94DD00F50191838083C114D104A7
S1130B5019F0F601B182A082DF91CF911F910F911C
S1130B60EF90DF90CF90BF90AF909F908F907F9049
S1130B706F900895CF93C0E010C08C2F90E09C013B
S1130B80220F331F220F331F220F331F820F931F95
S1130B90825B984F0E944900CF5FC43070F385E4B4
S1130BA097E00E9449008CE397E00E9449008FE29D
S1130BB097E00E94490086E297E00E94490085E49C
S1130BC097E090933B0780933A078CE397E09093E8
S1130BD0390780933807CF910895CF93DF93EC01C1
S1130BE00FB6F8940F92809124078F5F80932407A7
S1130BF08091720790917307892B59F4D0937307EE
S1130C00C093720780912407813099F40E94BA0539
S1130C1010C08091200781110CC0E0917207F091FF
S1130C20730796898E89891720F0D0937307C09330
S1130C30720780911B078F5F80931B078E899091A9
S1130C402107981710F48093210790E0FC01EE0F20
S1130C50FF1FEE0FFF1FEE0FFF1F8E0F9F1FFC01E4
S1130C60E25BF84F0180F281E02DFD83EC83848107
S1130C7095819F838E83A481B581CE0102961396BC
S1130C809C938E93129795838483EE89F0E0CF0131
S1130C90880F991F880F991F880F991FE80FF91F54
S1130CA0E25BF84FFB87EA8780818F5F80830F9038
S1130CB00FBE80912007882321F0809172079091C4
S1130CC07307DF91CF910895CF93DF931CC00FB6C4
S1130CD0F8940F92E0912B07F0912C07C681D781ED
S1130CE0CE0102960E94AD0080912407815080932A
S1130CF02407809125078150809325070F900FBE0C
S1130D00CE010E944405809125078111E0CFDF9137
S1130D10CF9108950E9464060E947801FBCF0F933F
S1130D201F93CF93DF93EC010091220710912307C7
S1130D30809172079091730702960E94AD00C00FD4
S1130D40D11FE0917207F0917307D383C283C01758
S1130D50D10768F460917207709173078091380726
S1130D60909139076E5F7F4F0E947C0017C060919D
S1130D7072077091730780913A0790913B076E5FF9
S1130D807F4F0E947C008091190790911A07C81721
S1130D90D90720F4D0931A07C0931907DF91CF9194
S1130DA01F910F9108952F923F924F925F926F92ED
S1130DB07F928F929F92AF92BF92CF92DF92EF92E7
S1130DC0FF920F931F93CF93DF933C011B015A01B2
S1130DD02901CA010E94F5016C01892B99F086E270
S1130DE090E00E94F501EC01892B41F086E2FE01BE
S1130DF011928A95E9F7D88ECF8A06C0C6010E945F
S1130E002F0202C0C0E0D0E0209791F0950140E0AD
S1130E1050E0812C912C5E016701E02E8201B1012A
S1130E20C3010E945105CE010E94ED0581E001C07D
S1130E308FEFDF91CF911F910F91FF90EF90DF9093
S1130E40CF90BF90AF909F908F907F906F905F9066
S1130E504F903F902F9008950F931F93CF93DF935C
S1130E60EC010FB6F8940F92892B21F4C09172070C
S1130E70D09173078E010E5F1F4FC8010E94AD0011
S1130E808C899D89892B21F0CE010C960E94AD009E
S1130E9080911B078F5F80931B078091720790914D
S1130EA07307C817D90759F4B80186E297E00E947E
S1130EB05B00809125078F5F8093250707C0809191
S1130EC024078150809324070E9428050F900FBEA9
S1130ED08091720790917307C817D90719F0CE0152
S1130EE00E94440580912007882349F0809172076D
S1130EF090917307C817D90711F40E947801DF9104
S1130F00CF911F910F910895EF92FF920F930F2E9F
S1130F10F7E1EF2EF7E0FF2EF02D00E020E030E0C7
S1130F2045E550E060EB70E08AE896E00E94D30665
S1130F30813081F4F8948FEF9FEF90931A07809398
S1130F40190781E08093200710922307109222074B
S1130F500E944901809160000F91FF90EF900895E5
S1130F60809116078F5F8093160708950FB6F89443
S1130F700F9280912207909123070F900FBE08953E
S1130F800F931F93CF93DF93809116078111D8C0DD
S1130F90C0912207D09123078E010F5F1F4F10933A
S1130FA023070093220701151105B9F480913A072C
S1130FB090913B07209138073091390730933B07D4
S1130FC020933A07909339078093380780911C0740
S1130FD08F5F80931C070E942805809119079091C8
S1130FE01A070817190708F4B4C0E0913A07F091FA
S1130FF03B078081811107C08FEF9FEF90931A0701
S113100080931907A6C0E0913A07F0913B07058049
S1131010F681E02D0680F781E02D82819381081707
S1131020190728F490931A078093190792C0A28590
S1131030B3858481958126813781EC013D832C839E
S11310408681978124813581EC013B832A83119623
S11310508D919C9112979F012E5F3F4F82179307AA
S113106031F48681978112969C938E9311971386FF
S113107012868C9181508C93A489B589109711F1B3
S11310808685978540895189EC015D834C838089ED
S1131090918946855785EC015B834A8311964D916E
S11310A05C911297CF010C964817590731F4808947
S11310B0918912969C938E931197158A148A8C9118
S11310C081508C93868990912107981710F480930E
S11310D0210790E0DC01AA0FBB1FAA0FBB1FAA0FB8
S11310E0BB1F8A0F9B1FDC01A25BB84F11960D90AA
S11310F0BC91A02DB583A48314968D919C911597D2
S11311009783868314968D919C911597EC013B836C
S11311102A8315963C932E931497A689B0E0CD01AB
S1131120880F991F880F991F880F991FA80FB91F3F
S1131130A25BB84FB387A2878C918F5F8C9355CFF6
S113114080911E0790911F07019690931F0780932B
S11311501E0780E0DF91CF911F910F910895CF93E7
S1131160DF930FB6F8940F92809116078150809305
S11311701607809116078111B9C080912407811147
S113118096C0B4C0E0913407F09135070680F7812A
S1131190E02DA489B589C685D785808991899D83E9
S11311A08C83C089D189868597859B838A83119690
S11311B02D913C911297CF010C962817390731F4E1
S11311C08089918912969C938E931197158A148A1B
S11311D08C9181508C93A285B385C481D5818681FD
S11311E097819D838C83C681D781848195819B83DC
S11311F08A8311968D919C9112979F012E5F3F4F88
S11312008217930731F48681978112969C938E936B
S11312101197138612868C9181508C9386899091B4
S11312202107981710F48093210790E0DC01AA0F9E
S1131230BB1FAA0FBB1FAA0FBB1F8A0F9B1FDC017A
S1131240A25BB84F11960D90BC91A02DB583A483D9
S113125014968D919C911597978386831496CD91BE
S1131260DC9115973B832A8315963C932E93149710
S1131270A689B0E0CD01880F991F880F991F880FA8
S1131280991FA80FB91FA25BB84FB387A2878C918F
S11312908F5F8C939689A0917207B09173075696CD
S11312A08C91981730F081E080931D0702C0E0E034
S11312B0F0E080912F07811165CFEF2B11F00E9490
S11312C02805C0911E07D0911F07209769F00E943E
S11312D0C007882319F081E080931D072197B9F78F
S11312E010921F0710921E0780911D070F900FBECA
S11312F080E0DF91CF9108950F931F93CF93DF93F5
S11313008C01EB010E94B007409122075091230702
S1131310F80120813181C9018C0F9D1F42175307A9
S113132040F48217930768F44817590760F0C0E047
S11313300FC08217930748F04817590740F0C0E0E0
S113134007C0C0E005C0C1E003C0C1E001C0C1E006
S1131350F80191838083CC2329F060E0841B950BF2
S11313600E948F060E94AF08811102C00E9478017A
S11313708C2FDF91CF911F910F910895CF93DF931D
S1131380EC01892B49F00E94B00760E0CE010E9475
S11313908F060E94AF0801C080E0811102C00E9444
S11313A07801DF91CF91089580911607882321F069
S11313B081E080931D07089510921D072091210755
S11313C001C02150822F90E0FC01EE0FFF1FEE0FB1
S11313D0FF1FEE0FFF1FE80FF91FE25BF84F30818C
S11313E0332379F3AC01440F551F440F551F440FA9
S11313F0551F480F591FDF010180F281E02D028043
S1131400F381E02D1296FC93EE9311974F5A584FA7
S1131410E417F50729F442815381FD015283418386
S1131420FC01EE0FFF1FEE0FFF1FEE0FFF1F8E0FCD
S11314309F1FFC01E25BF84F0180F281E02D868161
S113144097819093730780937207209321070895DF
S1131450CF93DF93EB016091720770917307645F20
S11314607F4F0E947C0061E0CE010E948F06DF91D5
S1131470CF910895CF93DF93DC011596ED91FC9104
S113148016970680F781E02DA489B589C685D7858E
S1131490808991899D838C83C089D189868597852C
S11314A09B838A8311968D919C9112979F01245F4F
S11314B03F4F8217930731F48089918912969C9348
S11314C08E931197158A148A8C9181508C938091F4
S11314D01607811160C0A285B385C481D581868138
S11314E097819D838C83C681D781848195819B83D9
S11314F08A8311968D919C9112979F012E5F3F4F85
S11315008217930731F48681978112969C938E9368
S11315101197138612868C9181508C9386899091B1
S11315202107981710F48093210790E0DC01AA0F9B
S1131530BB1FAA0FBB1FAA0FBB1F8A0F9B1FDC0177
S1131540A25BB84F11960D90BC91A02DB583A483D6
S113155014968D919C911597978386831496CD91BB
S1131560DC9115973B832A8315963C932E9314970D
S1131570A689B0E0CD01880F991F880F991F880FA5
S1131580991FA80FB91FA25BB84FB387A2878C918C
S11315908F5F8C931CC04FE257E0DA011196CD9116
S11315A0DC911297D787C6878C819D81918B808B24
S11315B08C819D81DC0113963C932E9312973D837D
S11315C02C83558B448BDA018C918F5F8C93968995
S11315D0E0917207F09173078689891720F481E0FE
S11315E080931D0701C080E0DF91CF910895209181
S11315F01C07FC01208320912207309123073283AA
S113160021830895CF93DF930FB6F8940F924091FE
S1131610220750912307EC0129813A81DA01A21BA8
S1131620B30BF881E0911C07FE1741F042175307F2
S113163028F0FB011182108281E011C0EB012881A6
S11316403981A217B30740F42A1B3B0B3983288343
S11316500E94F70A80E003C01982188281E00F908B
S11316600FBEDF91CF91089581E080931D07089507
S1131670EF92FF920F931F93CF93DF931F92CDB7F7
S1131680DEB781E0898314E00FEF45C080917407D1
S11316908130A1F4E12FF0E0EE0FFF1FEE0FFF1FEA
S11316A0EF58FF4F80819181AE014F5F5F4F6281A0
S11316B00E941E11898181112DC031C081112AC05F
S11316C0E12EF12CF701EE0FFF1FEE0FFF1FEF5875
S11316D0FF4F80819181AE014F5F5F4F62810E9415
S11316E01E118981811111C0012F0FC0F701EE0F66
S11316F0FF1FEE0FFF1FEF58FF4F80819181AE0156
S11317004F5F5F4F62810E941E118981882371F3AC
S1131710101731F01F5F183008F4B8CF01C0012F43
S1131720802F0F90DF91CF911F910F91FF90EF9039
S11317300895CF93E1E7F0E0808191814381628154
S11317400E94F111C1E00FC0EC2FF0E0EE0FFF1F7B
S1131750EE0FFF1FEF58FF4F80819181438162811B
S11317600E94F111CF5FC83078F3CF9108950F93A1
S11317701F93CF93DF938093740701E710E0F80180
S11317808081918140E062810E94D7100E94380BD1
S1131790C82FF8018081918141E062810E94D710B5
S11317A0CF3FF9F0D0E021C00D2F10E0000F111F42
S11317B0000F111F0F581F4FF8018081918140E0E5
S11317C062810E94D7100E94380BC82FF8018081D3
S11317D0918141E062810E94D710CF3F31F4DF5FF5
S11317E001C0D1E0D43000F3D0E0CF3F89F02D2FF9
S11317F030E0EC2FF0E0CF010497F901EE0FFF1F6A
S1131800EE0FFF1FEF59FF4FE80FF91F808101C052
S11318108EE4DF91CF911F910F910895CF93C82F3C
S1131820482F417060E088E390E00E94D710C1FB2C
S1131830442740F961E088E390E00E94D710C2FB9E
S1131840442740F962E088E390E00E94D710C3FB8C
S1131850442740F963E088E390E00E94D710C4FB7A
S1131860442740F964E088E390E00E94D710C5FB68
S1131870442740F965E088E390E00E94D710C6FB56
S1131880442740F966E088E390E00E94D7104C2F8B
S1131890441F4427441F67E088E390E00E94D71068
S11318A0CF910895CF93C82F41E061E08BE390E09E
S11318B00E94D7108C2F0E940E0CCF910895CF93C5
S11318C0C82F40E061E08BE390E00E94D7108C2F9A
S11318D00E940E0CCF910895860F80580E945F0CD1
S11318E0089541E062E08BE390E00E94D7100895F0
S11318F040E062E08BE390E00E94D71008958F925D
S11319009F92AF92BF92CF92DF92EF92FF920F938A
S11319101F93CF93DF9300D0CDB7DEB74C0160E0C7
S1131920CE0101960E942B1049815A810F2EFEEEA2
S1131930AF2EF02D6894BB24B1F8C12CD12CE12C2E
S1131940F12C00E010E0242F352F40E050E060E05F
S113195070E080E090E00E947C130E94D91220E0A5
S113196030ED4FEB54E40E9438120E94AA12F401A5
S113197060830F900F90DF91CF911F910F91FF9093
S1131980EF90DF90CF90BF90AF909F908F9008958D
S1131990CF93DF9300D01F92CDB7DEB78FE090E0F6
S11319A00E94BE0980917D0790917E07009731F0D7
S11319B020919200211102C00E942C0719820E94DA
S11319C0B6079B838A83809193008130B9F120F01C
S11319D0823009F443C0F7CF6AE070E08091750764
S11319E0909176070E94A804813069F740E050E0A6
S11319F0BE016F5F7F4F80918407909185070E949D
S1131A001C04813061F489810E94520C0E94710C83
S1131A1081E090E00E94BE090E94780CE7CF82E04A
S1131A208093930020E040E050E060E070E080911B
S1131A307507909176070E949203C5CF81E00E94BA
S1131A405F0C0E94710C81E090E00E94BE090E942C
S1131A50780C81E090E00E94BE09B5CF64E170E0AB
S1131A60CE0102960E947C09AECFEF92FF920F93B3
S1131A70CF93DF93CDB7DEB728970FB6F894DEBFC8
S1131A800FBECDBF0E9473110E94990B88E0E4E958
S1131A90F0E0DE01119601900D928A95E1F7CE01F6
S1131AA001960E943F100F2EFDE7EF2EF7E0FF2E68
S1131AB0F02D03E020E030E045E550E065EB70E018
S1131AC08AEE9DE00E94D3060F2EF9E7EF2EF7E091
S1131AD0FF2EF02D02E020E030E045E550E06BEB16
S1131AE070E088EC9CE00E94D3060F2EF7E7EF2EFF
S1131AF0F7E0FF2EF02D01E020E030E045E550E076
S1131B0061EC70E08AED9EE00E94D3060F2EFBE7A5
S1131B10EF2EF7E0FF2EF02D00E020E030E045E569
S1131B2050E067EC70E08FE49EE00E94D30643E04F
S1131B3060E081E00E9451039093760780937507DB
S1131B40009739F020E040E050E060E070E00E944F
S1131B5092030E94840780E090E028960FB6F894E0
S1131B60DEBF0FBECDBFDF91CF910F91FF90EF90FD
S1131B7008950F931F93CF938C016AE070E08091D6
S1131B807507909176070E94A8048130F9F40BC080
S1131B9020E04AE050E080918407909185070E94FC
S1131BA09203CF5F01C0C0E0B8016C0F711DFB014F
S1131BB080818111EDCF20E040E050E060E070E0F2
S1131BC080917507909176070E949203CF911F919F
S1131BD00F9108954CC0809181078130A9F028F0BD
S1131BE0823009F1833091F142C088E30E945F0C96
S1131BF00E94710C81E090E00E94BE090E94780C62
S1131C0081E08093810733C08CE00E945F0C0E94C6
S1131C10710C81E090E00E94BE090E94780C82E081
S1131C208093810724C081E00E945F0C0E94710CA4
S1131C3081E090E00E94BE090E94780C84E090E06C
S1131C400E94BE0983E08093810711C086E00E9450
S1131C505F0C0E94710C81E090E00E94BE090E941A
S1131C60780C81E090E00E94BE091092920080916D
S1131C7092008111B0CF40E061E084E10E94510301
S1131C8090938507809384078DEC90E00E94B90DB2
S1131C90109293008AE090E00E94BE090895CF93C9
S1131CA0DF93CDB7DEB764970FB6F894DEBF0FBEEF
S1131CB0CDBF8FE090E00E94BE098FE0ECE9F0E038
S1131CC0DE01119601900D928A95E1F7FE0170965E
S1131CD085E0DF011D928A95E9F78FE797E00E947E
S1131CE07F0C50917F07852F90E008C02DEC829FD8
S1131CF0812D11248695869586959F5F8111F6CF57
S1131D00852F1BC0E92FF0E03D9621E030E02C0F39
S1131D103D1FE20FF31F2DEC829F212D11242695E8
S1131D2026952695422F440F342F330F330F340F4B
S1131D30831B805D8083822F91509111E3CF41E01A
S1131D4080919100851708F040E064E08BE390E017
S1131D500E94D71041E080917F078D3308F440E062
S1131D6065E08BE390E00E94D71080918007823079
S1131D7089F4CE0101960E94B90D81E0809393000D
S1131D808EE190E00E94BE091092930080ED97E0EE
S1131D900E94BE0984E190E00E94BE098ECF0E9499
S1131DA06C0C0E94710C81E090E00E94BE090E94BC
S1131DB0780C0895F09091008FE090E00E94BE09A5
S1131DC0C0E0D0E090918007911151C080E00E9462
S1131DD0B70B082F10E09801205331092A30310540
S1131DE0C8F40E94520C0E94710C81E090E00E94A1
S1131DF0BE090E94780CCE01880F991FCC0FDD1FFD
S1131E00CC0FDD1FCC0FDD1FC80FD91FC00FD11F92
S1131E10E0971CC10D33110509F018C1C23DD4402F
S1131E2031F481E080938007C0E0D0E00FC18EEDF3
S1131E3090E00E94B90DC1E0C09393008EE190E060
S1131E400E94BE091092930088EE93E00E94BE099E
S1131E508DEC90E00E94B90DC09393008EE190E068
S1131E600E94BE0910929300C0E0D0E0EFC0913010
S1131E7089F581E0809393008EE190E00E94BE0991
S1131E808CEE90E00E94B90D1092930088E290E0ED
S1131E900E94BE0960E080E40E94CF0E8CEF90E0C7
S1131EA00E94B90D1092930088E290E00E94BE094E
S1131EB060E084E10E94CF0E8CE091E00E94B90DB5
S1131EC01092930088E290E00E94BE0985E080931E
S1131ED08007BCC0953009F056C080E00E94B70B63
S1131EE0823379F0833319F18133B1F582E0809341
S1131EF0800780ED97E00E94BE0981E0809380070F
S1131F00A5C081E0809393008EE190E00E94BE0919
S1131F108BE191E00E94B90D1092930088E290E069
S1131F200E94BE0983E080938007F12C8FC081E07A
S1131F30809393008EE190E00E94BE098AE291E0D2
S1131F400E94B90D1092930088E290E00E94BE09AD
S1131F5084E0809380077AC08E3409F477C011E05E
S1131F60109393008EE190E00E94BE098EED90E004
S1131F700E94B90D1092930088EE93E00E94BE096E
S1131F801093800763C0933009F03FC080E00E9443
S1131F90B70B182F90E09C01205331092A303105EA
S1131FA0B0F40E94520C0E94710C81E090E00E94F7
S1131FB0BE090E94780CFF0C8F2D880F880FF80E35
S1131FC01F0D0F2EF0EDFF2EF02DF10E3FC0CD971B
S1131FD0E9F581EF8F0D8A3190F08EED90E00E944B
S1131FE0B90D81E0809393008EE190E00E94BE09D8
S1131FF01092930088EE93E00E94BE0902C0F09212
S1132000910081E08093800721C09430F9F480E04E
S11320100E94B70B182F282F30E0205331092230AB
S11320203105A0F40E94520C0E94710C81E090E0F2
S11320300E94BE090E94780C40ED410F63E08BE3DF
S113204090E00E94D71081E08093800780EA90E0BE
S11320500E94BE09B7CEFC0197B1907E692B67B987
S113206096B1906496B996FFFECF84B125B12370E2
S113207030E0322F2227282B318320830895FC015E
S11320808581813039F48081918190938307809395
S1132090820704C0109283071092820717B816B8FB
S11320A0828120E4829FC001112487B99381892B06
S11320B087B9248130E2239FC001112486B9958118
S11320C0292F30E0220F331F220F331F220F331F1B
S11320D0282B26B98681282B26B980B7382F307E45
S11320E030BF978140E2949FC0011124832B80BFAD
S11320F0206826B90895CF93DF9300D000D0CDB7E0
S1132100DEB79C838B8385E0FA0180838B819C817D
S1132110CB9761F08B819C81C89741F08B819C8126
S1132120C59721F08B819C81C297A9F56830A8F5E9
S11321301A8219828B819C818533910599F018F458
S1132140C297A9F018C08833910539F0CB9799F458
S11321508AE390E09A8389830EC087E390E09A83B0
S1132160898309C084E390E09A83898304C081E36E
S113217090E09A838983E981FA81808190E002C0AA
S1132180959587956A95E2F780FF09C086E0FA0184
S1132190808380E005C081E003C082E001C080E06C
S11321A00F900F900F900F90DF91CF9108950F93A0
S11321B01F93CF93DF9300D01F92CDB7DEB79B83DD
S11321C08A83162F042F8A819B81AE014F5F5F4F54
S11321D00E947B10811103C09981953021F18111F6
S11321E025C09981963011F5013069F4EA81FB81AB
S11321F021E030E002C0220F331F1A95E2F79081EC
S1132200292B208313C0011110C0EA81FB8121E036
S113221030E002C0220F331F1A95E2F72095908117
S11322202923208303C084E001C083E00F900F9032
S11322300F90DF91CF911F910F910895CF93DF936A
S113224000D000D0CDB7DEB79C838B838B819C817B
S1132250CB9761F08B819C81C89741F08B819C81E5
S1132260C59721F08B819C81C29799F5683098F5C8
S11322701A8219828B819C818533910599F018F417
S1132280C297A9F018C08833910539F0CB9799F417
S113229089E390E09A8389830EC086E390E09A8371
S11322A0898309C083E390E09A83898304C080E32F
S11322B090E09A838983E981FA81808190E002C069
S11322C0959587956A95E2F78170FA01808380E09D
S11322D003C081E001C082E00F900F900F900F9037
S11322E0DF91CF9108958EEF8ABB8FEF87BB84BBBC
S11322F081BB1BBA18BA15BA12BA0895CF93DF93EB
S113230000D000D0CDB7DEB79C838B838B819C81BA
S1132310CB9769F08B819C81C89749F08B819C8114
S1132320C59729F08B819C81C29709F04CC0683015
S113233008F04BC0473008F04AC01A8219828B81DA
S11323409C8199278533910599F01CF4C297A9F0D3
S113235018C08833910539F0CB9799F48AE390E05B
S11323609A8389830EC087E390E09A83898309C0A6
S113237084E390E09A83898304C081E390E09A83A4
S11323808983453019F0463081F023C0E981FA8110
S113239081E090E002C0880F991F6A95E2F780956A
S11323A090818923808380E015C0E981FA8181E0EE
S11323B090E002C0880F991F6A95E2F79081892BFB
S11323C0808380E007C081E005C082E003C083E031
S11323D001C080E00F900F900F900F90DF91CF918C
S11323E008950F931F93CF93DF9300D0CDB7DEB73B
S11323F09A838983062F142F423018F0443068F4EE
S113240006C089819A8145E00E947E1107C08981B6
S11324109A8146E00E947E1101C080E0811121C0B2
S1132420133018F4113018F010C01330D1F4E981CE
S1132430FA8121E030E002C0220F331F0A95E2F74F
S113244020959081292320830CC0E981FA8121E021
S113245030E002C0220F331F0A95E2F79081292B46
S113246020830F900F90DF91CF911F910F910895CA
S11324700E944C120C942E130E94271358F00E94B1
S1132480201340F029F45F3F29F00C9417135111E5
S11324900C9462130C941D130E943F1368F3992348
S11324A0B1F3552391F3951B550BBB27AA2762174C
S11324B07307840738F09F5F5F4F220F331F441F59
S11324C0AA1FA9F335D00E2E3AF0E0E832D091508D
S11324D05040E695001CCAF72BD0FE2F29D0660F7A
S11324E0771F881FBB1F261737074807AB07B0E8BD
S11324F009F0BB0B802DBF01FF2793585F4F3AF0C3
S11325009E3F510578F00C9417130C9462135F3FAF
S1132510E4F3983ED4F3869577956795B795F79548
S11325209F5FC9F7880F911D9695879597F9089530
S1132530E1E0660F771F881FBB1F621773078407CC
S1132540BA0720F0621B730B840BBA0BEE1F88F7DB
S1132550E09508950E94471388F09F5798F0B92F8B
S11325609927B751B0F0E1F0660F771F881F991FC4
S11325701AF0BA95C9F714C0B13091F00E946113F2
S1132580B1E008950C946113672F782F8827B85F02
S113259039F0B93FCCF3869577956795B395D9F71C
S11325A03EF490958095709561957F4F8F4F9F4F26
S11325B00895E894F92F96EBFF2381F01216130681
S11325C01406440B9395F6958795779567955795DB
S11325D04040FF23B9F71BC099270895882351F47D
S11325E09850D2F7872B762F652F542F432F322FF5
S11325F020E0B1F3121613061406440B88233AF0B4
S11326009A95440F551F661F771F881FCAF75523D5
S11326104AF4440F551F11F460FF04C06F5F7F4FED
S11326208F4F9F4F880F9695879597F9089597F93F
S11326309F6780E870E060E008959FEF80EC089564
S113264000240A941616170618060906089500248D
S11326500A9412161306140605060895092E039407
S1132660000C11F4882352F0BB0F40F4BF2B11F47B
S113267060FF04C06F5F7F4F8F4F9F4F089557FDDA
S11326809058440F551F59F05F3F71F04795880FDC
S113269097FB991F61F09F3F79F087950895121673
S11326A013061406551FF2CF4695F1DF08C016161F
S11326B017061806991FF1CF8695710561050894D0
S11326C00895E894BB2766277727CB0197F90895E7
S11326D0AA1BBB1B51E107C0AA1FBB1FA617B70744
S11326E010F0A61BB70B881F991F5A95A9F7809560
S11326F09095BC01CD010895DF93CF931F930F9361
S11327009A9DF02D219FF00D8B9DF00D8A9DE02D5B
S1132710F10D039FF00D029FE00DF11D4E9DE00DA4
S1132720F11D5E9DF00D4F9DF00D7F936F93BF9251
S1132730AF925F934F93D5010E94D5138B01AC01E7
S1132740D7010E94D513EB01E80FF91FD6010E94AF
S1132750CC132F913F91D6010E94D513C60FD71FDA
S1132760E81FF91FAF91BF910E94CC132F913F91A5
S11327700E94D513C60FD71FE81FF91FD6010E9468
S1132780D513E60FF71F9801BE01CF0111240F9155
S11327901F91CF91DF9108950E94D513460F571FC3
S11327A0C81FD91F08F431960895A29FB001B39FA2
S11327B0C001A39F700D811D1124911DB29F700D46
S11327C0811D1124911D0895FB01DC0102C00190BB
S11127D00D9241505040D8F70895F894FFCF71
S11327DE033738392F3435362A3132332D63303DB1
S11327EE2B350000023500010235000202350003CC
S11327FE02350004003500050035000600350007DB
S113280E009601020000010000000600437572727A
S113281E656E742054656D703A200000000000004F
S113282E49444C45005461736B30005461736B31F1
S113283E005461736B32005461736B3300456E74D4
S113284E65722050617373776F72643A2000496E1B
S113285E76616C696420496E707574003129204369
S113286E757272656E742054656D70003229204441
S113287E6573697265642054656D70003329204C4C
S113288E454420636F6E74726F6C00446573697295
S113289E65642054656D703A2000456E746572202F
S10928AE312F303A200036
S9030000FC
