S01300004156525F447269766572732E73726563EA
S11300000C942A000C9447000C9447000C9447006D
S11300100C9447000C9447000C9447000C94470040
S11300200C9447000C9447000C943E010C94BC00C3
S11300300C9447000C948E010C9467010C944700B7
S11300400C9447000C9447000C9447000C94470010
S11300500C94470011241FBECFE5D8E0DEBFCDBF0E
S113006010E0A0E6B0E0E6EEF3E002C005900D92E9
S1130070A836B107D9F720E0A8E6B0E001C01D9288
S1130080AB37B207E1F70E9459000C94F1010C94CC
S11300900000811102C00E94B800089580E690E03B
S11300A00E94610041E060E070E0CB010E947D00AD
S11300B008958FEF8ABB8FB780688FBF0E944E0070
S11300C0FFCFCF93DF93EC0187E0FE01A4E7B0E01C
S11300D001900D928A95E1F713BE98818981892B4D
S11300E083BF8881882319F087B3886087BB19BED2
S11300F08A8189BFDF91CF910895CF92DF92EF92E9
S1130100FF926B017C0180917500883481F4A42FE7
S1130110B0E020E032E14AE750E00E94D70120E05D
S11301203AEF40E050E00E94B5012CBF11C080348A
S113013079F4A42FB0E020E032E14AE750E00E94D5
S1130140D70120E034EF41E050E00E94B5012CBF1C
S1130150C0926C00D0926D00E0926E00F0926F003D
S113016083B7836083BFFF90EF90DF90CF900895B3
S113017019BE12BE13BE08951F920F920FB60F92AE
S113018011240F931F932F933F934F935F936F9378
S11301907F938F939F93AF93BF93EF93FF9380913C
S11301A06C0090916D00A0916E00B0916F0000976B
S11301B0A105B10509F443C040916800509169005C
S11301C060916A0070916B004F5F5F4F6F4F7F4F7C
S11301D0409368005093690060936A0070936B00C9
S11301E08C019D010F5F1F4F2F4F3F4F4017510749
S11301F06207730771F420917500283451F410924A
S113020068001092690010926A0010926B0080E0FE
S11302101BC00296A11DB11D481759076A077B0729
S113022081F480917500803471F41092680010920A
S1130230690010926A0010926B0080E005C081E0B2
S113024003C081E001C081E0E0917700F091780083
S1130250309709F00995FF91EF91BF91AF919F916C
S11302608F917F916F915F914F913F912F911F914A
S11302700F910F900FBE0F901F9018951F920F9221
S11302800FB60F9211242F933F934F935F936F9365
S11302907F938F939F93AF93BF93EF93FF93E091DB
S11302A07900F0917A00309709F00995FF91EF9168
S11302B0BF91AF919F918F917F916F915F914F917A
S11302C03F912F910F900FBE0F901F9018951F9282
S11302D00F920FB60F9211242F933F934F935F9376
S11302E06F937F938F939F93AF93BF93EF93FF93FA
S11302F0E0917200F09173000995FF91EF91BF9125
S1130300AF919F918F917F916F915F914F913F91A9
S11303102F910F900FBE0F901F9018951F920F9260
S11303200FB60F9211242F933F934F935F936F93C4
S11303307F938F939F93AF93BF93EF93FF93E0913A
S11303407000F09171000995FF91EF91BF91AF9109
S11303509F918F917F916F915F914F913F912F91D9
S11303600F900FBE0F901F901895A1E21A2EAA1B92
S1130370BB1BFD010DC0AA1FBB1FEE1FFF1FA21751
S1130380B307E407F50720F0A21BB30BE40BF50B4E
S1130390661F771F881F991F1A9469F760957095D7
S11303A0809590959B01AC01BD01CF0108950E94F9
S11303B0E201A59F900DB49F900DA49F800D911D07
S11303C011240895A29FB001B39FC001A39F700D93
S11303D0811D1124911DB29F700D811D1124911D49
S10903E00895F894FFCF1C
S10B03E6204801490000000059
S9030000FC
