S0100000536F6674776172652E73726563C9
S11300000C942A000C943F000C943F000C943F0085
S11300100C943F000C943F000C943F000C943F0060
S11300200C943F000C943F000C943F000C943F0050
S11300300C943F000C943F000C943F000C943F0040
S11300400C943F000C943F000C943F000C943F0030
S11300500C943F0011241FBECFE5D8E0DEBFCDBF16
S113006010E0A0E6B0E0E6EEF0E002C005900D92EC
S1130070A036B107D9F70E946C000C9471000C945F
S1130080000081B38E7F81BB81B3806F81BB84B359
S11300908C6F84BB0895809BFECF85B3886085BB3D
S11300A080E014C095B39F7095BB95B340E1849FE5
S11300B090011124292B25BB9FEF29E638E19150AB
S11300C020403040E1F700C000008F5F8A3050F3D9
S11300D085B3877F85BB08950E9441000E944B0031
S10900E0FDCFF894FFCFF0
S9030000FC
