:100000000C942A000C9447000C9447000C94470071
:100010000C9447000C9447000C9447000C94470044
:100020000C9447000C9447000C9447000C94470034
:100030000C9447000C9493060C9462060C944700B1
:100040000C9447000C9447000C9447000C94470014
:100050000C94470011241FBECFE5D8E0DEBFCDBF12
:1000600010E0A0E6B0E0E2ECFFE002C005900D92E7
:10007000A43CB107D9F721E0A4ECB0E001C01D9287
:10008000AF32B207E1F70E947E040C94DF070C94B4
:100090000000CF93DF93CDB7DEB76C970FB6F8941F
:1000A000DEBF0FBECDBF80E090E0A0EAB1E489835F
:1000B0009A83AB83BC8320E030E04AEF54E469814B
:1000C0007A818B819C810E944A07DC01CB018B8B5A
:1000D0009C8BAD8BBE8B20E030E040E85FE36B890A
:1000E0007C898D899E890E94C40688232CF481E036
:1000F00090E0988F8F8B3FC020E03FEF4FE757E4B1
:100100006B897C898D899E890E94450718164CF55C
:1001100020E030E040E251E469817A818B819C816A
:100120000E944A07DC01CB01BC01CD010E94C90637
:10013000DC01CB01988F8F8B0FC088EC90E09A8FF9
:10014000898F898D9A8D0197F1F79A8F898F8F8981
:10015000988D0197988F8F8B8F89988D892B69F750
:1001600014C06B897C898D899E890E94C906DC0137
:10017000CB01988F8F8B8F89988D9C8F8B8F8B8DD8
:100180009C8D0197F1F79C8F8B8F8AE390E0FC01A7
:1001900080818AE390E02FEFFC01208387E390E0E9
:1001A00027E330E0F90120812760FC01208388E308
:1001B00090E028E330E0F9012081287FFC012083D2
:1001C00080E090E0A0E7B1E48D839E83AF83B887A1
:1001D00020E030E04AEF54E46D817E818F81988584
:1001E0000E944A07DC01CB0189879A87AB87BC87CD
:1001F00020E030E040E85FE369857A858B859C8567
:100200000E94C40688232CF481E090E09E878D87AD
:100210003FC020E03FEF4FE757E469857A858B8543
:100220009C850E94450718164CF520E030E040E21E
:1002300051E46D817E818F8198850E944A07DC019F
:10024000CB01BC01CD010E94C906DC01CB019E8718
:100250008D870FC088EC90E0988B8F878F85988969
:100260000197F1F7988B8F878D859E8501979E87E3
:100270008D878D859E85892B69F714C069857A8560
:100280008B859C850E94C906DC01CB019E878D87EA
:100290008D859E859A8B898B89899A890197F1F73B
:1002A0009A8B898B0E946A0288E30E946A0186E029
:1002B0000E946A0180E80E946A018FE00E946A0140
:1002C00000006C960FB6F894DEBF0FBECDBFDF9175
:1002D000CF910895CF93DF931F92CDB7DEB7898377
:1002E00088E390E028E330E0F90120812C7FFC01D5
:1002F00020838BE390E02981FC0120830E949502FA
:1003000000000F90DF91CF910895CF93DF93CDB789
:10031000DEB72F970FB6F894DEBF0FBECDBF8F8725
:1003200088E390E028E330E0F90120812160FC01BE
:10033000208388E390E028E330E0F90120812D7FDD
:10034000FC0120838BE390E02F85FC0120830E9439
:10035000950280E090E0ACE8B2E489839A83AB83B5
:10036000BC8320E030E04AEF54E469817A818B81DC
:100370009C810E944A07DC01CB018D839E83AF8361
:10038000B88720E030E040E85FE36D817E818F81B7
:1003900098850E94C40688232CF481E090E09A8717
:1003A00089873FC020E03FEF4FE757E46D817E81B2
:1003B0008F8198850E94450718164CF520E030E0A3
:1003C00040E251E469817A818B819C810E944A07D5
:1003D000DC01CB01BC01CD010E94C906DC01CB01CF
:1003E0009A8789870FC088EC90E09C878B878B85E4
:1003F0009C850197F1F79C878B8789859A85019762
:100400009A87898789859A85892B69F714C06D81B8
:100410007E818F8198850E94C906DC01CB019A8775
:10042000898789859A859E878D878D859E85019789
:10043000F1F79E878D8700002F960FB6F894DEBFE8
:100440000FBECDBFDF91CF910895CF93DF9300D042
:1004500000D0CDB7DEB79C838B831A828A818983D3
:1004600026C08981882F90E02B813C81820F931FC9
:10047000FC0180810E9485018A818F5F8A838A8145
:10048000882F90E08031910519F0809731F00CC0F1
:1004900060E082E00E94750207C00E946A0260E08C
:1004A00081E00E9475021A8289818F5F8983898128
:1004B000882F90E02B813C81820F931FFC0180816B
:1004C000882379F600000F900F900F900F90DF9126
:1004D000CF910895CF93DF93CDB7DEB781E00E942F
:1004E0006A010000DF91CF910895CF93DF9300D090
:1004F000CDB7DEB789836A838981882F90E0813008
:10050000910519F0029739F00AC08A8180580E943B
:100510006A01000004C08A8180540E946A010000C0
:100520000F900F90DF91CF910895CF93DF93CDB7C8
:10053000DEB76C970FB6F894DEBF0FBECDBF88E371
:1005400090E028E330E0F90120812460FC01208361
:1005500080E090E0A0E8BFE389839A83AB83BC830B
:1005600020E030E04AEF54E469817A818B819C81FC
:100570000E944A07DC01CB018B8B9C8BAD8BBE8B21
:1005800020E030E040E85FE36B897C898D899E89BB
:100590000E94C40688232CF481E090E0988F8F8B12
:1005A0003FC020E03FEF4FE757E46B897C898D899E
:1005B0009E890E94450718164CF520E030E040E285
:1005C00051E469817A818B819C810E944A07DC0118
:1005D000CB01BC01CD010E94C906DC01CB01988F83
:1005E0008F8B0FC088EC90E09A8F898F898D9A8DC0
:1005F0000197F1F79A8F898F8F89988D0197988F3E
:100600008F8B8F89988D892B69F714C06B897C89B2
:100610008D899E890E94C906DC01CB01988F8F8B42
:100620008F89988D9C8F8B8F8B8D9C8D0197F1F787
:100630009C8F8B8F88E390E028E330E0F9012081E4
:100640002B7FFC01208380E090E0A0E0B0E48D836C
:100650009E83AF83B88720E030E04AEF54E46D8199
:100660007E818F8198850E944A07DC01CB018987B2
:100670009A87AB87BC8720E030E040E85FE369857C
:100680007A858B859C850E94C40688232CF481E0A2
:1006900090E09E878D873FC020E03FEF4FE757E413
:1006A00069857A858B859C850E94450718164CF5CF
:1006B00020E030E040E251E46D817E818F819885B9
:1006C0000E944A07DC01CB01BC01CD010E94C90692
:1006D000DC01CB019E878D870FC088EC90E0988B62
:1006E0008F878F8598890197F1F7988B8F878D85F4
:1006F0009E8501979E878D878D859E85892B69F7BD
:1007000014C069857A858B859C850E94C906DC01A9
:10071000CB019E878D878D859E859A8B898B898954
:100720009A890197F1F79A8B898B00006C960FB626
:10073000F894DEBF0FBECDBFDF91CF910895CF9368
:10074000DF93CDB7DEB72F970FB6F894DEBF0FBE9D
:10075000CDBF19828091C400882309F089C07EC072
:100760008981882F90E0805A9F4FFC0180810E94F0
:10077000470680E090E0A8ECB2E48A839B83AC83D8
:10078000BD8320E030E04AEF54E46A817B818C81B4
:100790009D810E944A07DC01CB018E839F83A8873D
:1007A000B98720E030E040E85FE36E817F81888593
:1007B00099850E94C40688232CF481E090E09B87F1
:1007C0008A873FC020E03FEF4FE757E46E817F818B
:1007D000888599850E94450718164CF520E030E081
:1007E00040E251E46A817B818C819D810E944A07AD
:1007F000DC01CB01BC01CD010E94C906DC01CB01AB
:100800009B878A870FC088EC90E09D878C878C85BA
:100810009D850197F1F79D878C878A859B85019738
:100820009B878A878A859B85892B69F714C06E818F
:100830007F81888599850E94C906DC01CB019B8751
:100840008A878A859B859F878E878E859F8501975E
:10085000F1F79F878E8789818F5F89838981882FB0
:1008600090E0805A9F4FFC018081882309F078CF67
:1008700081E08093C40000002F960FB6F894DEBF8D
:100880000FBECDBFDF91CF9108950F931F93CF93EC
:10089000DF93CDB7DEB78091C500882349F58091FD
:1008A000C600082F10E00E945706282FC801875362
:1008B0009F4FFC0120838091C600882F90E08753D2
:1008C0009F4FFC0180818D3031F08091C6008F5F99
:1008D0008093C6000DC08091C600882F90E087539A
:1008E0009F4FFC01108281E08093C5001092C600EA
:1008F0000000DF91CF911F910F910895CF93DF9367
:10090000CDB7DEB76D970FB6F894DEBF0FBECDBF83
:1009100080E389830E9449000E94D7058FE590E01B
:100920002FE530E0F90120812068FC0120838FE968
:1009300093E090932E0180932D0185E494E09093B1
:10094000C8008093C7008AE290E02AE230E0F90113
:1009500020812068FC0120838091C500882381F0DC
:100960000E946A0260E081E00E94750289EC90E0DA
:100970000E94250260E082E00E9475021092C5008C
:1009800060E082E00E94750289810E948501898170
:10099000843349F48AE290E02AE230E0F9012081D0
:1009A0002062FC0120838091C400882359F08AE2F0
:1009B00090E02AE230E0F90120812F7DFC012083C4
:1009C0001092C40089818F5F898380E090E0AAE75C
:1009D000B4E48E839F83A887B98720E030E04AEF94
:1009E00054E46E817F81888599850E944A07DC01E5
:1009F000CB018A879B87AC87BD8720E030E040E849
:100A00005FE36A857B858C859D850E94C40688236B
:100A10002CF481E090E09F878E873FC020E03FEF7D
:100A20004FE757E46A857B858C859D850E94450745
:100A300018164CF520E030E040E251E46E817F81F1
:100A4000888599850E944A07DC01CB01BC01CD0154
:100A50000E94C906DC01CB019F878E870FC088ECFE
:100A600090E0998B888B888999890197F1F7998B08
:100A7000888B8E859F8501979F878E878E859F8522
:100A8000892B69F714C06A857B858C859D850E94BA
:100A9000C906DC01CB019F878E878E859F859B8B46
:100AA0008A8B8A899B890197F1F79B8B8A8B898135
:100AB000893309F051CF60E082E00E94750289819C
:100AC0000E94850180E090E0AAE7B4E48A839B83DA
:100AD000AC83BD8320E030E04AEF54E46A817B813F
:100AE0008C819D810E944A07DC01CB018C8B9D8B00
:100AF000AE8BBF8B20E030E040E85FE36C897D89FE
:100B00008E899F890E94C40688232CF481E090E09E
:100B1000998F888F3FC020E03FEF4FE757E46C8903
:100B20007D898E899F890E94450718164CF520E023
:100B300030E040E251E46A817B818C819D810E949A
:100B40004A07DC01CB01BC01CD010E94C906DC01D2
:100B5000CB01998F888F0FC088EC90E09B8F8A8F94
:100B60008A8D9B8D0197F1F79B8F8A8F888D998D48
:100B70000197998F888F888D998D892B69F714C07B
:100B80006C897D898E899F890E94C906DC01CB0111
:100B9000998F888F888D998D9D8F8C8F8C8D9D8D51
:100BA0000197F1F79D8F8C8F80E38983D5CECF930A
:100BB000DF93CDB7DEB780E490E020E430E0F901C8
:100BC00020812068FC01208380E490E020E430E074
:100BD000F90120812F7BFC0120838BE290E02BE246
:100BE00030E0F90120812D7FFC01208389E290E033
:100BF00023E3FC01208380E490E020E430E0F9016D
:100C000020812260FC01208380E490E020E430E039
:100C1000F90120812460FC0120838AE290E02AE22D
:100C200030E0F90120812B7FFC01208380E490E0FB
:100C300020E430E0F90120812F7EFC01208380E454
:100C400090E020E430E0F90120812F7DFC01208339
:100C500080E490E020E430E0F9012081277FFC016E
:100C600020838AE290E02AE230E0F90120812860C6
:100C7000FC0120838AE290E02AE230E0F901208141
:100C80002061FC0120830000DF91CF910895CF9374
:100C9000DF931F92CDB7DEB789838CE290E0298184
:100CA000FC01208300000F90DF91CF910895CF9336
:100CB000DF93CDB7DEB78CE290E0FC018081DF915D
:100CC000CF9108951F920F9200905F000F92112410
:100CD0002F933F934F935F936F937F938F939F9344
:100CE000AF93BF93EF93FF93CF93DF93CDB7DEB76F
:100CF00080912D0190912E01FC0109950000DF915A
:100D0000CF91FF91EF91BF91AF919F918F917F9183
:100D10006F915F914F913F912F910F9000925F00E3
:100D20000F901F9018951F920F9200905F000F92E6
:100D300011242F933F934F935F936F937F938F93E0
:100D40009F93AF93BF93EF93FF93CF93DF93CDB771
:100D5000DEB78091C7009091C800FC0109950000A2
:100D6000DF91CF91FF91EF91BF91AF919F918F91C3
:100D70007F916F915F914F913F912F910F900092D2
:100D80005F000F901F9018950E94F80608F481E00C
:100D900008950E94240788F09F5798F0B92F99274B
:100DA000B751B0F0E1F0660F771F881F991F1AF056
:100DB000BA95C9F714C0B13091F00E943E07B1E076
:100DC00008950C943E07672F782F8827B85F39F075
:100DD000B93FCCF3869577956795B395D9F73EF4EF
:100DE00090958095709561957F4F8F4F9F4F089597
:100DF000990F0008550FAA0BE0E8FEEF161617062C
:100E0000E807F907C0F012161306E407F50798F093
:100E1000621B730B840B950B39F40A2661F0232BAC
:100E2000242B252B21F408950A2609F4A140A69528
:100E30008FEF811D811D089557FD9058440F551F58
:100E400059F05F3F71F04795880F97FB991F61F04C
:100E50009F3F79F087950895121613061406551FC3
:100E6000F2CF4695F1DF08C0161617061806991F2F
:100E7000F1CF86957105610508940895E894BB2724
:100E800066277727CB0197F908950E94F80608F4A2
:100E90008FEF08950E945D070C94CE070E94C00753
:100EA00038F00E94C70720F0952311F00C94B70783
:100EB0000C94BD0711240C943F070E941C0770F38B
:100EC000959FC1F3950F50E0551F629FF001729FEF
:100ED000BB27F00DB11D639FAA27F00DB11DAA1FFE
:100EE000649F6627B00DA11D661F829F2227B00D4B
:100EF000A11D621F739FB00DA11D621F839FA00DD6
:100F0000611D221F749F3327A00D611D231F849F25
:100F1000600D211D822F762F6A2F11249F5750407C
:100F20009AF0F1F088234AF0EE0FFF1FBB1F661FF7
:100F3000771F881F91505040A9F79E3F510580F0C0
:100F40000C94B7070C943F075F3FE4F3983ED4F34B
:100F5000869577956795B795F795E7959F5FC1F764
:100F6000FE2B880F911D9695879597F9089597F90F
:100F70009F6780E870E060E008959FEF80EC08953F
:100F800000240A9416161706180609060895002468
:100F90000A9412161306140605060895092E0394E2
:100FA000000C11F4882352F0BB0F40F4BF2B11F456
:100FB00060FF04C06F5F7F4F8F4F9F4F0895F8947D
:020FC000FFCF61
:100FC2004C6561726E20696E2064657074682000E1
:100FD200000000000000000000000000000000000F
:100FE20000000000000000000000000000000000FF
:100FF20000000000000000000000000000000000EF
:1010020000000000000000000000000000000000DE
:1010120000000000000000000000000000000000CE
:0410220000000000CA
:00000001FF
