:100000000C942A000C943F000C943F000C943F0089
:100010000C943F000C943F000C943F000C943F0064
:100020000C943F000C943F000C943F000C943F0054
:100030000C943F000C943F000C943F000C943F0044
:100040000C943F000C943F000C943F000C943F0034
:100050000C943F0011241FBECFE5D8E0DEBFCDBF1A
:1000600010E0A0E6B0E0E4E4F3E002C005900D92F9
:10007000A836B107D9F70E94F9000C94A0010C949E
:10008000000088B3846088BB89EF90E00197F1F7A6
:1000900000C0000088B38B7F88BB83EF91E001979D
:1000A000F1F700C000000895CF93C82F88B38C7F6C
:1000B00088BB8BB38F709C2F907F892B8BBB0E944A
:1000C00041002BB330E1C39FC0011124922F9F70D8
:1000D000892B8BBB0E944100CF910895CF93C82FED
:1000E00088B3816088BB88B38D7F88BB8BB38F70EA
:1000F0009C2F907F892B8BBB89EF90E00197F1F7C4
:1001000000C000000E9441002BB330E1C39FC0013A
:100110001124922F9F70892B8BBB0E9441008BE58D
:1001200094E40197F1F700C00000CF91089581E0B9
:100130000E945400089587E893E10197F1F700C009
:1001400000008AB3806F8ABB87B3876087BB88B3A0
:10015000887F88BB85EA9EE00197F1F700C0000028
:100160000E94970082E00E94540088E20E9454009E
:1001700086E00E94540080E80E9454008FE00E94B4
:1001800054000895813019F0823031F0089580E8EC
:10019000860F0E945400089580EC860F0E94540040
:1001A00008950F931F93CF93DF938C01C0E0D0E0AD
:1001B00015C00E946E00CF5FC03119F0C03231F01F
:1001C0000CC060E082E00E94C20007C00E9497005D
:1001D00060E081E00E94C200C0E0DF5FF801ED0F47
:1001E000F11D80818111E5CFDF91CF911F910F919A
:1001F0000895CF93DF9300D000D0CDB7DEB70E9433
:100200009B000E94280180E690E00E94D1008DE4CE
:100210000E944C018FE60E944C0188E60E944C012E
:100220000E94750169837A838B839C83CE0101963A
:100230000E94D10061E671E6CB010E94540160E0AA
:1002400082E00E94C2000E9450010E946E00FBCF1B
:1002500080B5806880BD80B58F7B80BD8BB18D7F80
:100260008BB983E389B980B5826080BD80B5846035
:1002700080BD8AB18B7F8AB980B58F7E80BD80B505
:100280008F7D80BD80B5877F80BD8AB188608AB947
:100290008AB180618AB908955D9BFECF8CB90895BB
:1002A0005F9BFECF8CB108951F93CF93DF9300D057
:1002B00000D0CDB7DEB769837A838B839C8310E04F
:1002C0000AC0E1E0F0E0EC0FFD1FE10FF11D8081BD
:1002D0000E944C011F5F1430A0F30F900F900F90FD
:1002E0000F90DF91CF911F910895EF92FF921F938E
:1002F000CF93DF9300D000D0CDB7DEB719821A823A
:100300001B821C8210E00CC0EE24E394F12CEC0E56
:10031000FD1EE10EF11C0E945001F70180831F5F5A
:10032000143090F369817A818B819C810F900F90BA
:100330000F900F90DF91CF911F91FF90EF90089554
:04034000F894FFCF5F
:080344005541525420545800A9
:00000001FF
