:020000040800F2
:1000000000280020390B0008890B0008890B000824
:10001000890B0008890B0008890B0008000000000C
:10002000000000000000000000000000890B000834
:10003000890B000800000000890B0008890B0008EC
:10004000890B0008890B0008890B0008890B000840
:10005000890B0008890B00086D060008910600084E
:10006000B5060008D9060008FD060008890B00083F
:10007000890B0008890B0008890B0008890B000810
:10008000890B0008890B0008890B0008890B000800
:10009000890B0008890B0008890B0008210700085C
:1000A000890B0008890B0008890B0008890B0008E0
:1000B000890B0008890B0008890B0008890B0008D0
:1000C000890B0008890B0008890B0008890B0008C0
:1000D000890B0008890B0008890B0008890B0008B0
:1000E000C9070008890B000800000000890B000800
:1000F000890B0008890B0008890B0008890B000890
:10010000890B0008890B0008890B0008890B00087F
:10011000890B0008890B0008890B0008890B00086F
:10012000890B0008890B0008890B0008890B00085F
:1001300010B5054C237833B9044B13B10448AFF321
:1001400000800123237010BD00000020000000008B
:10015000D40B000808B5034B1BB103490348AFF3A8
:10016000008008BD0000000004000020D40B00083F
:1001700080B582B000AF0123BB800423BB71012393
:10018000FB713B1D1946394800F0D4FB0223BB80AC
:100190003B1D1946354800F0CDFB0423BB803B1DB9
:1001A0001946324800F0C6FB0823BB803B1D1946A8
:1001B0002E4800F0BFFB1023BB803B1D19462B4887
:1001C00000F0B8FB2023BB803B1D1946274800F0F8
:1001D000B1FB4023BB803B1D1946244800F0AAFB1D
:1001E0008023BB803B1D1946204800F0A3FB4FF441
:1001F0008073BB803B1D19461C4800F09BFB4FF4ED
:100200000073BB803B1D1946184800F093FB4FF468
:100210008063BB803B1D1946144800F08BFB002215
:100220004FF48071114800F0F5FB00224FF400718B
:100230000E4800F0EFFB00224FF480610B4800F005
:10024000E9FB022000F016FC00F087F8382000F0EF
:100250000FF8062000F00CF8802000F009F80F20BD
:1002600000F006F800BF0837BD4680BD0008014019
:1002700080B582B000AF0346FB71FB799BB2194693
:100280000A4800F0E9FB00224FF48071074800F0B3
:10029000C1FB00224FF40071044800F0BBFB00F0EA
:1002A00083F800BF0837BD4680BD00BF000801408D
:1002B00080B582B000AF0346FB71FB799BB2194653
:1002C0000B4800F0C9FB01224FF48071084800F090
:1002D000A1FB00224FF40071054800F09BFB00F0E9
:1002E00063F8012000F0C6FB00BF0837BD4680BDA3
:1002F0000008014080B584B000AF78600023BB7374
:10030000BB7BFB731FE0FB7B7A6813441B781846AA
:10031000FFF7CEFFBB7B0133BB73BB7B102B02D03F
:10032000202B05D00CE00021022000F01DF807E092
:1003300000F013F80021012000F016F80023BB7331
:10034000FB7B0133FB73FB7B7A6813441B78002B28
:10035000D9D100BF1037BD4680BD80B500AF0120A8
:10036000FFF786FF00BF80BD80B582B000AF0346B7
:100370000A46FB711346BB71FB79012B02D0022B9D
:1003800008D00DE0BB79803BDBB21846FFF770FF69
:1003900000BF05E0BB79403BDBB21846FFF768FFC2
:1003A00000BF0837BD4680BD80B500AF01224FF4C5
:1003B0008061084800F02EFB642000F05BFB002207
:1003C0004FF48061034800F025FB642000F052FBED
:1003D00000BF80BD0008014080B483B000AF034679
:1003E000FB71FB791E2B0AD8104B1B68FA7901218F
:1003F00001FA02F211460D4A0B43136010E0FB793B
:100400001F2B0DD9FB793F2B0AD8094B1B68FA79B2
:10041000203A012101FA02F21146054A0B4313600A
:1004200000BF0C37BD4680BC704700BF00E100E054
:1004300004E100E080B483B000AF0346FB71FB79B8
:100440001E2B0AD8104B1B68FA79012101FA02F21F
:1004500011460D4A0B43136010E0FB791F2B0DD999
:10046000FB793F2B0AD8094B1B68FA79203A012106
:1004700001FA02F21146054A0B43136000BF0C3724
:10048000BD4680BC704700BF80E100E084E100E031
:1004900080B584B000AF78600823BB727B681B898D
:1004A0003B817B685B6807F108021146184600F043
:1004B00041FA7B681B789B08FB737B681B7803F011
:1004C0000303DBB29B00BB735C4AFB7B023352F835
:1004D0002320BB7B0F2101FA03F3DB431846574966
:1004E000FB7B0240023341F82320544AFB7B02335A
:1004F00052F823207B685B6851498B420FD07B68A0
:100500005B6850498B4208D07B685B684E498B42E0
:1005100001D1022304E0032302E0012300E00023D1
:10052000B97B8B4018464549FB7B0243023341F8B7
:100530002320464BDB687A681278114601228A40F4
:10054000D2431146414A0B40D360404B9B687A68C6
:100550001278114601228A40D24311463B4A0B4091
:1005600093607B681B7B012B0BD1384BDB687A686F
:100570001278114601228A401146344A0B43D36057
:1005800029E07B681B7B002B0BD1304B9B687A6882
:100590001278114601228A4011462C4A0B4393607F
:1005A00019E07B681B7B022B15D1284BDB687A682E
:1005B0001278114601228A401146244A0B43D36027
:1005C000224B9B687A681278114601228A401146B4
:1005D0001E4A0B4393607B681B7819467B681B6936
:1005E0001B4A42F821307B685B7B012B10D1174BF3
:1005F0001B687A681278114601228A401146134A14
:100600000B4313607B689B7A1846FFF7E5FE10E00A
:100610000E4B1B687A681278114601228A40D24339
:1006200011460A4A0B4013607B689B7A1846FFF715
:1006300001FF00BF1037BD4680BD00BF0000014074
:1006400000080140000C014000100140000401407E
:100650001C00002080B582B000AF78607868FFF79A
:1006600017FF00BF0837BD4680BD000080B500AF52
:10067000054B5B69044A43F001035361034B1B685C
:10068000984700BF80BD00BF000401401C0000204F
:1006900080B500AF054B5B69044A43F00203536128
:1006A000034B5B68984700BF80BD00BF000401405A
:1006B0001C00002080B500AF054B5B69044A43F085
:1006C00004035361034B9B68984700BF80BD00BF84
:1006D000000401401C00002080B500AF054B5B69A1
:1006E000044A43F008035361034BDB68984700BF9B
:1006F00080BD00BF000401401C00002080B500AF99
:10070000054B5B69044A43F010035361034B1B69BB
:10071000984700BF80BD00BF000401401C000020BE
:1007200080B500AF264B5B6903F02003002B08D097
:10073000234B5B69224A43F020035361214B5B69E1
:1007400098471F4B5B6903F04003002B08D01C4BFC
:100750005B691B4A43F0400353611A4B9B699847FE
:10076000174B5B6903F08003002B08D0144B5B69C7
:10077000134A43F080035361124BDB699847104BD7
:100780005B6903F48073002B08D00D4B5B690C4A46
:1007900043F4807353610B4B1B6A9847084B5B69AA
:1007A00003F40073002B08D0054B5B69044A43F443
:1007B00000735361034B5B6A984700BF80BD00BF65
:1007C000000401401C00002080B500AF2D4B5B6988
:1007D00003F48063002B08D02A4B5B69294A43F459
:1007E00080635361284B9B6A9847264B5B6903F4EF
:1007F0000063002B08D0234B5B69224A43F400635B
:100800005361214BDB6A98471E4B5B6903F48053AD
:10081000002B08D01B4B5B691A4A43F48053536189
:10082000194B1B6B9847174B5B6903F40053002B64
:1008300008D0144B5B69134A43F400535361124BC5
:100840005B6B98470F4B5B6903F48043002B08D028
:100850000C4B5B690B4A43F4804353610A4B9B6B1F
:100860009847084B5B6903F40043002B08D0054B05
:100870005B69044A43F400435361034BDB6B9847C5
:1008800000BF80BD000401401C00002080B483B084
:1008900000AF0346FB80FB88802B42D0802B11DC0D
:1008A000082B36D0082B06DC022B2ED0042B2ED0A2
:1008B000012B28D037E0202B2FD0402B2FD0102B0E
:1008C00029D030E0B3F5006F23D0B3F5006F09DC19
:1008D000B3F5007F19D0B3F5806F18D0B3F5807FE2
:1008E00011D020E0B3F5005F17D0B3F5005F03DC53
:1008F000B3F5805F0FD016E0B3F5804F0FD0B3F59E
:10090000004F0ED00FE000230EE004230CE008237C
:100910000AE00C2308E0102306E0142304E0182367
:1009200002E01C2300E0002318460C37BD4680BCC3
:100930007047000080B586B000AF78603960002352
:100940003B613B681B88FF2B01D87B6801E07B681B
:1009500004333B613B681B881846FFF797FF03464B
:10096000FB733B691B68FA7B0F2101FA02F2D24349
:100970001A403B691A603B689B78082B3DD801A25E
:1009800052F823F0A9090008A9090008B3090008D2
:10099000C7090008E3090008E3090008E3090008A3
:1009A000E3090008DD0900083B689B789B00FB75A4
:1009B00023E00823FB757B68DB683A6812881A43DA
:1009C0007B68DA6019E00823FB757B68DB683A68AE
:1009D0001288D2431A407B68DA600EE00423FB756C
:1009E0000BE03B68DB785AB23B689B78043B9B008A
:1009F0005BB213435BB2FB7500BF3B691B68F97DBB
:100A0000FA7B01FA02F21A433B691A6000BF1837F9
:100A1000BD4680BD80B483B000AF78600B467B805C
:100A200013467B707B78002B09D0012B00D00EE0A1
:100A30007B68DA687B881A437B68DA6007E07B684A
:100A4000DB687A88D2431A407B68DA6000BF00BF57
:100A50000C37BD4680BC704780B483B000AF78606F
:100A60000B467B807A887B68DA6000BF0C37BD4616
:100A700080BC704780B485B000AF78600023FB6015
:100A80000BE00023BB6002E0BB680133BB60BB68C6
:100A9000FE2BF9DDFB680133FB60FA687B689A4244
:100AA000EFDB00BF1437BD4680BC704780B400AF99
:100AB0000A4B9B69094A43F004039361074B9B6906
:100AC000064A43F008039361044B9B69034A43F0D1
:100AD0000103936100BFBD4680BC70470010024017
:100AE00080B500AF0548FFF705FC4FF47A70FFF7BB
:100AF000C1FFFFF732FC00BF80BD00BFEC0B000858
:100B000080B586B000AFFFF7D1FFFFF731FB084A91
:100B10003B1D07CA83E8070001237B7400233B7455
:100B2000044B7B613B1D1846FFF794FDFEE700BFB9
:100B3000080C0008E10A00080D488546AFF3008064
:100B40000C480D490D4A002302E0D458C450043328
:100B5000C4188C42F9D30A4A0A4C002301E01360FE
:100B60000432A242FBD300F011F8FFF7C9FFFEE701
:100B70000028002000000020000000201C0C0008BD
:100B8000000000205C000020FEE7000070B500259A
:100B90000C4E0D4CA41BA410A54209D100F01AF86C
:100BA00000250A4E0A4CA41BA410A54205D170BD15
:100BB00056F8253098470135EEE756F82530984726
:100BC0000135F2E7140C0008140C0008140C00089E
:100BD000180C0008F8B500BFF8BC08BC9E4670476A
:0C0BE000F8B500BFF8BC08BC9E4670478A
:100BEC004954512045585449392069732068617023
:100BFC0070656E6564205F7C2D00000009000000AC
:080C0C00000C0140000217007A
:040C1400550100087E
:040C1800310100089E
:0400000508000B39AB
:00000001FF
