:100000000C942A000C943F000C943F000C943F0089
:100010000C943F000C943F000C943F000C943F0064
:100020000C943F000C943F000C943F000C943F0054
:100030000C943F000C943F000C943F000C943F0044
:100040000C943F000C943F000C943F000C943F0034
:100050000C943F0011241FBECFE5D8E0DEBFCDBF1A
:1000600010E0A0E6B0E0ECE0F3E002C005900D92F5
:10007000A836B107D9F70E946E010C9484010C9444
:10008000000081110CC06130E9F1D0F1623019F04B
:10009000633019F034C089E308958FE20895813008
:1000A00071F4613089F128F0623029F0633029F071
:1000B00026C084E3089586E308958AE20895823095
:1000C00071F4613019F128F0623029F0633029F0C1
:1000D00016C081E3089583E308958DE20895833087
:1000E00071F46130A9F028F0623029F0633029F012
:1000F00006C083E608958DE308958BE20895089580
:1001000087E3089588E3089585E3089582E30895D9
:1001100080E3089584B3807F84BB85B38F6085BB03
:1001200084B3806F84BB85B3806F85BB089560E026
:100130004FC025B3462F50E0FA01E05AFF4F81E04F
:1001400090E0008002C0880F991F0A94E2F7809522
:10015000822385BB80E02BC023B3E82FF0E0EC596D
:10016000FF4F9081E92F30E002C0359527959A9591
:10017000E2F720FD1BC023B330E00E2E02C0359500
:1001800027950A94E2F720FFF6CF95B3FA01E05ADB
:10019000FF4F21E030E0008002C0220F331F0A949D
:1001A000E2F7292B25BB0E94410008958F5F843020
:1001B00098F225B3FA01E05AFF4F81E090E0008009
:1001C00002C0880F991F0A94E2F7822B85BB6F5FEC
:1001D000643008F4AECF80E0089588B3846088BBB3
:1001E00089EF90E00197F1F700C0000088B38B7FA2
:1001F00088BB83EF91E00197F1F700C000000895FC
:10020000CF93C82F88B38C7F88BB8BB38F709C2F04
:10021000907F892B8BBB0E94ED002BB330E1C39FF5
:10022000C0011124922F9F70892B8BBB0E94ED007F
:10023000CF910895CF93C82F88B3816088BB88B3CE
:100240008D7F88BB8BB38F709C2F907F892B8BBB4E
:1002500089EF90E00197F1F700C000000E94ED00E7
:100260002BB330E1C39FC0011124922F9F70892BC3
:100270008BBB0E94ED008BE594E40197F1F700C081
:100280000000CF91089581E00E940001089587E861
:1002900093E10197F1F700C000008AB3806F8ABB39
:1002A00087B3876087BB88B3887F88BB85EA9EE079
:1002B0000197F1F700C000000E94430182E00E9414
:1002C000000188E20E94000186E00E94000180E8AF
:1002D0000E9400018FE00E94000108950E948A00A0
:1002E0000E94470181E30E941A010E9497000E9428
:1002F0009700E3ECF9E03197F1F700C000008823A4
:0C030000B1F30E941A01F3CFF894FFCF74
:08030C000405060700010203CD
:00000001FF
